:020000040800F2
:10000000D8070024650300088149000891460008CC
:100010007949000861050008B95600080000000091
:10002000000000000000000000000000E14B00089C
:10003000A10600080000000089490008E94B0008FB
:100040007F0300087F0300087F0300087F03000888
:100050007F0300087F0300087F0300087F03000878
:100060007F0300087F0300087F030008690500087C
:100070007F0300087F0300087F0300087F03000858
:100080007F0300087F0300087F0300087F03000848
:100090007F0300087F0300087F0300087F03000838
:1000A0007F0300087F0300087F0300087F03000828
:1000B0007F0300087F0300087F0300087F03000818
:1000C0007F0300087F0300087F0300087F03000808
:1000D0007F030008A95600087F0300087F0300087B
:1000E0007F0300087F030008000000007F03000872
:1000F0007F0300087F0300087F0300087F030008D8
:100100007F0300087F0300087F0300087F030008C7
:100110007F0300087F030008B14D00087F0300083B
:100120007F0300087F0300087F0300087F030008A7
:100130007F0300087F0300087F0300087F03000897
:1001400000000000000000000000000000000000AF
:100150007F0300087F0300087F0300087F03000877
:100160007F0300087F0300087F0300087F03000867
:100170007F0300087F0300087F03000800000000E1
:100180007F0300087F0300087F0300087F03000847
:100190007F0300087F0300087F0300087F03000837
:1001A0007F0300087F0300087F0300087F03000827
:1001B0007F0300087F0300087F0300087F03000817
:1001C0007F0300087F0300087F0300087F03000807
:1001D0007F0300087F0300087F0300087F030008F7
:1001E0007F0300087F0300087F0300087F030008E7
:1001F0007F0300087F0300087F0300087F030008D7
:100200007F0300087F0300087F0300087F030008C6
:100210007F0300087F0300087F0300087F030008B6
:100220007F0300087F0300087F0300080000000030
:100230007F0300087F030008000000007F03000820
:100240007F0300087F0300087F0300087F03000886
:100250007F0300087F0300087F0300087F03000876
:100260007F0300087F0300087F0300087F03000866
:100270007F0300087F0300087F03000800000000E0
:100280007F0300087F0300087F03000800000000D0
:10029000000000007F03000800F002F800F052F8B0
:1002A00014A696E8000CB244B344DA4501D100F03C
:1002B00049F8BAE80F000FA696E83000A5EB040550
:1002C00004EB0607AAEB0704A7F101074FEA15158F
:1002D0004FEA3414A4F10104AC4201D300F032F827
:1002E00013F0010F18BFFB1A43F0010300F001F8EF
:1002F000DBE718474C5400006C540000103A24BF50
:1003000078C878C1FAD8520724BF30C830C144BF7A
:1003100004680C6070470000704700000023002450
:1003200000250026103A28BF78C1FBD8520728BF05
:1003300030C148BF0B6070471FB505F0D2F91FBD33
:1003400010B510BD00F0D0F81146FFF7F5FF05F02D
:10035000B7F900F0EEF803B4FFF7F2FF03BC00F0CA
:10036000F5F800000948804709480047FEE7FEE726
:10037000FEE7FEE7FEE7FEE7FEE7FEE7FEE7FEE755
:1003800004480549054A064B70470000E14C000847
:1003900099020008D8010024D8070024D8030024BB
:1003A000D803002453EA020C00F069802DE9F04BD9
:1003B0004FF00006002B1FBFB3FA83F503FA05F4D4
:1003C00024FA05F65E4012BF1643B2FA82F502FA2D
:1003D00005F4C5F120051EBF22FA05FC44EA0C0411
:1003E000203556EA044C4FEA144418BF641C4FF001
:1003F00000084FF00009904271EB030C39D300293B
:1004000019BFB1FA81F701FA07F6B0FA80F700FADE
:1004100007F6C7F120071EBF20FA07FC46EA0C06C4
:100420002037B6FBF4FCA7EB0507103F07F01F0BC6
:10043000CBF120062CFA06F60CFA0BFB44BFB346B0
:100440000026202FA4BF5E464FF0000B5BEA060C8F
:1004500008BF4FF0010B19EB0B0948EB0608ABFB8B
:10046000027C06FB02CC0BFB03CCC01B71EB0C0126
:10047000C1E70B46024641464846BDE8F08B13B53E
:10048000084318BF4FF0FF300146AFF30080BDE8CE
:100490001C4070474FF0000200B513469446964644
:1004A000203922BFA0E80C50A0E80C50B1F1200187
:1004B000BFF4F7AF090728BFA0E80C5048BF0CC035
:1004C0005DF804EB890028BF40F8042B08BF704793
:1004D00048BF20F8022B11F0804F18BF00F8012B05
:1004E0007047704770477047754600F02BF8AE466E
:1004F00005006946534620F00700854618B020B530
:10050000FFF73EFFBDE820404FF000064FF0000728
:100510004FF000084FF0000BAC46ACE8C009ACE867
:10052000C009ACE8C009ACE8C00921F007018D465C
:10053000704710B50446AFF300802046BDE8104078
:10054000FFF709BF00487047100000240149182038
:10055000ABBEFEE72600020070470000000000006E
:10056000FEE700000000000040F27C00C2F2004004
:1005700000F092BC0000000040F20F42D0F800C032
:10058000C4F20202944511DC6F22C4F202029445C7
:1005900022DC3F22C4F20202944539DC1022C4F26C
:1005A000020294455AD0282254E000BF40F26F4224
:1005B000C4F2020294451BDC40F23F42C4F2020244
:1005C00094452DDC40F21042C4F20202944545D01D
:1005D00040F228423EE000BF9F22C4F2020294454E
:1005E00028DC7022C4F20202944537D0882231E020
:1005F00040F29F42C4F20202944523DC40F2704272
:10060000C4F20202944529D040F2884222E000BFA1
:100610004022C4F20202944520D058221AE000BFC2
:1006200040F24042C4F20202944517D040F25842D0
:1006300010E000BFA022C4F2020294450ED0B822FE
:1006400008E000BF40F2B842C4F20202944505D06F
:1006500040F2A042C4F20202944517D10CF0F80215
:100660004AF6AB23103ACAF6AA23A2FB03310AA327
:100670005F2AC1F302115B5C40F2FF312CEA0101F9
:10068000C36588BF04318165084670472CF0FF01BF
:1006900081650846704700BF000610160006101658
:1006A0007047000000000000EFF3108072B600BF3A
:1006B000FEE70000000000002DE9F041044601F0D3
:1006C0001BFC1CB3054694F83500022822D140F2E9
:1006D0000F472668C4F2020740F26F48BE426FF02F
:1006E0000E00C4F202081DDC6F21C4F202018E422A
:1006F0002ADC3F21C4F202018E4241DC1021C4F207
:1007000002018E4263D028215CE000BF0120BDE8D9
:10071000F08100BF802060650120002184F8341042
:10072000BDE8F08146451BDC40F23F41C4F20201C6
:100730008E422DDC40F21041C4F202018E4246D0BE
:1007400040F228413EE000BF9F21C4F202018E42E8
:1007500028DC7021C4F202018E4238D0882131E0B9
:1007600040F29F41C4F202018E4223DC40F270410C
:10077000C4F202018E422AD040F2884122E000BF3A
:100780004021C4F202018E4221D058211AE000BF5C
:1007900040F24041C4F202018E4218D040F258416A
:1007A00010E000BFA021C4F202018E420FD0B82198
:1007B00008E000BF40F2B841C4F202018E4206D008
:1007C00040F2A041C4F202018E42314607D13146C7
:1007D000306820F01E0041F8140B6FF080000A68AA
:1007E000464500EA020008601ADC9F20C4F20200BD
:1007F000864233DC5720C4F2020086425ADC1020C5
:10080000C4F20200864200F097802820C4F2020061
:10081000864200F091804020C4F202008AE000BFCE
:1008200045F22F40C5F6020086422DDC40F2B7406B
:10083000C4F2020086424BDC40F27040C4F2020077
:10084000864279D040F28840C4F20200864273D0DA
:1008500040F2A040C4F202006CE000BF40F227402A
:10086000C4F20200864243DCA020C4F202008642A9
:1008700062D0B820C4F2020086425DD040F210403F
:10088000C4F2020056E000BF45F26B40C5F602001C
:1008900086423FDC45F23040C5F6020086424BD02E
:1008A00045F24440C5F60200864245D045F2584024
:1008B0003EE000BF5820C4F2020086423CD07020C7
:1008C000C4F20200864237D08820C4F2020031E030
:1008D00040F2B840C4F2020086422DD045F20840F2
:1008E000C5F60200864227D045F21C4020E000BF3A
:1008F00040F22840C4F2020086421DD040F240403F
:10090000C4F20200864217D040F25840C4F20200FE
:1009100010E000BF45F26C40C5F6020086420BD0E5
:1009200045F29440C5F60200864205D045F280406B
:10093000C5F60200864204D1206E016821F4807160
:100940000160306820F00100306000BF3068C007EF
:1009500010D001F0D1FA401B0628F7D320206065A3
:10096000032084F835000120002184F83410BDE80C
:10097000F08100BF20680821B8424FF03F0211DC2F
:100980006F23C4F2020398421EDC3F23C4F2020329
:10099000984235DC1023C4F20203984257D0282332
:1009A00050E000BF40451BDC40F23F43C4F202036D
:1009B00098422DDC40F21043C4F20203984246D024
:1009C00040F228433EE000BF9F23C4F20203984256
:1009D00028DC7023C4F20203984238D0882331E027
:1009E00040F29F43C4F20203984223DC40F270437A
:1009F000C4F2020398422AD040F2884322E000BFAA
:100A00004023C4F20203984221D058231AE000BFC9
:100A100040F24043C4F20203984218D040F25843D7
:100A200010E000BFA023C4F2020398420FD0B82305
:100A300008E000BF40F2A043C4F20203984206D08F
:100A400040F2B843C4F20203984240F0C580D4E9B2
:100A5000163707F01F07404502FA07F25A5019DC13
:100A60009F21C4F20201884232DC5721C4F2020104
:100A7000884259DC1021C4F20201884200F09680BD
:100A80002821C4F20201884200F090804021C4F283
:100A9000020189E045F22F41C5F6020188422DDCB2
:100AA00040F2B741C4F2020188424BDC40F270418F
:100AB000C4F20201884279D040F28841C4F20201B6
:100AC000884273D040F2A041C4F202016CE000BF42
:100AD00040F22741C4F20201884243DCA021C4F263
:100AE0000201884262D0B821C4F2020188425DD07E
:100AF00040F21041C4F2020156E000BF45F26B41E2
:100B0000C5F6020188423FDC45F23041C5F60201DC
:100B100088424BD045F24441C5F60201884245D097
:100B200045F258413EE000BF5821C4F2020188421C
:100B30003CD07021C4F20201884237D08821C4F22F
:100B4000020131E040F2B841C4F2020188422DD0E6
:100B500045F20841C5F60201884227D045F21C4102
:100B600020E000BF40F22841C4F2020188421DD0BB
:100B700040F24041C4F20201884217D040F258418D
:100B8000C4F2020110E000BF45F26C41C5F602015B
:100B900088420BD045F29441C5F60201884205D047
:100BA00045F28041C5F6020188420BD1616EA26E0A
:100BB000E06E4A6030B1016821F480710160D4E9CF
:100BC0001C014160012084F835000020002184F8D8
:100BD0003410BDE8F08100BF0421012237E7000096
:100BE000F0B190F83510022918D180B540F20F42CB
:100BF0000168C4F20202914214DC6F23C4F20203C2
:100C0000994225DC3F23C4F2020399423CDC1023C5
:100C1000C4F2020399425DD0282357E08021416548
:100C20000120704740F26F43C4F2020399421BDC7B
:100C300040F23F43C4F2020399422DDC40F21043DC
:100C4000C4F20203994245D040F228433EE000BF7F
:100C50009F23C4F20203994228DC7023C4F20203EA
:100C6000994237D0882331E040F29F43C4F2020317
:100C7000994223DC40F27043C4F20203994229D026
:100C800040F2884322E000BF4023C4F202039942AD
:100C900020D058231AE000BF40F24043C4F20203C0
:100CA000994217D040F2584310E000BFA023C4F28D
:100CB000020399420ED0B82308E000BF40F2B843C7
:100CC000C4F20203994205D040F2A043C4F20203E9
:100CD000994275D191424FF0040280F8352011DC21
:100CE0006F20C4F20200814222DC3F20C4F20200E5
:100CF000814239DC1020C4F20200814259D0282000
:100D000054E000BF40F26F40C4F2020081421BDC9D
:100D100040F23F40C4F2020081422DDC40F210401C
:100D2000C4F20200814244D040F228403EE000BFBD
:100D30009F20C4F20200814228DC7020C4F202002D
:100D4000814236D0882031E040F29F40C4F2020058
:100D5000814223DC40F27040C4F20200814228D07C
:100D600040F2884022E000BF4020C4F202008142ED
:100D70001FD058201AE000BF40F24040C4F20200E9
:100D8000814216D040F2584010E000BFA020C4F2CB
:100D9000020081420DD0B82008E000BF40F2B84008
:100DA000C4F20200814204D040F2A040C4F202002A
:100DB0008142086820F001000860002080BD00BF6B
:100DC0000A6822F00E020A6045F25742C5F6020296
:100DD00091420A6822F001020A600FDC45F22F42BC
:100DE000C5F60202914219DC45F20842C5F602023C
:100DF000914229D045F21C4222E000BF45F27F42D9
:100E0000C5F60202914213DC45F25842C5F60202D1
:100E1000914219D045F26C4212E000BF45F23042D7
:100E2000C5F6020291420FD045F2444208E000BFED
:100E300045F29442C5F60202914205D045F2804245
:100E4000C5F6020291421AD1D0E9181CD0E916E386
:100E50000A6822F480720A6003F01F01012202FA7C
:100E600001F1CEF80410816ECCF80410C16E31B1DE
:100E70000A6822F480720A60D0E91C124A600121DB
:100E800080F83510016D0022002980F8342094D0BC
:100E90008847002080BD00002DE9F04782B0002186
:100EA000019140F2080148F2B513C2F20041C1F6C7
:100EB0004E33856D40F26F490A680168C4F2020939
:100EC0002E68A2FB032849452A6815DC9F22C4F23C
:100ED000020291422CDC5722C4F20202914251DC00
:100EE0001022C4F2020291427BD02822C4F20202F4
:100EF000914276D040226FE045F22F43C5F60203BF
:100F0000994229DC40F2B743C4F20203994245DC1E
:100F100040F27042C4F20202914262D040F2884232
:100F2000C4F2020291425CD040F2A04254E000BF01
:100F300040F22742C4F2020291423FDCA022C4F2F6
:100F4000020291424DD0B822C4F20202914248D02E
:100F500040F2104240E000BF45F26B43C5F6020389
:100F6000994275DC45F23043C5F60203994200F020
:100F7000828045F24443C5F6020399427BD045F294
:100F8000584373E05822C4F20202914229D07022E1
:100F9000C4F20202914224D088221DE040F2B843FC
:100FA000C4F2020399421CD045F20843C5F602037D
:100FB000994260D045F21C4358E000BF40F22842FD
:100FC000C4F2020291420CD040F24042C4F202024A
:100FD000914206D040F25842C4F20202914240F0DF
:100FE0005383C26D082302F01F0240F20F4A934060
:100FF000C4F2020A334200F0DE8051454FF004048F
:1010000012DC6F27C4F20207B9426DDC3F27C4F23D
:101010000207B94200F39C801027C4F20207B942CC
:1010200000F0BD802827B5E0494569DC40F23F4724
:10103000C4F20207B94200F3938040F21047C4F2B1
:101040000207B94200F0AB8040F22847A2E000BF9F
:1010500045F26C43C5F6020399420CD045F2804339
:10106000C5F60203994206D045F29443C5F6020341
:10107000994240F009830B68C76D07F01F070426EB
:10108000BE40164218BF13F0040423D10226BE400E
:10109000164218BF13F0020442D1FA40120740F181
:1010A000F38213F0080200F0EF820A6822F00E02C9
:1010B0000A60012101FA07F26A60416580F8351083
:1010C000C16C00294FF0000280F8342040F0D88233
:1010D000DAE200BF1A046E6034D49A0636D40A6885
:1010E00022F004020A6031E09F27C4F20207B942ED
:1010F00040DC7027C4F20207B94250D0882749E08B
:1011000040F29F47C4F20207B9423BDC40F270470D
:10111000C4F20207B94242D040F288473AE000BF29
:101120001A046E6000F1B4829A0600F1B5820A6872
:1011300022F00A020A60012180F83510002180F8AF
:101140003410A9E2D90301D4816C98E2016C96E2D3
:101150004027C4F20207B94221D058271AE000BF45
:1011600040F24047C4F20207B94218D040F2584753
:1011700010E000BFA027C4F20207B9420FD0B82781
:1011800008E000BF40F2A047C4F20207B94206D00F
:1011900040F2B847C4F20207B94218BF08240F68EA
:1011A000274208D00F6827F004070F60AB60436D3B
:1011B00043F0010343650123934033426FD051450F
:1011C00010DC6F27C4F20207B9421DDC3F27C4F2CE
:1011D0000207B94234DC1027C4F20207B94256D0E4
:1011E00028274FE049451BDC40F23F47C4F2020785
:1011F000B9422DDC40F21047C4F20207B94246D092
:1012000040F228473EE000BF9F27C4F20207B942E0
:1012100028DC7027C4F20207B94238D0882731E0B1
:1012200040F29F47C4F20207B94223DC40F2704704
:10123000C4F20207B9422AD040F2884722E000BF38
:101240004027C4F20207B94221D058271AE000BF54
:1012500040F24047C4F20207B94218D040F2584762
:1012600010E000BFA027C4F20207B9420FD0B82790
:1012700008E000BF40F2A047C4F20207B94206D01E
:1012800040F2B847C4F20207B94240F007824F6902
:101290003F0604D5AB60436D43F00203436504236E
:1012A000934033426FD0514510DC6F27C4F20207E0
:1012B000B9421DDC3F27C4F20207B94234DC1027D3
:1012C000C4F20207B94256D028274FE049451BDC3B
:1012D00040F23F47C4F20207B9422DDC40F210470A
:1012E000C4F20207B94246D040F228473EE000BFB0
:1012F0009F27C4F20207B94228DC7027C4F2020714
:10130000B94238D0882731E040F29F47C4F2020743
:10131000B94223DC40F27047C4F20207B9422AD036
:1013200040F2884722E000BF4027C4F20207B942DA
:1013300021D058271AE000BF40F24047C4F202070C
:10134000B94218D040F2584710E000BFA027C4F2BD
:101350000207B9420FD0B82708E000BF40F2A0470B
:10136000C4F20207B94206D040F2B847C4F20207FD
:10137000B94240F09B810F68BF0704D5AB60436D55
:1013800043F004034365102303FA02F2324200F0F3
:10139000828051454FF0080310DC6F27C4F202072A
:1013A000B9421DDC3F27C4F20207B94234DC1027E2
:1013B000C4F20207B94256D028274FE049451BDC4A
:1013C00040F23F47C4F20207B9422DDC40F2104719
:1013D000C4F20207B94246D040F228473EE000BFBF
:1013E0009F27C4F20207B94228DC7027C4F2020723
:1013F000B94238D0882731E040F29F47C4F2020753
:10140000B94223DC40F27047C4F20207B9422AD045
:1014100040F2884722E000BF4027C4F20207B942E9
:1014200021D058271AE000BF40F24047C4F202071B
:10143000B94218D040F2584710E000BFA027C4F2CC
:101440000207B9420FD0B82708E000BF40F2A0471A
:10145000C4F20207B94206D040F2B847C4F202070C
:10146000B94218BF04230F681F4214D0AA600A684B
:1014700052030A6808D4D20508D40A6822F0080288
:101480000A60016C21B906E0110351D4016C11B15D
:10149000044688472046C16D01F01F02202101FA51
:1014A00002F3334200F0AF8001681027514511DC90
:1014B0006F26C4F20206B1421EDC3F26C4F20206C9
:1014C000B14239DC1026C4F20206B1425BD02826B4
:1014D00054E000BF49451BDC40F23F46C4F202061F
:1014E000B14231DC40F21046C4F20206B1424AD0A9
:1014F00040F2284642E000BF9F26C4F20206B142F5
:101500002CDC7026C4F20206B1423CD0882635E0BD
:1015100040F29F46C4F20206B14227DC40F2704618
:10152000C4F20206B1422ED040F2884626E000BF47
:10153000816C0029ACD1AEE74026C4F20206B1426C
:1015400021D058261AE000BF40F24046C4F20206FD
:10155000B14218D040F2584610E000BFA026C4F2B5
:101560000206B1420FD0B82608E000BF40F2A04604
:10157000C4F20206B14206D040F2B846C4F20206F6
:10158000B14218BF02270E683E423CD0AB6090F8D3
:101590003530042B0B681DD123F016030B604B690B
:1015A00023F080034B61036C0BB9836C1BB10B6898
:1015B00023F008030B603F219140A960012180F8CE
:1015C0003510016D00294FF0000280F8342057D10A
:1015D0005AE000BF5A030A680CD4D2050ED40A6838
:1015E00022F010020A60012180F83510002180F8F5
:1015F000341003E0110301D4416C00E0C16B11B160
:10160000044688472046416D00293DD0416DC907F9
:1016100034D0042180F8351001684FEA98220B6815
:1016200023F001030B60019B0133019393421AD80D
:101630000B68DB0717D0019B01330193934212D84B
:101640000B68DB070FD0019B0133019393420AD84B
:101650000B68DB0707D0019B01330193934202D84B
:101660000B68DB07DFD10968C9074FF0030108BF2A
:10167000012180F83510002180F83410C16C19B1B7
:1016800002B0BDE8F047084702B0BDE8F08700BFF0
:10169000D90301D4416CF2E7C16BF0E70B68042376
:1016A000934033427FF4FFAD6DE600BF0B686AE6FE
:1016B0002DE9F041044600F01FFCFCB140F26F48F8
:1016C00005462068C4F2020840451BDC9F21C4F295
:1016D0000201884232DC5721C4F20201884259DCFF
:1016E0001021C4F20201884200F083802821C4F254
:1016F0000201884200F07D80402175E00120BDE8B4
:10170000F08100BF45F22F41C5F60201884229DC75
:1017100040F2B741C4F20201884247DC40F2704116
:10172000C4F20201884264D040F28841C4F202014E
:1017300088425ED040F2A04156E000BF40F227410F
:10174000C4F20201884241DCA021C4F202018842B5
:101750004FD0B821C4F2020188424AD040F2104171
:1017600042E000BF45F26B41C5F60201884200F33A
:10177000B38045F23041C5F60201884200F0BF80D7
:1017800045F24441C5F60201884200F0B88045F2B6
:101790005841AFE05821C4F20201884229D070219B
:1017A000C4F20201884224D088211DE040F2B841F1
:1017B000C4F2020188421CD045F20841C5F602017C
:1017C000884200F09C8045F21C4193E040F22841A1
:1017D000C4F2020188420CD040F24041C4F202013E
:1017E000884206D040F25841C4F20201884240F0DB
:1017F0001B81022184F83510002184F8341001681F
:1018000021F00101016000BF20680168C9070DD007
:1018100000F072FB401B0628F6D3202060650320F1
:1018200084F835000120BDE8F08100BF48F23F0296
:1018300004F108060168CFF61062114065694CCECC
:101840001143A2691943E3693143266A0D43616A72
:101850002B43042943EA060343EA020303D1D4E9F4
:101860000B652E43334341F20006C5F60046366849
:10187000B6F1005F0FD36568A5F129061F2E00F2AF
:1018800035820127B7403F26CCF2C036374200F000
:101890002D8243F4801303600429436923F0070376
:1018A00041EA030140F0DC80D4E90A53002B41EA0D
:1018B000050100F0D580B2F5005F00F0B780002A86
:1018C00040F0C080022D00F0C080012D00F0B480F7
:1018D000002D00F0BA80C3E045F26C41C5F602016C
:1018E00088420CD045F28041C5F60201884206D0FC
:1018F00045F29441C5F60201884240F0958004F11A
:10190000080E022184F83510002184F83410016893
:10191000A3699EE80450A2F18005E769B5FA85F550
:1019200066696D09402A4FEA853543EA07026FF37D
:10193000101142EA060208BF102541EADC0142EA22
:101940000E02236A294341EAD20141EA131140F809
:101950000819C0B2CD2148433C2101EA9020E0653E
:101960002046FEF709FEE16D012201F01F0102FA97
:1019700001F141602068404500F381809F21C4F25D
:101980000201884214DC5721C4F20201884227DC9C
:101990001021C4F20201884200F0C7802821C4F25D
:1019A0000201884200F0C1804021C4F20201B9E086
:1019B00040F22741C4F20201884221DCA021C4F296
:1019C0000201884200F0B180B821C4F202018842CD
:1019D00000F0AB8040F21041C4F20201A2E000BF6F
:1019E0005821C4F20201884200F09F807021C4F2A5
:1019F0000201884200F099808821C4F2020191E03E
:101A000040F22841C4F20201884200F08E8040F288
:101A10004041C4F20201884200F0878040F2584100
:101A2000C4F202017EE000BF4020F7E6032D17D884
:101A3000DFE805F00E0B0E02A3F1C072B2FA82F2DB
:101A4000520904E0032D03D30AD1C3F300623AB173
:101A500040206065012084F83500BDE8F08100BFBA
:101A600041612046FEF788FDE16D3F2201F01F0134
:101A700002FA01F18160206840457FF77FAF45F2AF
:101A80002F41C5F60201884216DC40F2B741C4F28C
:101A90000201884226DC40F27041C4F20201884211
:101AA00043D040F28841C4F2020188423DD040F266
:101AB000A041C4F2020135E045F26B41C5F60201D6
:101AC00088421FDC45F23041C5F6020188422CD025
:101AD00045F24441C5F60201884226D045F25841FC
:101AE0001EE000BF40F2B841C4F2020188421CD09F
:101AF00045F20841C5F60201884216D045F21C4164
:101B00000EE000BF45F26C41C5F6020188420CD0E0
:101B100045F29441C5F60201884206D045F2804163
:101B2000C5F60201884240F0D98045F2574C45F68F
:101B3000FC0EC5F6020CC5F6020E60450EDC45F241
:101B40002F41C5F60201884218DC45F20841C5F66E
:101B50000201884228D045F21C4121E045F27F4134
:101B6000C5F60201884213DC45F25841C5F6020170
:101B7000884219D045F26C4112E000BF45F2304175
:101B8000C5F6020188420FD045F2444108E000BF8B
:101B900045F29441C5F60201884205D045F28041E4
:101BA000C5F60201884247D100F0FC014CF6CD4257
:101BB0000839CCF6CC42A1FB0212AEF1FC05AEF125
:101BC0007C061309A26803F01F01802A4FF001026E
:101BD00005EB8305256602FA01F26666A26605D169
:101BE00000206060286072601EE000BF6368D9B2A8
:101BF0005F1E072F2960726016D84E1E082E19D25C
:101C000060450EF1440237DC45F22F41C5F6020172
:101C1000884241DC45F20841C5F60201884251D0B4
:101C200045F21C414AE000BF00206067C4E91B0088
:101C300054E000BFE06E4CE000F0F8014AF6AB2241
:101C40001039CAF6AA22A1FB021240F20F43C4F2D5
:101C5000020308251109984203F1AA060B4688BF22
:101C600005EB121340F60005B042C4F2020505F17F
:101C7000800628BF0B46A5E745F27F41C5F6020165
:101C8000884213DC45F25841C5F60201884219D05A
:101C900045F26C4112E000BF45F23041C5F6020149
:101CA00088420FD045F2444108E000BF45F2804130
:101CB000C5F60201884205D045F29441C5F60201FD
:101CC00088421BD10EEB83000121E066B140226700
:101CD000616700210160D4E91C014160002060655A
:101CE000012184F83510BDE8F08100BFA5F14F0750
:101CF000042F38BF43F48013CDE500BF40F6000049
:101D0000C4F2020000F1FC0E00F5A072DAE7000058
:101D10002DE9F04F83B00F68002F00F0C98000F16B
:101D2000264642F2004506F1FF76C5F602050A2274
:101D3000A8424FEAB62540F2040C08BF092200F180
:101D400020030093092DC5F6000C38BF4FEAB622D8
:101D5000002400264FF0000801920AE008F1010873
:101D60000F6837FA08F206F1020604F1040400F0E5
:101D70009F80012202FA08FE17EA0E09EED0D1F880
:101D800004B003220BF00307B2407D1E6FEA020A83
:101D9000012D11D88268CD6802EA0A02B5402A43B3
:101DA0008260CBF30015426822EA0E0205FA08F5BC
:101DB0002A43426004E000BF032F01D103271FE044
:101DC000C2688D6802EA0A02B540022F42EA0502A3
:101DD000C26015D16FF0030204F01C0502EA580B33
:101DE000009A0F2352F80BE0AB400F692EEA030371
:101DF000AF403B4342F80B30D1F804B00BF003077F
:101E0000026807FA06F302EA0A021BF4403F42EABC
:101E100003020260A2D044F2F44340F2084EC5F639
:101E20000203C5F6000E0F251A6842F002021A607E
:101E30001A6802F00202029228F00302029B04F0E8
:101E40000C0352F80E709D40AF43019D05FA03F359
:101E50003B4342F80E304FF0B04EDEF800204B68A6
:101E600042EA0907DD0258BF22EA09079D02CEF8BF
:101E70000070DCF8002042EA090758BF22EA09078F
:101E80009D03CCF80070DCF8802042EA090758BFB7
:101E900022EA0907DB03CCF88070DCF87C2042EAF8
:101EA000090758BF22EA0907CCF87C7056E700BF43
:101EB00003B0BDE8F08F00000069084018BF0120A2
:101EC0007047000000000000426902EA01039143EC
:101ED00041EA034181617047002A08BF090481611A
:101EE000704700000000000041F20000C5F600400D
:101EF0000068000C7047000040F2D010C2F20040B1
:101F0000006870470000000040F2000040F2D0116D
:101F1000C2F20040C2F2004100780A681044086032
:101F2000704700000000000080B5032000F0ACF80E
:101F300001F0FEF944F2184145F20873C5F60201BA
:101F4000C0F600030A68C2F303229A5C096801F034
:101F50000F0102F01F02595CD04040F20C02C2F2A5
:101F6000004201F01F0120FA01F1116040F2080166
:101F7000C2F2004108600F2000F00AF800281CBFE0
:101F8000012080BD00F02CF8002080BD0000000082
:101F9000B0B540F20005C2F200452978F1B104461F
:101FA00040F20800C2F200404FF47A72B2FBF1F145
:101FB0000068B0FBF1F001F0DFFC0F2C01464FF0A0
:101FC00001000AD8002918BFB0BD4FF0FF30002231
:101FD000214600F029F800206C60B0BD0120B0BDA2
:101FE00081B044F2F440C5F60200016841F00201FC
:101FF0000160006800F002000090009801B0704796
:10200000002848BF704700F01F01012202FA01F1C9
:102010004EF20012C0F34A10CEF2000242F8201035
:10202000704700000000000070B54EF60C5C4FF0E9
:10203000FF36CEF2000C00F1604505F56445DCF892
:102040000030C3F3022E8EF00703042B28BF0423B5
:10205000BEF1030406FA03F321EA030100F00F03C3
:1020600038BF0024043B0028634406FA04F048BF4C
:1020700003F10C05A14022EA00000843000128708A
:1020800070BD0000000000004EF60C514FF6FF033B
:10209000CEF200010A681A4060F30A2242F0806022
:1020A00040F0FD7008607047B0B544F60C05C5F609
:1020B000020529684907296806D401F00701081AB2
:1020C00018BF0120B0BD00BF21F007010843286000
:1020D000FFF712FF044600BF55F8080C800407D430
:1020E000FFF70AFF001BB0F57A7FF5D90120B0BDDC
:1020F0000020B0BD0000000080B501F091F844F26E
:10210000204145F20872C5F60201C0F600020968D6
:10211000C1F30211515C01F01F01C84080BD0000F5
:1021200080B544F2384EC5F6020E5EF8103C5EF8FB
:10213000101C5EF80C2CC1F3053CDEF80410BCF159
:10214000000F19D0C9089FED3C1AD20601EAE271CE
:1021500003F003026FF35F3100EE101AB8EE400A8D
:10216000DFE802F0022210225EF8381C89060DD446
:102170009FED331A18E000BF00218160C0E9001113
:1021800080BD00BF9FED2D1A0EE000BF5EF8381C29
:1021900049F20002C0F2D032C1F3C10122FA01F1CA
:1021A00001EE101AB8EE411ADEF800109FED253A44
:1021B0006FF35F2102EE101ADEF80010C1F3462122
:1021C000B8EE422A013100EE032A00EE10CAB7EE43
:1021D000003AB8EE400A81EE000A32EE031A20EE11
:1021E000010A01EE101AB8EE411A80EE011ABCEE97
:1021F000C11A80ED001ADEF80010C1F3064101316A
:1022000001EE101AB8EE411A80EE011ABCEEC11AA6
:1022100080ED011ADEF80010C1F30661013101EE14
:10222000101AB8EE411A80EE010ABCEEC00A10EE98
:10223000101A816080BD00BF0024744A20BCBE4BD0
:102240000024744C0000003980B544F2404EC5F6BD
:10225000020E5EF8183C5EF8181C5EF8142CC1F3F0
:10226000055CDEF80410BCF1000F19D0C9089FED21
:102270003C1AD20501EAE27103F003026FF35F3109
:1022800000EE101AB8EE400ADFE802F00222102237
:102290005EF8401C89060DD49FED331A18E000BF8C
:1022A00000218160C0E9001180BD00BF9FED2D1AA3
:1022B0000EE000BF5EF8401C49F20002C0F2D032CE
:1022C000C1F3C10122FA01F101EE101AB8EE411A70
:1022D000DEF800109FED253A6FF35F2102EE101A31
:1022E000DEF80010C1F34621B8EE422A013100EEBB
:1022F000032A00EE10CAB7EE003AB8EE400A81EEAB
:10230000000A32EE031A20EE010A01EE101AB8EEAE
:10231000411A80EE011ABCEEC11A80ED001ADEF8F7
:102320000010C1F30641013101EE101AB8EE411A56
:1023300080EE011ABCEEC11A80ED011ADEF8001021
:10234000C1F30661013101EE101AB8EE411A80EEB8
:10235000010ABCEEC00A10EE101A816080BD00BFF9
:102360000024744A20BCBE4B0024744C0000003989
:102370002DE9F0470446C07844F22C480007C5F622
:1023800002082DD5606E4FEA305103293ED8DFE8B0
:1023900001F0030B172000BFD8F8001041F4003102
:1023A000C8F8001015E000BF201D022102F0F0FA6D
:1023B000064668B16078C00716D1354653E000BFC5
:1023C00004F12400022102F077FB06460028F1D137
:1023D000606ED8F8241021F440110843C8F8240096
:1023E00000266078C007E8D0606D042800F278808D
:1023F0003546DFE800F01B27110303002F464DB3DD
:102400006078800740F1718031E000BF012660787C
:10241000C007D2D0E8E700BF04F12400002102F099
:102420004BFB0546002D2F46EAD113E0D8F80000FB
:10243000354640F40030C8F80000002D2F46DFD1AB
:1024400008E000BF201D002102F0A2FA0546002D81
:102450002F46D5D1D8F82400616D20F00700002563
:102460000843C8F824003746607880073DD5A06D42
:102470004FEAB010042800F27980DFE800F0151F61
:102480000B0303002E460DB36078400740F17380C4
:102490002FE000BF04F12400002102F00DFB0546EF
:1024A000002D2E46F0D111E0D8F8000040F40030A5
:1024B000C8F80000002D2E46E6D107E0201D0021BF
:1024C00002F066FA0546002D2E46DDD1D8F824002C
:1024D000A16D20F4E07000250843C8F8240004E052
:1024E0000125012760788007C1D43E466078400707
:1024F00041D5D4F8A4004FEA7050042800F280803F
:10250000DFE800F016200C04040000BFA9460DB35C
:102510006078000740F17A8031E000BF04F12400C8
:10252000002102F0C9FA0546002DA946F0D111E0BC
:10253000D8F8000040F40030C8F80000002DA9468B
:10254000E6D107E0201D002102F022FA0546002D09
:10255000A946DDD1D8F82C00D4F8A41020F46000EE
:1025600000250843C8F82C0005E000BF012501261E
:1025700060784007BDD4B1466078000746D5D4F8EE
:10258000A8004FEA3060042800F21281DFE800F072
:102590001A241004040000BF2F462DB3E0788007F2
:1025A00038D43E466078C00640F1A98041E000BFC3
:1025B00004F12400002102F07FFA0546002D2F4689
:1025C000ECD111E0D8F8000040F40030C8F8000069
:1025D000002D2F46E2D107E0201D002102F0D8F99E
:1025E0000546002D2F46D9D1D8F82C00D4F8A810D4
:1025F00020F0E06000250843C8F82C0006E000BF8A
:1026000001254FF0010960780007B8D44F46E07803
:102610008007C6D5A06C4FEA3010032844D8DFE805
:1026200000F003232D0300BF2E467DB36078C00663
:1026300065D5E06D4FEA3030042800F2C180DFE854
:1026400000F0434D39030300002D2F464ED0607833
:10265000800658D43E466078400667D43746607896
:10266000000640F1078175E0D8F8000040F4003022
:10267000C8F80000002D2E46D8D107E0201D022109
:1026800002F086F90546002D2E46CFD1D8F820005D
:10269000A16C20F0300000250843C8F820003E4619
:1026A0006078C0062BD5C4E7012501266078C006F6
:1026B000BFD424E004F12400002102F0FDF9054616
:1026C000002D2F46C3D111E0D8F8000040F40030AF
:1026D000C8F80000002D2F46B9D107E0201D0021C9
:1026E00002F056F90546002D2F46B0D1D8F8240047
:1026F000E16D20F4E04000250843C8F82400374687
:1027000060788006A6D5206E4FEA3040052800F29A
:102710007380DFE800F0037F5D030303002D2E4686
:1027200000F08180607840067FF598AFD4F8AC0067
:102730004FEA3070052867D8DFE800F004845404BD
:10274000040400BF002D2F4600F08580607800064D
:1027500040F19080E06E58B1B0F1005F10D0B0F160
:10276000805F1FD1D8F8000040F40030C8F80000A6
:102770002E466DB1E078C00700F093807EE000BF88
:10278000201D012102F004F90546002D2E46F1D14D
:10279000D8F82400E16E20F0405000250843C8F826
:1027A000240067E001250126E078C00766D178E0C3
:1027B00001250127E07880073FF52CAFF1E600BF47
:1027C00001250127607880063FF59DAF42E700BFF5
:1027D00004F12400012102F06FF90546002D2E4678
:1027E000A0D120E004F12400012102F065F90546A2
:1027F000002D2F46AAD12EE0012501266078400643
:102800003FF594AF2AE700BF012501276078000655
:10281000A0D42FE0201D012102F0BAF80546002DBA
:102820002E467FF47FAFD8F82400216E20F4E020FC
:1028300000250843C8F824003E46607840067FF52E
:102840000DAF73E7201D012102F0A2F80546002D0F
:102850002F467FF47BAFD8F82C00D4F8AC1020F0D2
:10286000E04000250843C8F82C0037466078000691
:102870003FF570AF3E46E078C00712D0606C032889
:1028800000F2AC80DFE800F00294A002A9464DB946
:10289000D8F82000616C20F0030000250843C8F838
:1028A0002000B146A078400602D44F461AE000BF8F
:1028B000D8F8D40340F48070C8F8D403FFF71CFBA9
:1028C000064600BFD8F8D403C00507D4FFF714FBB1
:1028D000801B6428F6D90325032703E0002D2F462B
:1028E00000F080802078C00700F0D280A06F4FEA0F
:1028F000F000052800F2B480DFE800F004B8A60478
:10290000040400BF002D2E4600F0B9802078800717
:1029100000F1C38037462078400700F1D3803E465F
:102920002078800600F1E48037462078400600F1E8
:10293000F7803E462078000600F10A81374620687D
:10294000010740F11D81D4F88000B0F5805F09D106
:1029500004F12400022102F0AFF8002818BF01277B
:10296000D4F88000D8F8281021F440510843C8F862
:1029700028002068C10640F10681D4F89400B0F523
:10298000807F09D104F12400022102F095F800288B
:1029900018BF0127D4F89400D8F82C1021F4407106
:1029A0000843C8F82C002068000340F11381ECE0D4
:1029B000D8F8000040F40030C8F80000002DA94607
:1029C0007FF470AF64E700BF201D022101F0E0FF3B
:1029D0000546002DA9467FF465AF59E701254FF064
:1029E00001095FE7D8F84410D4F8B000414011F471
:1029F000407F11D0D8F84410D8F8442042F48032F7
:102A0000C8F84420D8F8442021F4407122F48032E0
:102A1000C8F84420C8F84410B0F5807F40F0B68272
:102A2000FFF76AFA064641F2883A0325032700BFFA
:102A3000D8F84400800700F1A782FFF75DFA801BF9
:102A40005045F5D94EE700BF04F12400012102F002
:102A500033F80546002D2E467FF458AF0FE000BF37
:102A6000012501262078800717D453E7201D012176
:102A700001F08EFF0546002D2E467FF447AFD8F8B3
:102A80002800A16F20F0380000250843C8F828006E
:102A90003E46207880077FF53DAF606F052800F245
:102AA000CB81DFE810F00700F1018D01070007007E
:102AB000070000BF002D2F4600F0EF81207840076F
:102AC0007FF52DAFD4F89000052800F2BD81DFE836
:102AD00010F00700F301830107000700070000BFA3
:102AE000002D2E4600F0F181207880067FF51CAF86
:102AF000D4F88C004FEA3070052800F2AD81DFE891
:102B000010F00700F501770107000700070000BF7C
:102B1000002D2F4600F0F381207840067FF509AFA5
:102B2000D4F898004FEAB020052800F29D81DFE834
:102B300010F00700F7016B0107000700070000BF56
:102B4000002D2E4600F0F581207800067FF5F6AEC8
:102B5000D4F89C004FEA7030052800F28D81DFE840
:102B600010F00700F9015F0107000700070000BF30
:102B7000002D2F4600F0F781206801073FF5E3AEF6
:102B8000C1063FF5FAAE000324D5D4F8A000B0F595
:102B9000003F0FD0B0F5803F06D000284AD1201D5D
:102BA000002101F0F5FE04E004F12400022101F00F
:102BB00083FF05462E461DB1A07840073FD50DE0A6
:102BC000D8F82C00D4F8A01020F440300025084399
:102BD000C8F82C003E46A078400730D5D4F88400D1
:102BE000B0F5401F0BD0B0F5001F0FD0B0F5801F1F
:102BF00070D1D8F8000040F40030C8F800002F462B
:102C00006DB1A078C0071ED169E000BF04F12400B7
:102C1000012101F051FF0546002D2F46F1D1D8F8D2
:102C20002800D4F8841020F4401000250843C8F888
:102C3000280004E001250126A0784007CED43746BD
:102C4000A078C0074BD0E06CB0F5803F2AD0D8BB4D
:102C5000D8F8000040F40030C8F800002E464DB30C
:102C6000206881003FD4810348D4C1025DD4C100F3
:102C700065D481026FD4410078D4B0F1FF3F40F3B6
:102C80008680000208D5D8F82800D4F8881020F4EF
:102C900040000843C8F82800002E18BF012630461F
:102CA000BDE8F087201D022101F072FE0546002DCF
:102CB0002E46D5D1D8F82000E16C20F480300025D4
:102CC0000843C8F820000AE0012501262068810099
:102CD000C9D508E001250127A078C007B3D13E4639
:102CE00020688100BFD504F12400022101F0E4FE38
:102CF000002818BF012620688103B6D5E16F6FF068
:102D0000010202EB3122022A0AD34FEA31223AB100
:102D1000012A07D1D8F8002042F40032C8F8002078
:102D2000002D41D00126C102A1D5D8F82410226F70
:102D300021F000411143C8F82410C10099D558F87A
:102D40001C1CD4F8B42021F48041114348F81C1C09
:102D500081027FF590AFD8F82410A26E21F0807127
:102D60001143C8F8241041007FF587AF58F81C1CA8
:102D700021F4004148F81C1CD4F8B81058F81C2C59
:102D8000114348F81C1CB0F1FF3F3FF77AAFD8F869
:102D90002010226D21F040511143C8F8201000028C
:102DA0003FF571AF78E700BFD8F8282022F44072D1
:102DB0001143C8F82810C1027FF559AFB5E700BF2D
:102DC00004F12400012101F077FE0546002D2F4675
:102DD0007FF474AE61E000BF04F12400012101F032
:102DE0006BFE0546002D2E467FF47EAE6DE000BFE3
:102DF00004F12400022101F05FFE0546002D2F465C
:102E00007FF48AAE7BE000BF04F12400022101F0D0
:102E100053FE0546002D2E467FF496AE89E000BF96
:102E200004F12400022101F047FE0546002D2F4643
:102E30007FF4A2AE97E000BF01250127207840076C
:102E40003FF540AE6BE500BF0125012620788006E6
:102E50003FF54EAE68E500BF01250127207840060A
:102E60003FF55EAE65E500BF01250126207800062E
:102E70003FF56EAE62E500BF01250127206801071E
:102E80007FF57EAE5FE500BF201D012101F080FDD2
:102E90000546002D2F467FF411AED8F82800616F4B
:102EA00020F0070000250843C8F82800374620789E
:102EB00040077FF534AD05E6201D012101F068FDD6
:102EC0000546002D2E467FF40FAED8F82C00D4F81E
:102ED000901020F0070000250843C8F82C003E465B
:102EE000207880067FF520AD02E600BF201D00217E
:102EF00001F04EFD0546002D2F467FF40DAED8F8AB
:102F00002800D4F88C1020F0E04000250843C8F8D1
:102F100028003746207840067FF50BAD00E600BF5D
:102F2000201D002101F034FD0546002D2E467FF4C2
:102F30000BAED8F82C00D4F8981020F4E0500025FF
:102F40000843C8F82C003E46207800067FF5F6AC12
:102F5000FEE500BF201D002101F01AFD0546002DF1
:102F60002F467FF409AED8F82C00D4F89C1020F43A
:102F7000604000250843C8F82C0037462068010748
:102F80007FF5FEADDFE400BFD4F8B0004FF6CF739D
:102F900058F81C2CC0F2FF0300F4407122F47C525C
:102FA00003EA10136FF31F30B1F5407F08BF1A43D7
:102FB000002548F81C2CD8F844100843C8F84400F1
:102FC000FFF773BC000000002DE9F04381B000283A
:102FD00000F0208142F200090446C5F20029D9F828
:102FE000000000F00F0081420DD9D9F8000020F058
:102FF0000F000843C9F80000D9F8000000F00F00E6
:10300000884240F00781206844F218464207C5F61E
:1030100002060AD52269336803F070039A4204D984
:10302000336823F070031A43326002070AD56269DD
:10303000736803F070039A4204D9736823F0700335
:103040001A437260C2060AD5A269736803F4E0638A
:103050009A4204D9736823F4E0631A4372608206CB
:103060000AD5E269B36803F070039A4204D9B368E1
:1030700023F070031A43B26010F002020AD0E36832
:10308000376807F00F07BB4204D9376827F00F07EE
:103090003B433360C3073FD0306820F47062D4E90B
:1030A00001031A433260012856F8182C0AD003286D
:1030B00004D002280AD192030BD4ABE0920108D4C9
:1030C000A8E000BFD20504D4A4E000BF520740F13D
:1030D000A180884656F8081C21F00701084346F8ED
:1030E000080CFEF709FF054641F2883756F8080C30
:1030F000616800F03800B0EBC10F09D0FEF7FCFEAC
:10310000401BB842F2D9032001B0BDE8F08300BFF4
:103110002068414600F0020252B1E268336803F0D1
:103120000F039A4204D2336823F00F031A4332602C
:10313000D9F8002002F00F0291420CD2D9F80020F9
:1031400022F00F020A43C9F80020D9F8002002F04B
:103150000F028A425ED141070AD52169326802F026
:103160007002914204D2326822F070021143316041
:1031700001070AD56169726802F07002914204D2B7
:10318000726822F0700211437160C1060AD5A1690C
:10319000726802F4E062914204D2726822F4E06242
:1031A0001143716080060AD5E069B16801F07001D1
:1031B000884204D2B16821F070010843B06000F089
:1031C000B7F8316845F20872C0F60002C1F3032176
:1031D000515C336803F00F0301F01F01D25C20FA49
:1031E00001F102F01F0040F20C02C2F2004221FA8B
:1031F00000F0106040F2040040F20802C2F2004009
:10320000C2F200420068116001B0BDE8F043FEF771
:10321000BFBE00BF012001B0BDE8F0830000000088
:1032200080B500F085F844F2184145F20873C5F600
:103230000201C0F600030A68C2F303229A5C09681F
:1032400001F00F0102F01F02595C20FA02F201F0B6
:103250001F0040F20C01C2F2004122FA00F00860A7
:1032600040F20801C2F200410A6080BD0000000087
:1032700080B500F05DF844F2184C45F20873C5F6CD
:10328000020CC0F60003DCF80020C2F303229A5CB3
:10329000DCF8001001F00F0102F01F02595CD04071
:1032A00040F20C02C2F2004201F01F0120FA01F1CB
:1032B000116040F20802C2F200421060DCF8040023
:1032C000C0F30210185C00F01F0021FA00F080BD6E
:1032D00080B500F02DF844F2184C45F20873C5F69D
:1032E000020CC0F60003DCF80020C2F303229A5C53
:1032F000DCF8001001F00F0102F01F02595CD04011
:1033000040F20C02C2F2004201F01F0120FA01F16A
:10331000116040F20802C2F200421060DCF80400C2
:10332000C0F30220185C00F01F0021FA00F080BDFD
:1033300044F20041C5F602010869C0F3C200032847
:1033400016D002280ED0002832D10868800649F233
:103350000000C0F2D03058BF70470968C1F3C10106
:10336000C840704747F64000C0F27D10704700BF6C
:103370008B6A886AD1F82CC04A6BC0F30510E8B19B
:10338000C2F3CC0203F0030300EE102A9FED2A1AC9
:10339000B8EE400A20EE010A9FED281ADFE803F09C
:1033A000022110210A6892060ED49FED261A18E019
:1033B00040F60010C0F23D00704700BF002070478B
:1033C0009FED1F1A0DE000BF0A6849F20003C0F22A
:1033D000D033C2F3C10223FA02F201EE102AB8EE92
:1033E000411A0A6B9FED183A6FF35F2202EE102A22
:1033F0005FEACC7203FE000A03EE100A086BB8EE17
:10340000422AC0F34620B8EE433A013030EE020AB9
:10341000B7EE002A81EE031A30EE020A21EE000A0E
:1034200001EE100AB8EE411A80EE010ABCEEC00AA5
:1034300010EE100A704700BF000000390024744AE3
:1034400020BCBE4B0024744C0000000000000000B3
:1034500070B3F0B581B00446007844F20046C0076E
:10346000C5F6020626D12078800740F1C280306977
:1034700010F03801B06A3FD0182908BF5FEA8070A9
:103480003AD0E0683168002862D021F01901084381
:103490003060FEF731FD05463068400748D4FEF73E
:1034A0002BFD401B0228F7D9032001B0F0BD00BF5F
:1034B00001207047306900F03801B06A102905D04A
:1034C00018290BD100F00300022807D130688003CF
:1034D000C9D560680028C6D134E100BF6168306892
:1034E00000294FD0B1F5A02F44D0B1F5803F5FD176
:1034F00040F4803062E000BF30684007E06802D5E9
:10350000002800F01F81316821F019010843306064
:10351000FEF7F2FC054600BF3068400708D4FEF70E
:10352000EBFC401B02284FF00300F5D901B0F0BDC1
:10353000FEF7DAFC41F2030188424FD82069716836
:10354000402821F47C3151D141F4003050E000BFDB
:1035500021F001003060FEF7CFFC054630684007DF
:1035600047D5FEF7C9FC401B02284FF00300F5D9F0
:10357000DCE700BF40F480203060306840F48030E9
:103580001CE000BF20F480303060306820F48020E0
:103590003060FEF7B1FC0546306880037FF563AF0D
:1035A000FEF7AAFC401B64284FF00300F4D9BDE7E6
:1035B00020F480303060306820F480203060FEF7E6
:1035C0009BFC0546306880033FF54DAFFEF794FC49
:1035D000401B6428F6D9032001B0F0BD7068216952
:1035E00020F0FE4040EA016002E000BF41EA003006
:1035F00070602078C00654D5306900F03801B06A98
:10360000082905D0182919D100F00300012815D187
:103610003068C00503D5E069802840F09380FEF74C
:1036200063FC41F2030188421ED8206A7168202899
:1036300021F0F84132D141F0804031E0E0690028CA
:10364000306819D040F080003060FEF755FC054628
:103650003068C005E3D4FEF74FFC401B02284FF052
:103660000300F5D962E700BFF068216A20F07C50C2
:1036700040EA0160F06014E020F080003060FEF766
:103680003BFC05463068C0050BD5FEF735FC401BFA
:1036900002284FF00300F5D948E700BF41EA8060F7
:1036A00070602078000737D4207880064ED42078C8
:1036B000400761D4656A65B3306900F038001828A6
:1036C00040F0A080012DB16A306B3BD001F00302C5
:1036D000A36A9A4236D1C1F30511E26A914231D10F
:1036E0000146226B6FF35F21013A91422AD1C0F368
:1036F0004622616B01398A4224D1C0F30642A16B94
:1037000001398A421ED1C0F30660E16B013988425B
:1037100018D1002001B0F0BD60690028706F41D061
:1037200040F001007067FEF7E7FB0546706F800709
:10373000BAD4FEF7E1FB401B0228F7D9032001B001
:10374000F0BD00BF012001B0F0BD00BFA06900289E
:10375000306845D040F480503060FEF7CDFB054620
:1037600030688004A3D4FEF7C7FB401B0228F7D9BA
:10377000032001B0F0BD00BFD6F8000440F4807013
:10378000C6F80004FEF7B8FB054600BFD6F80004F3
:10379000C00519D4FEF7B0FB401B6428F6D90320FE
:1037A00001B0F0BD20F001007067FEF7A5FB0546F3
:1037B000706F80077FF578AFFEF79EFB401B0228F5
:1037C0004FF00300F4D9B1E6A168306F002943D06F
:1037D000052939D0012957D140F001005AE000BF36
:1037E00020F480503060FEF787FB05463068800487
:1037F0007FF55DAFFEF780FB401B02284FF0030012
:10380000F4D993E6306820F080703060FEF774FBE6
:10381000022D05460CD100BF306880014CD5FEF763
:103820006BFB401B02284FF00300F5D97EE600BF7A
:10383000306880017FF56DAFFEF75EFB401B02280C
:103840004FF00300F4D971E640F004003067306FA8
:1038500040F001001EE000BF20F001003067306F33
:1038600020F004003067FEF747FB054641F2883739
:10387000306F80077FF51EAFFEF73EFB401BB8425E
:103880004FF00300F4D951E620F001003067306FAB
:1038900020F004003067FEF72FFB054641F2883721
:1038A000306F80073FF506AFFEF726FB401BB8429E
:1038B0004FF00300F4D939E604F12807B06A40F26A
:1038C000F33188438ECF0843591E40EA02104FF46B
:1038D0007E426FF35F21B06202EB47204FF4FE029D
:1038E00080B2E36B0844A16B02EB01414FF0FE4252
:1038F00001F4FE0102EB0362084402F0FE410844B9
:103900003063F06A4FF6F87120F00100F062706BDE
:10391000A26C884340EAC2007063F06A216C20F018
:103920000C000843F062F06A616C20F0020008436A
:10393000F062F06A40F48030F062F06A40F40030E7
:10394000F062F06A40F48020F062F06A40F001001A
:10395000F062306840F080703060FEF7CDFA0446C7
:10396000306880013FF5D5AEFEF7C6FA001B02288D
:103970004FF00300F4D9D9E5411E0020B0EB116FE0
:1039800002D00120704700BF4EF21002F023CEF2A9
:10399000000251604EF62351CEF200010B70072158
:1039A0009060116070470000704700000000000048
:1039B0007047000000000000704700000000000099
:1039C00090F83C20012A4FF002025ED0B0B580F89A
:1039D0003D2040F2004C0268C4F2010C42F48063C6
:1039E00063455368D2F808E002BF23F470034C68C3
:1039F000234341F2FF740D68C4F2000423F0700306
:103A0000A24243EA050353600CDC40F2FF73C4F2A8
:103A100000039A4216DCB2F1804F29D040F20043F5
:103A200018E000BF40F2FF33C4F201039A4217DCF2
:103A300041F60003C4F200039A4219D00023C4F2F5
:103A4000010309E040F60003C4F200039A420FD0DC
:103A500040F60043C4F200039A4209D00DE000BFD3
:103A600044F20003C4F201039A4201D0624504D13A
:103A70002EF080038968194391600022012180F8AB
:103A80003D1080F83C20BDE8B04010467047000073
:103A900060B310B5044690F83D0028B9002084F8C2
:103AA0003C00204600F024F8022084F83D00206805
:103AB000211D01F085F9012084F8480084F83E00BA
:103AC00084F83F0084F8400084F8410084F8420004
:103AD00084F8430084F8440084F8450084F84600E4
:103AE00084F8470084F83D00002010BD0120704795
:103AF00041F200010068C4F20001884218BF70471B
:103B000080B582B044F2E8400022C5F602000168A8
:103B100041F0100101600068002100F010000190E8
:103B200001983620FEF780FA362002B0BDE88040CA
:103B3000FEF766BA000000007047000000000000B9
:103B400010B5044600680169890744BFC1685FEA8F
:103B500081713FD40169490744BFC1685FEA41717F
:103B600044D40169090744BFC1685FEA01714BD4BD
:103B70000169C90644BFC1685FEAC16150D40169E7
:103B8000C9071CBFC1685FEAC17157D10169090645
:103B900044BFC1685FEA016158D40169C90544BFE7
:103BA000C1685FEA016159D40169490644BFC1682F
:103BB0005FEA41615AD40169890646BFC1685FEA7C
:103BC000816110BD6FF0200101612046BDE8104009
:103BD000FFF7F2BE6FF002010161012121778069D8
:103BE00080074BD02046FFF7A7FF4DE06FF00401A0
:103BF000016102212177806910F4407F48D020467E
:103C0000FFF79AFF4AE000BF6FF00801016104214D
:103C10002177C069800745D02046FFF78DFF47E038
:103C20006FF01001016108212177C06910F4407F15
:103C300042D02046FFF780FF44E000BF6FF0010153
:103C40000161204600F04CF820689FE76FF080018A
:103C500001612046FFF7ACFE20689EE76FF480719B
:103C600001612046FFF7A0FE20689DE76FF040014C
:103C70000161204600F038F820689CE7204600F0FB
:103C800027F8204600F028F800202077206861E718
:103C9000204600F01DF8204600F01EF80020207796
:103CA00020685EE7204600F013F8204600F014F884
:103CB0000020207720685BE7204600F009F82046C6
:103CC00000F00AF800202077206858E70000000084
:103CD0007047000000000000704700000000000076
:103CE0007047000000000000704700000000000066
:103CF00090F88010012901D1022070472421C0F8DA
:103D0000841001680A680B6822F0005223F0010356
:103D10000B60002343660A602021C0F8841080F8FD
:103D20008030002070470000704700000000000055
:103D3000704700000000000090F88020012A01D1A7
:103D40000220704770B52422C0F884200268D0F8A1
:103D500064E0BEF1000FD2F800C0136823F0010345
:103D60001360936823F0606341EA0301916019D006
:103D7000916845F2307E9368C0F6000E5B0F45F205
:103D80003875C1F34266C0F600051EF80340E95CD1
:103D90002301B3FBF1F11EF80630AE5D1B01B3FB4E
:103DA000F6F301E001210123A0F86A102021A0F818
:103DB0006830C2F800C0C0F88410002180F880107C
:103DC000002070BD0000000090F88020012A01D181
:103DD0000220704770B52422C0F884200268D0F811
:103DE00064E0BEF1000FD2F800C0136823F00103B5
:103DF0001360936823F0604341EA0301916019D096
:103E0000916845F2307E9368C0F6000E5B0F45F274
:103E10003875C1F34266C0F600051EF80340E95C40
:103E20002301B3FBF1F11EF80630AE5D1B01B3FBBD
:103E3000F6F301E001210123A0F86A102021A0F887
:103E40006830C2F800C0C0F88410002180F88010EB
:103E5000002070BD0000000070470000000000005E
:103E600070470000000000007047000000000000E4
:103E700070B5016840F62F02CB691A40202A0A6803
:103E80008E680BD102F0200406F080552D1917D052
:103E9000016F69B3BDE87040084700BF40F60F05E9
:103EA0002B420DD0012540F22014C1F20005C0F2D2
:103EB000004406EA050C02EA040515EB0C0525D1C1
:103EC000DD06C46E16D5012C14D112F0100511D0E8
:103ED00010220A628968490666D4B0F85C10B0F80E
:103EE0005E20B0F85E30002B18BF914240F0568241
:103EF00070BD00BFDD0215D516F4800512D04FF459
:103F000080120A62BDE87040FFF7AABFDD0718BF44
:103F100012F4807540F01A819D0706F0010E00F141
:103F200021812AE1190606D502F0800106F4000677
:103F3000891940F0B782590640F1FC8012F0400127
:103F400000F0F880016851E8001F026821F040018C
:103F500042E80013F3B1016851E8001F026821F044
:103F6000400142E80013002B1FBF016851E8001F09
:103F7000026821F040011CBF42E80013002B09D069
:103F8000016851E8001F026821F0400142E8001377
:103F9000002BD7D12021C0F8841000214167BDE853
:103FA000704000F071BB00BFC26F11684B689CB2DB
:103FB000002C9DD0B0F85C108C4299D2A0F85E30F5
:103FC000D269B2F5807F00F0AD80016851E8001F32
:103FD000026821F4807142E80013F3B1016851E8EE
:103FE000001F026821F4807142E80013002B1FBFFC
:103FF000016851E8001F026821F480711CBF42E88B
:104000000013002B09D0016851E8001F026821F459
:10401000807142E80013002BD7D1016851E8021FDC
:10402000026821F0010142E80213F3B1016851E88E
:10403000021F026821F0010142E80213002B1FBF9A
:10404000016851E8021F026821F001011CBF42E82B
:104050000213002B09D0016851E8021F026821F009
:10406000010142E80213002BD7D1016851E8021F79
:10407000026821F0400142E80213F3B1016851E8FF
:10408000021F026821F0400142E80213002B1FBF0B
:10409000016851E8021F026821F040011CBF42E89C
:1040A0000213002B09D0016851E8021F026821F0B9
:1040B000400142E80213002BD7D12021C0F888101C
:1040C0000021C166016851E8001F026821F010015B
:1040D00042E80013F3B1016851E8001F026821F0C3
:1040E000100142E80013002B1FBF016851E8001FB8
:1040F000026821F010011CBF42E80013002B09D018
:10410000016851E8001F026821F0100142E8001325
:10411000002BD7D1C16F04460846FCF7CDFAB4F89E
:104120005C102046B0F85E20891A89B2BDE8704064
:10413000FFF7FABD190240F1C18112F0804100F091
:10414000BD81BDE87040FFF787BE00BF01250D624D
:10415000D0F88C5045F00105C0F88C509D0706F052
:10416000010E0AD5BEF1000F07D002240C62D0F870
:104170008C4044F00404C0F88C405C070AD5BEF1C2
:10418000000F07D004250D62D0F88C5045F00205D1
:10419000C0F88C501D070CD502F0200555EA0C051F
:1041A00007D008250D62D0F88C5045F00805C0F8FE
:1041B0008C501D050BD512F0806508D04FF40065BA
:1041C0000D62D0F88C5045F02005C0F88C50D0F826
:1041D0008C50002D3FF48CAE9B060BD502F02002D4
:1041E00006F08053D21805D0026F1AB104469047EA
:1041F00020462168D0F88C20896801F0400102F047
:104200002802891806D10446FFF72EFE0020C4F8C4
:104210008C0070BD016851E8001F026821F49071A4
:1042200042E80013F3B1016851E8001F026821F46D
:10423000907142E80013002B1FBF016851E8001F76
:10424000026821F490711CBF42E80013002B09D0D2
:10425000016851E8001F026821F4907142E80013E0
:10426000002BD7D14FF6FE71CEF6FF71026852E8EF
:10427000022F03680A4043E80226DEB1026852E8D2
:10428000022F03680A4043E80226002E1FBF02687F
:1042900052E8022F03680A401CBF43E80226002EA2
:1042A00008D0026852E8022F03680A4043E8022659
:1042B000002EDBD1C16E012927D1016851E8001F12
:1042C000026821F0100142E80013F3B1016851E8DF
:1042D000001F026821F0100142E80013002B1FBFED
:1042E000016851E8001F026821F010011CBF42E87C
:1042F0000013002B09D0016851E8001F026821F06B
:10430000100142E80013002BD7D12021C0F88810FB
:104310000021C166026801679168490640F1CA80C0
:10432000016851E8021F026821F0400142E80213CF
:10433000F3B1016851E8021F026821F0400142E830
:104340000213002B1FBF016851E8021F026821F011
:1043500040011CBF42E80213002B09D0016851E85C
:10436000021F026821F0400142E80213002BD7D15E
:10437000C16F002900F09E8044F6F17204460846A1
:10438000C0F600020A65FCF72BFC00283FF4B0AD34
:10439000E06F016DBDE87040084700BF891A0268F0
:1043A00052E8002F036822F4907243E80026F6B129
:1043B000026852E8002F036822F4907243E8002656
:1043C000002E1FBF026852E8002F036822F490728B
:1043D0001CBF43E80026002E09D0026852E8002FD7
:1043E000036822F4907243E80026002ED7D14FF6DE
:1043F000FE72CEF6FF72036853E8023F0668134070
:1044000046E80235DDB1036853E8023F0668134011
:1044100046E80235002D1FBF036853E8023F0668D7
:1044200013401CBF46E80235002D08D0036853E84E
:10443000023F0668134046E80235002DDBD12022FA
:10444000C0F888200022C2660267026852E8002F86
:10445000036822F0100243E80026002E3FF465AE08
:10446000026852E8002F036822F0100243E8002699
:10447000002E1FBF026852E8002F036822F01002CE
:104480001CBF43E80026002E3FF44FAE026852E8FE
:10449000002F036822F0100243E80026002ED4D13A
:1044A00043E600BF416F00293FF422ADBDE87040F4
:1044B000084700BFBDE87040FFF7D6BCD9017FF5C3
:1044C00017ADB2F1FF3FC8BF70BDBDE87040FFF748
:1044D0002FBC000000000000D0B1B0B582B004468F
:1044E000D0F8840028B9002084F88000204600F02D
:1044F0005BF82420C4F884002068016821F00101E1
:104500000160204600F07CFD20B1012002B0B0BD6A
:1045100001207047A06A10B1204600F0F9FC206825
:10452000416821F490414160816821F02A01816055
:10453000016841F0010101600020C4F88C00FDF722
:10454000DBFC216805460A6812070ED54FF40011FE
:1045500000226FF07E40009020462B4600F094FF32
:1045600010B1032002B0B0BD2168086840070DD526
:104570004FF4800100226FF07E40009020462B46D1
:1045800000F082FF10B1032002B0B0BD2020C4F8BB
:104590008400C4F888000020E06684F8800002B03F
:1045A000B0BD00000000000070B5B6B0044602A81F
:1045B00000213191CDE93411CDE932110430B82117
:1045C000FBF768FF41F200012068C4F20101884254
:1045D00002D036B070BD00BF0120029002A8FDF7E6
:1045E000C7FE08B1FCF760F844F2E0400026C5F6CB
:1045F0000200016941F010010161016901F010013F
:1046000001910199016841F002010160006831A93E
:1046100000F00200019001984FF4404031900220D8
:1046200032900420359040F20040C5F60200CDE9FA
:104630003366FDF76DFB40F27C051020C2F20045A9
:10464000C4F2020028602920C5E901064FF4806009
:10465000EE60C5E904062846C5E90666C5E90866B0
:10466000FDF726F808B1FCF71FF8252000210022ED
:10467000E567AC63FDF7D8FC2520FDF7C1FC36B03B
:1046800070BD000000000000704700000000000046
:10469000FEE700000000000070B5FDF72DFC40F2C1
:1046A0007006C2F20046B168401A142838BF70BDC7
:1046B00040F20044C5F60204FDF71EFC04F5C055A7
:1046C000B06008212846FDF7F7FB00284FF00401F1
:1046D00018BF012030702846FDF7EEFB00284FF48C
:1046E000005118BF0120707004F58060FDF7E4FBF5
:1046F00000284FF0010118BF0120B070A4F58060C0
:10470000FDF7DAFB31783279002881F0FF0118BF1C
:1047100001200A42F07003D001212046FDF7D4FBAE
:104720007078717980F0FF00014203D002212046A9
:10473000FDF7CAFBB078B17980F0FF00014207D0E5
:1047400001212046FDF7C0FB02212046FDF7BCFBFE
:10475000F179F07881F0FF01084208D0012120466C
:10476000FDF7B2FB02212046FDF7AEFBF078317871
:10477000F0713171B6F80110A6F8051070BD000097
:1047800010B540F200440121C5F602040122204682
:10479000FDF7A2FB022101222046BDE81040FDF7F3
:1047A0009BBB00000000000080B582B044F2D840FE
:1047B0000022C5F60200016841F0010101600068B5
:1047C000002100F00100019001980B20FDF72CFC66
:1047D0000B2002B0BDE88040FDF712BC00000000D5
:1047E0002DE9F04186B044F2E0400026C5F6020013
:1047F0000596CDE90366CDE90166016840F2004403
:1048000041F0040101600168C5F6020401F00401F1
:1048100000910099016841F0800101600168002267
:1048200001F0800100910099016841F001010160EF
:1048300001684FF0030801F001010091009901683F
:1048400041F0020101600068032100F002000090C5
:1048500000982046FDF740FB01AD4FF40050CDE934
:10486000010604F58060294601270397FDF750FAF9
:1048700002200390A4F580602946CDE90176FDF77A
:1048800047FA01A90C20C1C104F5C0502946FDF723
:104890003FFA20462946CDE90187CDE90366FDF7B9
:1048A00037FA06B0BDE8F08110B584B040F2F400EC
:1048B00041F20001C2F2004000240294C4F200015F
:1048C00001604FF41661C0E901146421C1608021C8
:1048D0008161FFF7DDF808B1FBF7E6FE40F2F40076
:1048E00001A9C2F2004001940394FFF769F808B1EE
:1048F000FBF7DAFE04B010BD80B540F2401041F283
:104900000001C2F20040C4F201010C2201604FF428
:10491000E13141600021C0E902110161C0E90521D6
:10492000C0E90711C0E90911FFF7D6FD08B1FBF78F
:10493000BBFE40F240100021C2F20040FFF744FAF3
:1049400008B1FBF7B1FE40F240100021C2F2004076
:10495000FFF7F2F908B1FBF7A7FE40F24010C2F2F0
:104960000040FFF7C5F9002808BF80BDBDE88040C2
:10497000FBF79ABE00000000FEE700000000000008
:10498000FEE700000000000070470000000000008B
:10499000F0B581B044F22C47C5F6020757F8042C55
:1049A00002F00302032A03D1012001B0F0BD00BFD1
:1049B000054657F82C0C0C4620F0806047F82C0C6C
:1049C000FDF79AFA064600BF57F82C0C000105D5F2
:1049D000FDF792FA801B0228F6D964E057F8040C20
:1049E000EE6895E80E0020F47C30012C40EA01309E
:1049F000A2F101016FF35F214FF47E4202EB4322EB
:104A000047F8040C92B24FF0FE4302EB01004FF462
:104A1000FE012A6901EB064101F4FE0103EB02628B
:104A2000084402F0FE410844F8603868696920F0E3
:104A3000C00040EA010038603868A96920F0200011
:104A400040EA0100386038684FF6F87120F0100035
:104A500038603869EA6920EA01004FF4001140EA41
:104A6000C2003861386808BF4FF4801140F0100070
:104A7000002C386008BF4FF40021386808433860C4
:104A800057F82C0C40F0806047F82C0CFDF734FAF6
:104A9000044600BF57F82C0C000107D4FDF72CFA90
:104AA000001B0328F6D3032001B0F0BD002001B0A5
:104AB000F0BD000000000000F0B581B044F22C47CA
:104AC000C5F6020757F8042C02F00302032A03D1AB
:104AD000012001B0F0BD00BF054657F82C0C0C4674
:104AE00020F0805047F82C0CFDF706FA064600BF70
:104AF00057F82C0C800005D5FDF7FEF9801B022825
:104B0000F6D964E057F8040CEE6895E80E0020F042
:104B10007C70012C40EA0150A2F101016FF35F218A
:104B20004FF47E4202EB432247F8040C92B24FF05E
:104B3000FE4302EB01004FF4FE012A6901EB06413E
:104B400001F4FE0103EB0262084402F0FE41084456
:104B500078613868696920F4406040EA0100386093
:104B60003868A96920F4007040EA010038603868AC
:104B70004FF6F87120F480703860B869EA6920EA6D
:104B800001004FF0807140EAC200B861386808BF88
:104B90004FF4000140F48070002C386008BF4FF4DF
:104BA000800138680843386057F82C0C40F080507A
:104BB00047F82C0CFDF7A0F9044600BF57F82C0C61
:104BC000800007D4FDF798F9001B0328F6D30320D3
:104BD00001B0F0BD002001B0F0BD000000000000F9
:104BE0007047000000000000FDF78EB900000000D3
:104BF000FFF7C6BD00000000FFF74EBD000000003B
:104C0000B0B59CB044F6180409A84C21C5F60204BE
:104C1000FBF740FC02200025CDE90755CDE90555FD
:104C2000CDE90355CDE90155FDF73EFA0095206821
:104C300040F440402060206800F44040009040F282
:104C40002C40C5F60000016841F0010101600068D8
:104C500000F00100009000982068800409D42068CA
:104C600080045CBF20685FEA804002D42068800432
:104C7000F2D50220099001210C9112900025042107
:104C800014913C214024CDE91510CDE917000C20EA
:104C90000D94CDE9190509A813951B95FEF7D8FBCE
:104CA00020B1EFF3108072B6FEE700BF3F20019005
:104CB00003200421CDE9020508200694CDE904046F
:104CC0004FF48060CDE9070401A8FEF77DF928B113
:104CD000EFF3108072B600BFFEE700BF1CB0B0BD9E
:104CE0004EF6885042F2000CCEF20000C5F2002CC5
:104CF000016841F470010160DCF8000000F00F0071
:104D0000062806D8DCF80000072161F30300CCF880
:104D1000000044F200404EF67F52C5F60200CEF687
:104D2000F622016841F00101016000210161036880
:104D30001A400260DCF80020120706D5DCF80020DB
:104D4000072363F30302CCF8002040F200228161C4
:104D5000C161C0F20222016282620022C0F2FF122F
:104D6000C26240F28022C0F2011202634163826398
:104D7000C16302644164026822F480220260016619
:104D800041F20000C5F600400068B1EB507F05D14C
:104D900048F208100121C5F20010016044F2000041
:104DA00043F2D201C5F2002001607047000000000C
:104DB00040F2F400C2F20040FEF7C2BE0000000064
:104DC00040F6FF32C4F200029042026810DCB0F1FB
:104DD000804F1ED040F20043C4F20003984218D026
:104DE00040F60003C4F20003984212D015E000BF61
:104DF00040F60043C4F2000398420AD040F2004358
:104E0000C4F20103984204D00023C4F20103984283
:104E100003D122F070024B681A434FF6FF7343F63A
:104E2000FF7CC4F20003C4F2010C984210DD60451F
:104E300028DD44F20003C4F2010398422DD044F669
:104E40000003C4F20103984227D044F2004320E05B
:104E500040F2FF73C4F20003984207DCB0F1804FC8
:104E60001BD040F20043C4F2000314E040F60003FC
:104E7000C4F20003984210D040F60043C4F200038D
:104E800009E000BF0023C4F20103984205D040F2BC
:104E90000043C4F20103984203D122F44072CB686C
:104EA0001A4310B522F08002D1F800E04C698B68FB
:104EB00022430260C3626045C0F828E0BDE81040AC
:104EC00014DD44F20002C4F20102904219D044F60B
:104ED0000002C4F20102904213D044F20042C4F234
:104EE000010290420DD00121416170470022C4F2BD
:104EF0000102904205D040F20042C4F20102904209
:104F0000F1D109690163012141617047000000008E
:104F1000816ACA070CD18A0715D44A071ED40A072A
:104F200027D4CA0630D48A0639D44A0642D454E07B
:104F30000268D0F82CC0536823F4003343EA0C0312
:104F400053608A07E9D50268D0F830C0536823F46B
:104F5000803343EA0C0353604A07E0D50268D0F877
:104F600034C0536823F4802343EA0C0353600A07D8
:104F7000D7D50268D0F838C0536823F4004343EA19
:104F80000C035360CA06CED50268D0F83CC09368C3
:104F900023F4805343EA0C0393608A06C5D5026864
:104FA000D0F840C0936823F4005343EA0C039360A5
:104FB0004A0612D50268D0F844C0BCF5801F536879
:104FC00023F4801343EA0C03536006D1536823F49F
:104FD000C00C836C43EA0C035360090658BF70474A
:104FE0000168C06C4A6822F4002210434860704790
:104FF000806B0021A0F85E10A0F85610FEF734BFB9
:10500000F0B583B00446006846F6F31640F6004E4D
:1050100022696569D4E902130A43E7690168CCF69D
:10502000FF762A4331401143C5F6000E3943016033
:105030004168704521F4405144F2544C41EA030167
:105040004160A2694FF2FF431CBF216A0A43816895
:10505000C1F2FF131940C5F6020C1143816047F2FB
:10506000FF72C16AC4F2000221F00F01656A90422A
:105070004FF0800341EA0501C1621FDD40F6FF7178
:10508000C4F2010188423BDD704500F0258141F208
:105090000041C4F20101884205D041F20001C4F28E
:1050A0000101884244D1DCF80010C1F3C202062A93
:1050B0003ED245F2FC61C0F6000137E044F6FF3114
:1050C000C4F2000188420DDC44F20041C4F2000148
:1050D000884221D044F60001C4F2000188421BD06E
:1050E00026E000BF44F60041C4F20001884213D01C
:1050F00045F20001C4F2000188420DD018E000BF63
:1051000047F60001C4F20001884205D047F600418D
:10511000C4F2000188420BD1DCF8001001F0070254
:10512000062A05D245F20271C0F600018B181B78E1
:10513000704540F60010C0F23D0000F05380B7F516
:10514000004F40F07B80402B4FF0010100F28F8137
:10515000DFE813F0420038018D018D0140018D011F
:105160008D018D014C018D018D018D018D018D0110
:105170008D018D0114018D018D018D018D018D0138
:105180008D018D018D018D018D018D018D018D01AF
:105190008D018D0152018D018D018D018D018D01DA
:1051A0008D018D018D018D018D018D018D018D018F
:1051B0008D018D018D018D018D018D018D018D017F
:1051C0008D018D018D018D018D018D018D018D016F
:1051D0008D018D01300100BFFEF74AF8002840F034
:1051E0000A8140E19A1E01211E2A00F27F80DFE839
:1051F00012F01F003E0191003E013E013E0197006A
:105200003E013E013E013E013E013E013E01830062
:105210003E013E013E013E013E013E013E013E0196
:105220003E013E013E013E013E013E013E019F0026
:10523000FCF762FF002840F07A8014E1402B4FF029
:10524000010100F21481DFE813F04100C1001201F6
:105250001201CB00120112011201F300120112011E
:1052600012011201120112011201A7001201120112
:105270001201120112011201120112011201120196
:1052800012011201120112011201F90012011201A0
:105290001201120112011201120112011201120176
:1052A0001201120112011201120112011201120166
:1052B0001201120112011201120112011201120156
:1052C00012011201120112011201B900FDF7D0FF03
:1052D000002840F0B280C6E0DCF8041001F00702BC
:1052E000062ABFF425AF66A120E700BF402B40F09F
:1052F000BE804FF400401BE05CF8540C800649F27D
:105300000000C0F2D03013D55CF8541CC1F3C101C9
:10531000C8400DE06846FCF703FF019838B9A2E0E9
:105320006846FCF791FF0198002800F09C80656AB0
:1053300045F218716268C0F6000131F81510B0FB33
:10534000F1F002EB420188424FF00101C0F08F8082
:105350001303984200F28B80010E0023000210EB31
:10536000520041F10001FBF71DF84FF60052A0F585
:105370004071C0F20F02914273D377E05CF8540C95
:10538000800649F20000C0F2D03035D55CF8541CDC
:10539000C1F3C101C8402FE05CF8540C800649F20B
:1053A0000000C0F2D03049D55CF8541CC1F3C101F3
:1053B000C84043E04FF400401EE000BF4FF40040FF
:1053C0003CE000BFFDF784FFA8B94CE0FDF780FF8B
:1053D00098BB48E06846FCF7A3FE019858B942E044
:1053E0006846FCF79DFE019838BB3CE06846FCF738
:1053F0002BFF0198B8B3656A45F21871C0F6000139
:1054000031F81510B0FBF1F061684A0802EB40007A
:105410004FF6EF72B0FBF1F0A0F11001914225D8E8
:105420004FF6F0710140C0F34200084419E000BF9C
:105430006846FCF709FF0198A8B1656A45F2187142
:105440006268C0F6000131F81510B0FBF1F000EB16
:105450005200B0FBF2F0A0F110014FF6EF72914252
:1054600004D82168C860002101E000BF01214FF08D
:105470000110A0660020C4E91C00084603B0F0BD7E
:1054800002040810204000002DE9F04104460068A5
:105490000D46C7693940491BB1FA81F149098A4271
:1054A00040F0A380DDF81880B8F1000F28D0164630
:1054B00018F1010140F08280C1692940491BB1FA0D
:1054C00081F149098E4240F09080C1692940491B11
:1054D000B1FA81F149098E4201BFC1692940491BD6
:1054E000B1FA81F104BF49098E4240F07E80C16962
:1054F0002940491BB1FA81F149098E42DCD074E0A0
:10550000FCF7FAFC206850E8000F216820F4D07006
:1055100041E80002F2B1206850E8000F216820F451
:10552000D07041E80002002A1FBF206850E8000F39
:10553000216820F4D0701CBF41E80002002A09D085
:10554000206850E8000F216820F4D07041E8000284
:10555000002AD7D1206850E8020F216820F001000E
:1055600041E80202002A1FBF206850E8020F2168AC
:1055700020F001001CBF41E80202002A12D020687E
:1055800050E8020F216820F0010041E802024AB110
:10559000206850E8020F216820F0010041E8020273
:1055A000002AD7D188208421202262502250002056
:1055B00084F880000320BDE8F08100BF1F4600BFD3
:1055C000FCF79AFCC01B40459CD82068016849073D
:1055D00044BFC1695FEA01510AD4C0692840401B39
:1055E000B0FA80F040098642EAD00020BDE8F081A0
:1055F0004FF400610162206850E8000F216820F438
:10560000D07041E80002F2B1206850E8000F216834
:1056100020F4D07041E80002002A1FBF206850E843
:10562000000F216820F4D0701CBF41E80002002A5E
:1056300009D0206850E8000F216820F4D07041E8BC
:105640000002002AD7D1206850E8020F216820F01C
:10565000010041E80202F2B1206850E8020F21681F
:1056600020F0010041E80202002A1FBF206850E834
:10567000020F216820F001001CBF41E80202002A4D
:1056800009D0206850E8020F216820F0010041E8AD
:105690000202002AD7D12020C4F884008C2088215F
:1056A00082E700000000000040F24010C2F200401B
:1056B000FEF7DEBB00000000FEE700000000000077
:1056C000FCF732FCFFF79CFAFFF78AF8FFF7ECF8DB
:1056D000FFF76AF8FFF710F9FFF78AFAFFF78CFA7D
:1056E000FCE7F1EE100A4FF6FF71C0F2C03120EA7C
:1056F000010040F04070E1EE100A7047010408100C
:1057000020400004081020400000000001020304B3
:105710000102030406070809010002000400060054
:1057200008000A000C00100020004000800000016A
:10573000010101030701000008040204080101013E
:10574000605700080000002410000000FC02000860
:105750007057000810000024C80700001C03000850
:1057600001000000100000000090D0030090D00362
:040000050800029954
:00000001FF
