:020000040800F2
:1000000018040024AD020008010E0008F10D0008DC
:10001000F90D000829030008C90F000800000000BE
:10002000000000000000000000000000110E0008A9
:100030003103000800000000090E0008190E000836
:10004000C7020008C7020008C7020008C70200086C
:10005000C7020008C7020008C7020008C70200085C
:10006000C7020008C7020008C7020008C70200084C
:10007000C7020008C7020008C7020008C70200083C
:10008000C7020008C7020008C7020008C70200082C
:10009000C7020008C7020008C7020008C70200081C
:1000A000C7020008C7020008C7020008C70200080C
:1000B000C7020008C7020008C7020008C7020008FC
:1000C000C7020008C7020008C7020008C7020008EC
:1000D000C7020008C7020008C7020008C7020008DC
:1000E000C7020008C702000800000000C70200089D
:1000F000C7020008C7020008C7020008C7020008BC
:10010000C7020008C7020008C7020008C7020008AB
:10011000C7020008C7020008C7020008C70200089B
:10012000C7020008C7020008C7020008C70200088B
:10013000C7020008C7020008C7020008C70200087B
:1001400000000000000000000000000000000000AF
:10015000C7020008C7020008C7020008C70200085B
:10016000C7020008C7020008C7020008C70200084B
:10017000C7020008C7020008C7020008000000000C
:10018000C7020008C7020008C7020008C70200082B
:10019000C7020008C7020008C7020008C70200081B
:1001A000C7020008C7020008C7020008C70200080B
:1001B000C7020008C7020008C7020008C7020008FB
:1001C000C7020008C7020008C7020008C7020008EB
:1001D000C7020008C7020008C7020008C7020008DB
:1001E000C7020008C7020008C7020008C7020008CB
:1001F000C7020008C7020008C7020008C7020008BB
:10020000C7020008C7020008C7020008C7020008AA
:10021000C7020008C7020008C7020008C70200089A
:10022000C7020008C7020008C7020008000000005B
:10023000C7020008C702000800000000C70200084B
:10024000C7020008C7020008C7020008C70200086A
:10025000C7020008C7020008C7020008C70200085A
:10026000C7020008C7020008C7020008C70200084A
:10027000C7020008C7020008C7020008000000000B
:10028000C7020008C7020008C702000800000000FB
:1002900000000000C7020008DFF80CD000F02AF8C8
:1002A00000480047D10F0008180400240648804782
:1002B00006480047FEE7FEE7FEE7FEE7FEE7FEE74B
:1002C000FEE7FEE7FEE7FEE7F90E000899020008E8
:1002D000D2B201E000F8012B491EFBD27047002288
:1002E000F6E710B513460A4604461946FFF7F0FF35
:1002F000204610BD1CB509480090094801900546EC
:10030000009C06E0E06840F0010394E8070098478D
:100310001034AC42F6D3FFF7C3FF00001010000802
:100320003010000800000000FEE7000000000000A0
:10033000704700000000000041F20000C5F60040D8
:100340000068000C7047000040F21000C2F200404C
:10035000006870470000000040F2000040F2100109
:10036000C2F20040C2F2004100780A6810440860FE
:10037000704700000000000080B5032000F098F8EE
:1003800000F0FAF944F2184141F20003C5F6020107
:10039000C0F600030A68C2F303229A5C096801F000
:1003A0000F0102F01F02595CD04040F20C02C2F271
:1003B000004201F01F0120FA01F1116040F2080132
:1003C000C2F2004108600F2000F00AF800281CBFAC
:1003D000012080BD00F02CF8002080BD000000004E
:1003E000B0B540F20005C2F200452978F1B10446EB
:1003F00040F20800C2F200404FF47A72B2FBF1F111
:100400000068B0FBF1F000F0DBFC0F2C01464FF070
:1004100001000AD8002918BFB0BD4FF0FF300022FC
:10042000214600F015F800206C60B0BD0120B0BD81
:1004300081B044F2F440C5F60200016841F00201C7
:100440000160006800F002000090009801B0704761
:1004500070B54EF60C5C4FF0FF36CEF2000C00F19A
:10046000604505F56445DCF80030C3F3022E8EF0DC
:100470000703042B28BF0423BEF1030406FA03F389
:1004800021EA030100F00F0338BF0024043B0028D9
:10049000634406FA04F048BF03F10C05A14022EAC8
:1004A000000008430001287070BD0000000000003B
:1004B0004EF60C514FF6FF03CEF200010A681A40C7
:1004C00060F30A2242F0806040F0FD7008607047DF
:1004D000B0B544F60C05C5F6020529684907296838
:1004E00006D401F00701081A18BF0120B0BD00BFF3
:1004F00021F0070108432860FFF726FF044600BFEC
:1005000055F8080C800407D4FFF71EFF001BB0F558
:100510007A7FF5D90120B0BD0020B0BD00000000F9
:100520002DE9F04381B0002800F0208142F200095B
:100530000446C5F20029D9F8000000F00F008142FE
:100540000DD9D9F8000020F00F000843C9F80000C9
:10055000D9F8000000F00F00884240F007812068C1
:1005600044F218464207C5F602060AD522693368E6
:1005700003F070039A4204D9336823F070031A43DE
:10058000326002070AD56269736803F070039A4209
:1005900004D9736823F070031A437260C2060AD547
:1005A000A269736803F4E0639A4204D9736823F480
:1005B000E0631A43726082060AD5E269B36803F009
:1005C00070039A4204D9B36823F070031A43B260EF
:1005D00010F002020AD0E368376807F00F07BB4249
:1005E00004D9376827F00F073B433360C3073FD078
:1005F000306820F47062D4E901031A4332600128A4
:1006000056F8182C0AD0032804D002280AD19203E5
:100610000BD4ABE0920108D4A8E000BFD20504D40B
:10062000A4E000BF520740F1A180884656F8081C9C
:1006300021F00701084346F8080CFFF785FE054640
:1006400041F2883756F8080C616800F03800B0EBCA
:10065000C10F09D0FFF778FE401BB842F2D9032042
:1006600001B0BDE8F08300BF2068414600F00202FF
:1006700052B1E268336803F00F039A4204D2336840
:1006800023F00F031A433260D9F8002002F00F0262
:1006900091420CD2D9F8002022F00F020A43C9F887
:1006A0000020D9F8002002F00F028A425ED14107F3
:1006B0000AD52169326802F07002914204D2326890
:1006C00022F070021143316001070AD56169726836
:1006D00002F07002914204D2726822F0700211435B
:1006E0007160C1060AD5A169726802F4E0629142A4
:1006F00004D2726822F4E0621143716080060AD568
:10070000E069B16801F07001884204D2B16821F05B
:1007100070010843B06000F02FF8316841F2000228
:10072000C0F60002C1F30321515C336803F00F03EC
:1007300001F01F01D25C20FA01F102F01F0040F22B
:100740000C02C2F2004221FA00F0106040F20400F4
:1007500040F20802C2F20040C2F20042006811609A
:1007600001B0BDE8F043FFF73BBE00BF012001B080
:10077000BDE8F0830000000044F20041C5F602012C
:100780000869C0F3C200032816D002280ED0002842
:1007900032D10868800649F20000C0F2D03058BF5C
:1007A00070470968C1F3C101C840704747F640006F
:1007B000C0F27D10704700BF8B6A886AD1F82CC0E8
:1007C0004A6BC0F30510E8B1C2F3CC0203F0030397
:1007D00000EE102A9FED2A1AB8EE400A20EE010A18
:1007E0009FED281ADFE803F0022110210A68920623
:1007F0000ED49FED261A18E040F60010C0F23D001E
:10080000704700BF002070479FED1F1A0DE000BF2A
:100810000A6849F20003C0F2D033C2F3C10223FADE
:1008200002F201EE102AB8EE411A0A6B9FED183A57
:100830006FF35F2202EE102A5FEACC7203FE000A19
:1008400003EE100A086BB8EE422AC0F34620B8EE59
:10085000433A013030EE020AB7EE002A81EE031A65
:1008600030EE020A21EE000A01EE100AB8EE411A3B
:1008700080EE010ABCEEC00A10EE100A704700BFFD
:10088000000000390024744A20BCBE4B0024744C84
:10089000000000000000000070B3F0B581B0044615
:1008A000007844F20046C007C5F6020626D120783B
:1008B000800740F1C280306910F03801B06A3FD043
:1008C000182908BF5FEA80703AD0E06831680028D4
:1008D00062D021F0190108433060FFF735FD05466D
:1008E0003068400748D4FFF72FFD401B0228F7D996
:1008F000032001B0F0BD00BF01207047306900F057
:100900003801B06A102905D018290BD100F0030076
:10091000022807D130688003C9D560680028C6D195
:1009200034E100BF6168306800294FD0B1F5A02FD5
:1009300044D0B1F5803F5FD140F4803062E000BF29
:1009400030684007E06802D5002800F01F81316858
:1009500021F0190108433060FFF7F6FC054600BF9F
:100960003068400708D4FFF7EFFC401B02284FF027
:100970000300F5D901B0F0BDFFF7DEFC41F2030141
:1009800088424FD820697168402821F47C3151D1C8
:1009900041F4003050E000BF21F001003060FFF76B
:1009A000D3FC05463068400747D5FFF7CDFC401B18
:1009B00002284FF00300F5D9DCE700BF40F48020A7
:1009C0003060306840F480301CE000BF20F480309C
:1009D0003060306820F480203060FFF7B5FC0546B9
:1009E000306880037FF563AFFFF7AEFC401B6428DF
:1009F0004FF00300F4D9BDE720F480303060306858
:100A000020F480203060FFF79FFC054630688003AB
:100A10003FF54DAFFFF798FC401B6428F6D9032043
:100A200001B0F0BD7068216920F0FE4040EA01602D
:100A300002E000BF41EA003070602078C00654D563
:100A4000306900F03801B06A082905D0182919D199
:100A500000F00300012815D13068C00503D5E06916
:100A6000802840F09380FFF767FC41F20301884241
:100A70001ED8206A7168202821F0F84132D141F057
:100A8000804031E0E0690028306819D040F08000F3
:100A90003060FFF759FC05463068C005E3D4FFF726
:100AA00053FC401B02284FF00300F5D962E700BF5A
:100AB000F068216A20F07C5040EA0160F06014E0A8
:100AC00020F080003060FFF73FFC05463068C0052D
:100AD0000BD5FFF739FC401B02284FF00300F5D976
:100AE00048E700BF41EA806070602078000737D493
:100AF000207880064ED42078400761D4656A65B3BB
:100B0000306900F03800182840F0A080012DB16A4B
:100B1000306B3BD001F00302A36A9A4236D1C1F395
:100B20000511E26A914231D10146226B6FF35F21D8
:100B3000013A91422AD1C0F34622616B01398A42BF
:100B400024D1C0F30642A16B01398A421ED1C0F301
:100B50000660E16B0139884218D1002001B0F0BD78
:100B600060690028706F41D040F001007067FFF7A6
:100B7000EBFB0546706F8007BAD4FFF7E5FB401B1F
:100B80000228F7D9032001B0F0BD00BF012001B059
:100B9000F0BD00BFA0690028306845D040F4805007
:100BA0003060FFF7D1FB054630688004A3D4FFF71F
:100BB000CBFB401B0228F7D9032001B0F0BD00BFDA
:100BC000D6F8000440F48070C6F80004FFF7BCFBC0
:100BD000054600BFD6F80004C00519D4FFF7B4FBE2
:100BE000401B6428F6D9032001B0F0BD20F00100BD
:100BF0007067FFF7A9FB0546706F80077FF578AF38
:100C0000FFF7A2FB401B02284FF00300F4D9B1E626
:100C1000A168306F002943D0052939D0012957D167
:100C200040F001005AE000BF20F480503060FFF730
:100C30008BFB0546306880047FF55DAFFFF784FBD2
:100C4000401B02284FF00300F4D993E6306820F0EF
:100C500080703060FFF778FB022D05460CD100BF95
:100C6000306880014CD5FFF76FFB401B02284FF026
:100C70000300F5D97EE600BF306880017FF56DAFD7
:100C8000FFF762FB401B02284FF00300F4D971E626
:100C900040F004003067306F40F001001EE000BFFC
:100CA00020F001003067306F20F004003067FFF75C
:100CB0004BFB054641F28837306F80077FF51EAF4A
:100CC000FFF742FB401BB8424FF00300F4D951E656
:100CD00020F001003067306F20F004003067FFF72C
:100CE00033FB054641F28837306F80073FF506AF8A
:100CF000FFF72AFB401BB8424FF00300F4D939E656
:100D000004F12807B06A40F2F33188438ECF0843DC
:100D1000591E40EA02104FF47E426FF35F21B06229
:100D200002EB47204FF4FE0280B2E36B0844A16B54
:100D300002EB01414FF0FE4201F4FE0102EB0362BF
:100D4000084402F0FE4108443063F06A4FF6F8713F
:100D500020F00100F062706BA26C884340EAC20090
:100D60007063F06A216C20F00C000843F062F06AB6
:100D7000616C20F002000843F062F06A40F48030B9
:100D8000F062F06A40F40030F062F06A40F48020D3
:100D9000F062F06A40F00100F062306840F080706C
:100DA0003060FFF7D1FA0446306880013FF5D5AED8
:100DB000FFF7CAFA001B02284FF00300F4D9D9E567
:100DC000411E0020B0EB116F02D00120704700BF20
:100DD0004EF21002F023CEF2000251604EF6235183
:100DE000CEF200010B700721906011607047000087
:100DF000FEE7000000000000FEE700000000000029
:100E0000FEE7000000000000704700000000000046
:100E10007047000000000000FFF79EBA00000000CD
:100E20007047000000000000704700000000000054
:100E3000B0B59CB044F6180409A84C21C5F60204CC
:100E4000FFF74DFA02200025CDE90755CDE90555FC
:100E5000CDE90355CDE90155FFF73AFB40F22C40AF
:100E60000095C5F60000016821F0010101600068ED
:100E7000012100F001000090206861F38F302060B4
:100E8000206800F44040009000982068800409D455
:100E9000206880045CBF20685FEA804002D420683C
:100EA0008004F2D50220099001200C9040200D9082
:100EB00009A800241294FFF7EFFC28B1EFF310808B
:100EC00072B600BFFEE700BF3F200121CDE901045B
:100ED00001A8CDE90344CDE90544CDE90744FFF776
:100EE0001FFB28B1EFF3108072B600BFFEE700BF12
:100EF0001CB0B0BD000000004EF6885042F2000C5D
:100F0000CEF20000C5F2002C016841F470010160CE
:100F1000DCF8000000F00F00062806D8DCF800001E
:100F2000072161F30300CCF8000044F200404EF6C4
:100F30007F52C5F60200CEF6F622016841F00101AB
:100F400001600021016103681A400260DCF80020A2
:100F5000120706D5DCF80020072363F30302CCF860
:100F6000002040F200228161C161C0F202220162D0
:100F700082620022C0F2FF12C26240F28022C0F2FE
:100F80000112026341638263C163026441640268C7
:100F900022F480220260016641F20000C5F60040A2
:100FA0000068B1EB507F05D148F208100121C5F26D
:100FB0000010016044F2000043F2D201C5F20020AB
:100FC0000160704700000000FEE700000000000024
:100FD000FFF7D2F9FFF72CFFFFF722FFFFF724FFFF
:100FE000FCE702E008C8121F08C1002AFAD17047C6
:100FF0007047002001E001C1121F002AFBD1704799
:1010000000000000010203040102030406070809AE
:10101000301000080000002410000000E20F00085B
:10102000401000081000002408040000F20F00081F
:1010300001000000100000000090D0030090D003D9
:040000050800029954
:00000001FF
