:020000040800F2
:10000000D006002465030008C916000891140008F2
:10001000C116000871040008091A00080000000059
:10002000000000000000000000000000D9160008D9
:100030007904000800000000D1160008E11600084D
:100040007F0300087F0300087F0300087F03000888
:100050007F0300087F0300087F0300087F03000878
:100060007F0300087F0300087F0300087F03000868
:100070007F0300087F0300087F0300087F03000858
:100080007F0300087F0300087F0300087F03000848
:100090007F0300087F0300087F0300087F03000838
:1000A0007F0300087F0300087F0300087F03000828
:1000B0007F0300087F0300087F0300087F03000818
:1000C0007F0300087F0300087F0300087F03000808
:1000D0007F0300087F0300087F0300087F030008F8
:1000E0007F0300087F030008000000007F03000872
:1000F0007F0300087F0300087F0300087F030008D8
:100100007F0300087F0300087F0300087F030008C7
:100110007F0300087F030008A91800087F03000878
:100120007F0300087F0300087F0300087F030008A7
:100130007F0300087F0300087F0300087F03000897
:1001400000000000000000000000000000000000AF
:100150007F0300087F0300087F0300087F03000877
:100160007F0300087F0300087F0300087F03000867
:100170007F0300087F0300087F03000800000000E1
:100180007F0300087F0300087F0300087F03000847
:100190007F0300087F0300087F0300087F03000837
:1001A0007F0300087F0300087F0300087F03000827
:1001B0007F0300087F0300087F0300087F03000817
:1001C0007F0300087F0300087F0300087F03000807
:1001D0007F0300087F0300087F0300087F030008F7
:1001E0007F0300087F0300087F0300087F030008E7
:1001F0007F0300087F0300087F0300087F030008D7
:100200007F0300087F0300087F0300087F030008C6
:100210007F0300087F0300087F0300087F030008B6
:100220007F0300087F0300087F0300080000000030
:100230007F0300087F030008000000007F03000820
:100240007F0300087F0300087F0300087F03000886
:100250007F0300087F0300087F0300087F03000876
:100260007F0300087F0300087F0300087F03000866
:100270007F0300087F0300087F03000800000000E0
:100280007F0300087F0300087F03000800000000D0
:10029000000000007F03000800F002F800F052F8B0
:1002A00014A696E8000CB244B344DA4501D100F03C
:1002B00049F8BAE80F000FA696E83000A5EB040550
:1002C00004EB0607AAEB0704A7F101074FEA15158F
:1002D0004FEA3414A4F10104AC4201D300F032F827
:1002E00013F0010F18BFFB1A43F0010300F001F8EF
:1002F000DBE718476017000080170000103A24BFA2
:1003000078C878C1FAD8520724BF30C830C144BF7A
:1003100004680C6070470000704700000023002450
:1003200000250026103A28BF78C1FBD8520728BF05
:1003300030C148BF0B6070471FB501F076FB1FBD91
:1003400010B510BD00F058F81146FFF7F5FF01F0A9
:100350005FFB00F076F803B4FFF7F2FF03BC00F098
:100360007DF800000948804709480047FEE7FEE79E
:10037000FEE7FEE7FEE7FEE7FEE7FEE7FEE7FEE755
:1003800004480549054A064B70470000D917000884
:1003900099020008D0000024D0060024D0020024D6
:1003A000D00200244FF0000200B513469446964652
:1003B000203922BFA0E80C50A0E80C50B1F1200178
:1003C000BFF4F7AF090728BFA0E80C5048BF0CC026
:1003D0005DF804EB890028BF40F8042B08BF704784
:1003E00048BF20F8022B11F0804F18BF00F8012BF6
:1003F0007047704770477047754600F02BF8AE465F
:1004000005006946534620F00700854618B020B520
:10041000FFF7B6FFBDE820404FF000064FF00007A1
:100420004FF000084FF0000BAC46ACE8C009ACE858
:10043000C009ACE8C009ACE8C00921F007018D464D
:10044000704710B50446AFF300802046BDE8104069
:10045000FFF781BF004870471000002401491820B1
:10046000ABBEFEE72600020070470000000000005F
:10047000FEE70000000000007047000000000000E0
:10048000EFF3108072B600BFFEE70000000000002E
:100490002DE9F04F83B00F68002F00F0C98000F104
:1004A000264642F2004506F1FF76C5F602050A220D
:1004B000A8424FEAB62540F2040C08BF092200F119
:1004C00020030093092DC5F6000C38BF4FEAB62271
:1004D000002400264FF0000801920AE008F101080C
:1004E0000F6837FA08F206F1020604F1040400F07E
:1004F0009F80012202FA08FE17EA0E09EED0D1F819
:1005000004B003220BF00307B2407D1E6FEA020A1B
:10051000012D11D88268CD6802EA0A02B5402A434B
:100520008260CBF30015426822EA0E0205FA08F554
:100530002A43426004E000BF032F01D103271FE0DC
:10054000C2688D6802EA0A02B540022F42EA05023B
:10055000C26015D16FF0030204F01C0502EA580BCB
:10056000009A0F2352F80BE0AB400F692EEA030309
:10057000AF403B4342F80B30D1F804B00BF0030717
:10058000026807FA06F302EA0A021BF4403F42EA55
:1005900003020260A2D044F2F44340F2084EC5F6D2
:1005A0000203C5F6000E0F251A6842F002021A6017
:1005B0001A6802F00202029228F00302029B04F081
:1005C0000C0352F80E709D40AF43019D05FA03F3F2
:1005D0003B4342F80E304FF0B04EDEF800204B683F
:1005E00042EA0907DD0258BF22EA09079D02CEF858
:1005F0000070DCF8002042EA090758BF22EA090728
:100600009D03CCF80070DCF8802042EA090758BF4F
:1006100022EA0907DB03CCF88070DCF87C2042EA90
:10062000090758BF22EA0907CCF87C7056E700BFDB
:1006300003B0BDE8F08F00000069084018BF01203A
:100640007047000000000000426902EA0103914384
:1006500041EA034181617047002A08BF09048161B2
:10066000704700000000000041F20000C5F60040A5
:100670000068000C7047000040F2C800C2F2004061
:10068000006870470000000040F2000040F2C8011E
:10069000C2F20040C2F2004100780A6810440860CB
:1006A000704700000000000080B5032000F0ACF8A7
:1006B00000F00EFA44F2184141F64423C5F6020157
:1006C000C0F600030A68C2F303229A5C096801F0CD
:1006D0000F0102F01F02595CD04040F20C02C2F23E
:1006E000004201F01F0120FA01F1116040F20801FF
:1006F000C2F2004108600F2000F00AF800281CBF79
:10070000012080BD00F02CF8002080BD000000001A
:10071000B0B540F20005C2F200452978F1B10446B7
:1007200040F20800C2F200404FF47A72B2FBF1F1DD
:100730000068B0FBF1F000F0EFFC0F2C01464FF029
:1007400001000AD8002918BFB0BD4FF0FF300022C9
:10075000214600F029F800206C60B0BD0120B0BD3A
:1007600081B044F2F440C5F60200016841F0020194
:100770000160006800F002000090009801B070472E
:10078000002848BF704700F01F01012202FA01F162
:100790004EF20012C0F34A10CEF2000242F82010CE
:1007A000704700000000000070B54EF60C5C4FF082
:1007B000FF36CEF2000C00F1604505F56445DCF82B
:1007C0000030C3F3022E8EF00703042B28BF04234E
:1007D000BEF1030406FA03F321EA030100F00F035C
:1007E00038BF0024043B0028634406FA04F048BFE5
:1007F00003F10C05A14022EA000008430001287023
:1008000070BD0000000000004EF60C514FF6FF03D3
:10081000CEF200010A681A4060F30A2242F08060BA
:1008200040F0FD7008607047B0B544F60C05C5F6A1
:10083000020529684907296806D401F00701081A4A
:1008400018BF0120B0BD00BF21F007010843286098
:10085000FFF712FF044600BF55F8080C800407D4C8
:10086000FFF70AFF001BB0F57A7FF5D90120B0BD74
:100870000020B0BD000000002DE9F04381B0002849
:1008800000F0208142F200090446C5F20029D9F89F
:10089000000000F00F0081420DD9D9F8000020F0CF
:1008A0000F000843C9F80000D9F8000000F00F005D
:1008B000884240F00781206844F218464207C5F696
:1008C00002060AD52269336803F070039A4204D9FC
:1008D000336823F070031A43326002070AD5626955
:1008E000736803F070039A4204D9736823F07003AD
:1008F0001A437260C2060AD5A269736803F4E06302
:100900009A4204D9736823F4E0631A437260820642
:100910000AD5E269B36803F070039A4204D9B36858
:1009200023F070031A43B26010F002020AD0E368A9
:10093000376807F00F07BB4204D9376827F00F0765
:100940003B433360C3073FD0306820F47062D4E982
:1009500001031A433260012856F8182C0AD00328E4
:1009600004D002280AD192030BD4ABE0920108D440
:10097000A8E000BFD20504D4A4E000BF520740F1B4
:10098000A180884656F8081C21F00701084346F864
:10099000080CFFF771FE054641F2883756F8080C3F
:1009A000616800F03800B0EBC10F09D0FFF764FEBA
:1009B000401BB842F2D9032001B0BDE8F08300BF6C
:1009C0002068414600F0020252B1E268336803F049
:1009D0000F039A4204D2336823F00F031A433260A4
:1009E000D9F8002002F00F0291420CD2D9F8002071
:1009F00022F00F020A43C9F80020D9F8002002F0C3
:100A00000F028A425ED141070AD52169326802F09D
:100A10007002914204D2326822F0700211433160B8
:100A200001070AD56169726802F07002914204D22E
:100A3000726822F0700211437160C1060AD5A16983
:100A4000726802F4E062914204D2726822F4E062B9
:100A50001143716080060AD5E069B16801F0700148
:100A6000884204D2B16821F070010843B06000F000
:100A70002FF8316841F64422C0F60002C1F3032189
:100A8000515C336803F00F0301F01F01D25C20FAC0
:100A900001F102F01F0040F20C02C2F2004221FA02
:100AA00000F0106040F2040040F20802C2F2004080
:100AB000C2F200420068116001B0BDE8F043FFF7E8
:100AC00027BE00BF012001B0BDE8F0830000000098
:100AD00044F20041C5F602010869C0F3C2000328D0
:100AE00016D002280ED0002832D10868800649F2BC
:100AF0000000C0F2D03058BF70470968C1F3C1018F
:100B0000C840704747F64000C0F27D10704700BFF4
:100B10008B6A886AD1F82CC04A6BC0F30510E8B123
:100B2000C2F3CC0203F0030300EE102A9FED2A1A51
:100B3000B8EE400A20EE010A9FED281ADFE803F024
:100B4000022110210A6892060ED49FED261A18E0A1
:100B500040F60010C0F23D00704700BF0020704713
:100B60009FED1F1A0DE000BF0A6849F20003C0F2B2
:100B7000D033C2F3C10223FA02F201EE102AB8EE1A
:100B8000411A0A6B9FED183A6FF35F2202EE102AAA
:100B90005FEACC7203FE000A03EE100A086BB8EE9F
:100BA000422AC0F34620B8EE433A013030EE020A42
:100BB000B7EE002A81EE031A30EE020A21EE000A97
:100BC00001EE100AB8EE411A80EE010ABCEEC00A2E
:100BD00010EE100A704700BF000000390024744A6C
:100BE00020BCBE4B0024744C00000000000000003C
:100BF00070B3F0B581B00446007844F20046C007F7
:100C0000C5F6020626D12078800740F1C2803069FF
:100C100010F03801B06A3FD0182908BF5FEA807031
:100C20003AD0E0683168002862D021F01901084309
:100C30003060FFF721FD05463068400748D4FFF7D4
:100C40001BFD401B0228F7D9032001B0F0BD00BFF7
:100C500001207047306900F03801B06A102905D0D2
:100C600018290BD100F00300022807D13068800357
:100C7000C9D560680028C6D134E100BF616830681A
:100C800000294FD0B1F5A02F44D0B1F5803F5FD1FE
:100C900040F4803062E000BF30684007E06802D571
:100CA000002800F01F81316821F0190108433060ED
:100CB000FFF7E2FC054600BF3068400708D4FFF7A5
:100CC000DBFC401B02284FF00300F5D901B0F0BD5A
:100CD000FFF7CAFC41F2030188424FD820697168CE
:100CE000402821F47C3151D141F4003050E000BF64
:100CF00021F001003060FFF7BFFC05463068400777
:100D000047D5FFF7B9FC401B02284FF00300F5D987
:100D1000DCE700BF40F480203060306840F4803071
:100D20001CE000BF20F480303060306820F4802068
:100D30003060FFF7A1FC0546306880037FF563AFA4
:100D4000FFF79AFC401B64284FF00300F4D9BDE77D
:100D500020F480303060306820F480203060FFF76D
:100D60008BFC0546306880033FF54DAFFFF784FCF0
:100D7000401B6428F6D9032001B0F0BD70682169DA
:100D800020F0FE4040EA016002E000BF41EA00308E
:100D900070602078C00654D5306900F03801B06A20
:100DA000082905D0182919D100F00300012815D110
:100DB0003068C00503D5E069802840F09380FFF7D4
:100DC00053FC41F2030188421ED8206A7168202832
:100DD00021F0F84132D141F0804031E0E069002853
:100DE000306819D040F080003060FFF745FC0546C0
:100DF0003068C005E3D4FFF73FFC401B02284FF0EA
:100E00000300F5D962E700BFF068216A20F07C504A
:100E100040EA0160F06014E020F080003060FFF7ED
:100E20002BFC05463068C0050BD5FFF725FC401BA1
:100E300002284FF00300F5D948E700BF41EA80607F
:100E400070602078000737D4207880064ED4207850
:100E5000400761D4656A65B3306900F0380018282E
:100E600040F0A080012DB16A306B3BD001F003024D
:100E7000A36A9A4236D1C1F30511E26A914231D197
:100E80000146226B6FF35F21013A91422AD1C0F3F0
:100E90004622616B01398A4224D1C0F30642A16B1C
:100EA00001398A421ED1C0F30660E16B01398842E4
:100EB00018D1002001B0F0BD60690028706F41D0EA
:100EC00040F001007067FFF7D7FB0546706F8007A1
:100ED000BAD4FFF7D1FB401B0228F7D9032001B099
:100EE000F0BD00BF012001B0F0BD00BFA069002827
:100EF000306845D040F480503060FFF7BDFB0546B8
:100F000030688004A3D4FFF7B7FB401B0228F7D951
:100F1000032001B0F0BD00BFD6F8000440F480709B
:100F2000C6F80004FFF7A8FB054600BFD6F800048A
:100F3000C00519D4FFF7A0FB401B6428F6D9032095
:100F400001B0F0BD20F001007067FFF795FB05468A
:100F5000706F80077FF578AFFFF78EFB401B02288C
:100F60004FF00300F4D9B1E6A168306F002943D0F7
:100F7000052939D0012957D140F001005AE000BFBE
:100F800020F480503060FFF777FB0546306880041E
:100F90007FF55DAFFFF770FB401B02284FF00300A9
:100FA000F4D993E6306820F080703060FFF764FB7E
:100FB000022D05460CD100BF306880014CD5FFF7EB
:100FC0005BFB401B02284FF00300F5D97EE600BF13
:100FD000306880017FF56DAFFFF74EFB401B0228A4
:100FE0004FF00300F4D971E640F004003067306F31
:100FF00040F001001EE000BF20F001003067306FBC
:1010000020F004003067FFF737FB054641F28837D0
:10101000306F80077FF51EAFFFF72EFB401BB842F5
:101020004FF00300F4D951E620F001003067306F33
:1010300020F004003067FFF71FFB054641F28837B8
:10104000306F80073FF506AFFFF716FB401BB84235
:101050004FF00300F4D939E604F12807B06A40F2F2
:10106000F33188438ECF0843591E40EA02104FF4F3
:101070007E426FF35F21B06202EB47204FF4FE0225
:1010800080B2E36B0844A16B02EB01414FF0FE42DA
:1010900001F4FE0102EB0362084402F0FE41084441
:1010A0003063F06A4FF6F87120F00100F062706B67
:1010B000A26C884340EAC2007063F06A216C20F0A1
:1010C0000C000843F062F06A616C20F002000843F3
:1010D000F062F06A40F48030F062F06A40F4003070
:1010E000F062F06A40F48020F062F06A40F00100A3
:1010F000F062306840F080703060FFF7BDFA04465F
:10110000306880013FF5D5AEFFF7B6FA001B022824
:101110004FF00300F4D9D9E5411E0020B0EB116F68
:1011200002D00120704700BF4EF21002F023CEF231
:10113000000251604EF62351CEF200010B700721E0
:1011400090601160704700007047000000000000D0
:101150007047000000000000704700000000000021
:1011600090F83C20012A4FF002025ED0B0B580F822
:101170003D2040F2004C0268C4F2010C42F480634E
:1011800063455368D2F808E002BF23F470034C684B
:10119000234341F2FF740D68C4F2000423F070038E
:1011A000A24243EA050353600CDC40F2FF73C4F231
:1011B00000039A4216DCB2F1804F29D040F200437E
:1011C00018E000BF40F2FF33C4F201039A4217DC7B
:1011D00041F60003C4F200039A4219D00023C4F27E
:1011E000010309E040F60003C4F200039A420FD065
:1011F00040F60043C4F200039A4209D00DE000BF5C
:1012000044F20003C4F201039A4201D0624504D1C2
:101210002EF080038968194391600022012180F833
:101220003D1080F83C20BDE8B040104670470000FB
:1012300060B310B5044690F83D0028B9002084F84A
:101240003C00204600F024F8022084F83D0020688D
:10125000211D00F031FB012084F8480084F83E0095
:1012600084F83F0084F8400084F8410084F842008C
:1012700084F8430084F8440084F8450084F846006C
:1012800084F8470084F83D00002010BD012070471D
:1012900041F200010068C4F20001884218BF7047A3
:1012A00080B582B044F2E8400022C5F60200016831
:1012B00041F0100101600068002100F01000019071
:1012C00001983620FFF770FA362002B0BDE8804062
:1012D000FFF756BA00000000704700000000000051
:1012E00010B5044600680169890744BFC1685FEA18
:1012F00081713FD40169490744BFC1685FEA417108
:1013000044D40169090744BFC1685FEA01714BD445
:101310000169C90644BFC1685FEAC16150D401696F
:10132000C9071CBFC1685FEAC17157D101690906CD
:1013300044BFC1685FEA016158D40169C90544BF6F
:10134000C1685FEA016159D40169490644BFC168B7
:101350005FEA41615AD40169890646BFC1685FEA04
:10136000816110BD6FF0200101612046BDE8104091
:10137000FFF7F2BE6FF00201016101212177806960
:1013800080074BD02046FFF7A7FF4DE06FF0040128
:10139000016102212177806910F4407F48D0204606
:1013A000FFF79AFF4AE000BF6FF0080101610421D6
:1013B0002177C069800745D02046FFF78DFF47E0C1
:1013C0006FF01001016108212177C06910F4407F9E
:1013D00042D02046FFF780FF44E000BF6FF00101DC
:1013E0000161204600F04CF820689FE76FF0800113
:1013F00001612046FFF7ACFE20689EE76FF4807124
:1014000001612046FFF7A0FE20689DE76FF04001D4
:101410000161204600F038F820689CE7204600F083
:1014200027F8204600F028F800202077206861E7A0
:10143000204600F01DF8204600F01EF8002020771E
:1014400020685EE7204600F013F8204600F014F80C
:101450000020207720685BE7204600F009F820464E
:1014600000F00AF800202077206858E7000000000C
:1014700070470000000000007047000000000000FE
:1014800070470000000000007047000000000000EE
:10149000FEE700000000000070B5FFF7EDF840F235
:1014A0007006C2F20046B168401A142838BF70BDF9
:1014B00040F20044C5F60204FFF7DEF804F5C0551B
:1014C000B06008212846FFF7B7F800284FF0040164
:1014D00018BF012030702846FFF7AEF800284FF4FF
:1014E000005118BF0120707004F58060FFF7A4F868
:1014F00000284FF0010118BF0120B070A4F58060F2
:10150000FFF79AF831783279002881F0FF0118BF8F
:1015100001200A42F07003D001212046FFF794F821
:101520007078717980F0FF00014203D002212046DB
:10153000FFF78AF8B078B17980F0FF00014207D058
:1015400001212046FFF780F802212046FFF77CF8B2
:10155000F179F07881F0FF01084208D0012120469E
:10156000FFF772F802212046FFF76EF8F078317825
:10157000F0713171B6F80110A6F8051070BD0000C9
:1015800010B540F200440121C5F6020401222046B4
:10159000FFF762F8022101222046BDE81040FFF764
:1015A0005BB80000000000002DE9F04186B044F275
:1015B000E0400026C5F602000596CDE90366CDE9B8
:1015C0000166016840F2004441F0040101600168D5
:1015D000C5F6020401F0040100910099016841F090
:1015E000800101600168002201F0800100910099F2
:1015F000016841F00101016001684FF0030801F04A
:10160000010100910099016841F002010160006848
:10161000032100F00200009000982046FFF71CF81C
:1016200001AD4FF40050CDE9010604F58060294674
:1016300001270397FEF72CFF02200390A4F580609A
:101640002946CDE90176FEF723FF01A90C20C1C18F
:1016500004F5C0502946FEF71BFF20462946CDE978
:101660000187CDE90366FEF713FF06B0BDE8F08100
:1016700010B584B040F27C0041F20001C2F200409B
:1016800000240294C4F2000101604FF41661C0E925
:1016900001146421C16080218161FFF7C9FD08B197
:1016A000FEF7EEFE40F27C0001A9C2F20040019478
:1016B0000394FFF755FD08B1FEF7E2FE04B010BD3C
:1016C000FEE7000000000000FEE700000000000050
:1016D000704700000000000070470000000000009C
:1016E000FEF7D2BF00000000FFF74ABF0000000075
:1016F000FFF7D2BE00000000B0B59CB044F618045D
:1017000009A84C21C5F60204FEF74CFE0220002574
:10171000CDE90755CDE90555CDE90355CDE901558D
:10172000FFF782F80095206840F440402060206870
:1017300000F44040009040F22C40C5F600000168E3
:1017400041F001010160006800F001000090009884
:101750002068800409D4206880045CBF20685FEAA8
:10176000804002D420688004F2D502200990012133
:101770000C9112900025042114913C214024CDE9C4
:101780001510CDE917000C200D94CDE9190509A815
:1017900013951B95FFF72CFA20B1EFF3108072B66A
:1017A000FEE700BF3F20019003200421CDE90205A0
:1017B00008200694CDE904044FF48060CDE90704C5
:1017C00001A8FFF759F828B1EFF3108072B600BFF7
:1017D000FEE700BF1CB0B0BD4EF6885042F2000CD0
:1017E000CEF20000C5F2002C016841F470010160E6
:1017F000DCF8000000F00F00062806D8DCF8000036
:10180000072161F30300CCF8000044F200404EF6DB
:101810007F52C5F60200CEF6F622016841F00101C2
:1018200001600021016103681A400260DCF80020B9
:10183000120706D5DCF80020072363F30302CCF877
:10184000002040F200228161C161C0F202220162E7
:1018500082620022C0F2FF12C26240F28022C0F215
:101860000112026341638263C163026441640268DE
:1018700022F480220260016641F20000C5F60040B9
:101880000068B1EB507F05D148F208100121C5F284
:101890000010016044F2000043F2D201C5F20020C2
:1018A000016070470000000040F27C00C2F200407E
:1018B000FFF716BD0000000040F6FF32C4F2000240
:1018C0009042026810DCB0F1804F1ED040F200431D
:1018D000C4F20003984218D040F60003C4F200039B
:1018E000984212D015E000BF40F60043C4F2000356
:1018F00098420AD040F20043C4F20103984204D057
:101900000023C4F20103984203D122F070024B6815
:101910001A434FF6FF7343F6FF7CC4F20003C4F290
:10192000010C984210DD604528DD44F20003C4F24A
:10193000010398422DD044F60003C4F201039842FB
:1019400027D044F2004320E040F2FF73C4F20003CA
:10195000984207DCB0F1804F1BD040F20043C4F244
:10196000000314E040F60003C4F20003984210D0D4
:1019700040F60043C4F2000309E000BF0023C4F2B4
:101980000103984205D040F20043C4F2010398429B
:1019900003D122F44072CB681A4310B522F08002C2
:1019A000D1F800E04C698B6822430260C362604555
:1019B000C0F828E0BDE8104014DD44F20002C4F293
:1019C0000102904219D044F60002C4F20102904292
:1019D00013D044F20042C4F2010290420DD0012122
:1019E000416170470022C4F20102904205D040F2EA
:1019F0000042C4F201029042F1D109690163012160
:101A00004161704700000000FEE700000000000098
:101A1000FEF74AFEFFF770FEFFF7C6FDFFF728FE50
:101A2000FFF762FEFFF764FEFCE7F1EE100A4FF6E7
:101A3000FF71C0F2C03120EA010040F04070E1EED9
:101A4000100A7047000000000102030401020304B1
:101A500006070809781A000800000024100000009A
:101A6000FC020008881A000810000024C0060000CC
:101A70001C0300080000000001000000100000002E
:081A80000090D0030090D00398
:040000050800029954
:00000001FF
