:020000040800F2
:10000000B8060024AD0200087161000871580008AC
:1000100069610008410800084178000800000000FC
:10002000000000000000000000000000D163000894
:10003000890C00080000000079610008D164000804
:10004000C7020008C7020008C7020008C70200086C
:10005000C7020008C7020008C7020008C70200085C
:10006000C7020008C7020008C702000849080008C4
:10007000C7020008C7020008C7020008C70200083C
:10008000C7020008C7020008C7020008C70200082C
:10009000C7020008C7020008C7020008C70200081C
:1000A000C7020008C7020008C7020008C70200080C
:1000B000C7020008C7020008C7020008C7020008FC
:1000C000C7020008C7020008C7020008C7020008EC
:1000D000C702000889770008C7020008C7020008A5
:1000E000C7020008C702000800000000C70200089D
:1000F000C7020008C7020008C7020008C7020008BC
:10010000C7020008C7020008C7020008C7020008AB
:10011000C7020008C7020008B1660008C70200084D
:10012000C7020008C7020008C7020008C70200088B
:10013000C7020008C7020008C7020008C70200087B
:1001400000000000000000000000000000000000AF
:10015000C7020008C7020008C7020008C70200085B
:10016000C7020008C7020008C7020008C70200084B
:10017000C7020008C7020008C7020008000000000C
:10018000C7020008C7020008C7020008C70200082B
:10019000C7020008C7020008C7020008C70200081B
:1001A000C7020008C7020008C7020008C70200080B
:1001B000C7020008C7020008C7020008C7020008FB
:1001C000C7020008C7020008C7020008C7020008EB
:1001D000C7020008C7020008C7020008C7020008DB
:1001E000C7020008C7020008C7020008C7020008CB
:1001F000C7020008C7020008C7020008C7020008BB
:10020000C7020008C7020008C7020008C7020008AA
:10021000C7020008C7020008C7020008C70200089A
:10022000C7020008C7020008C7020008000000005B
:10023000C7020008C702000800000000C70200084B
:10024000C7020008C7020008C7020008C70200086A
:10025000C7020008C7020008C7020008C70200085A
:10026000C7020008C7020008C7020008C70200084A
:10027000C7020008C7020008C7020008000000000B
:10028000C7020008C7020008C702000800000000FB
:1002900000000000C7020008DFF80CD000F048FAA8
:1002A00000480047B9780008B8060024064880478F
:1002B00006480047FEE7FEE7FEE7FEE7FEE7FEE74B
:1002C000FEE7FEE7FEE7FEE7E165000899020008A9
:1002D0002DE9F05F0546002092469B46884606467B
:1002E000814640241BE0284641464746224600F00E
:1002F00057F853465A46C01A914110D31146184632
:10030000224600F03EF82D1A67EB01084F462246C0
:100310000120002100F035F817EB00094E41201EA6
:10032000A4F10104DFDC484631462A464346BDE8D5
:10033000F09FD2B201E000F8012B491EFBD27047BA
:100340000022F6E710B513460A4604461946FFF7A1
:10035000F0FF204610BD30B50B460146002020229C
:10036000012409E021FA02F59D4205D303FA02F5C2
:10037000491B04FA02F52844151EA2F10102F1DC22
:1003800030BD202A04DB203A00FA02F10020704739
:100390009140C2F1200320FA03F3194390407047C3
:1003A000202A04DB203A21FA02F00021704721FACA
:1003B00002F3D040C2F12002914008431946704731
:1003C0002DE9FE4F804681EA0300C00F0C460090E5
:1003D00021F0004123F00045B8EB0200A94105D20D
:1003E0004046214690461C460B46024623F00040FC
:1003F000104347D0270DC7F30A00C3F30A510290F8
:10040000401A019040286BDAC3F3130040F4801BBC
:100410000098924620B10023D2EB030A63EB0B0B4A
:1004200001985946C0F140025046FFF7AAFF064620
:100430000D4650465946019A00F092F910EB08001B
:100440006141002487EA115284EAE7731A4340D0DD
:10045000009A62B3019A012A4FEA075215DC001B89
:1004600061EB02014FF0004202EA0752CDE900427F
:10047000001C41F5801132462B4600F092F903B082
:10048000BDE8F08F40462146F9E7001B61EB020111
:10049000001C41F5801300185B412018A2F50017DD
:1004A00047EB030140EAD570B6196D4111E06D08C4
:1004B0004FEA360645EAC0754FEA0752001B61EB6A
:1004C0000201001C41F5801149084FEA3000001973
:1004D000514132462B4603B0BDE8F04F00F052B90F
:1004E0000098012240000023D0EB020263EBE0738E
:1004F000009821464FEAE074B8EB000061EB04017C
:10050000E9E783F000435BE781F0004158E72DE91C
:10051000FE4F81EA030404F0004421F000410094FE
:100520004FF0000B23F0004350EA01045ED052EA82
:1005300003045BD0C3F30A54C1F30A552C44A4F25C
:10054000F3340194A0FB0254C1F3130141F4801170
:10055000C3F3130343F4801301FB024400FB034E77
:10056000840A970A44EA815447EA8357A4FB076840
:1005700002958D0A05FB07854FEA932C04FB0C546A
:100580002705029D4FEA065847EA1637B5EB0805DE
:100590006EEB070C870E920E47EA811742EA831230
:1005A000A7FB0201B6EB0B0164EB00042B0D43EA41
:1005B0000C335E1844EB1C50DA465146E7FB02014F
:1005C000C5F313044FEA0B3343EA14534FEA0432E2
:1005D000019C43EA0603A4F10C040294009CCDE9BB
:1005E00000B400F0DEF803B0BDE8F08F0020014653
:1005F000F9E72DE9F04D81EA030404F0004B21F006
:10060000004514464FF0000A23F0004150EA05026D
:1006100020D054EA01021DD0C5F30A570246C5F3A3
:100620001303C1F31300C1F30A5640F4801543F4D9
:100630008013A7EB0608101BD64608F2FD3873EBB3
:10064000050002D308F1010801E092185B41B8F1FE
:10065000000F03DA00200146BDE8F08D00204FF4C2
:100660008011064684460EE0171B73EB050705D381
:10067000121B63EB050306434CEA010C49084FEAE1
:10068000300092185B4150EA0107EDD152EA0300B5
:1006900012D082EA040083EA0501084305D0101B4A
:1006A000AB4106D20122002306E000224FF00043B6
:1006B00002E06FF0010253101AEB06004CEB0851F8
:1006C00010EB0A0041EB0B01BDE8F04D00F05AB809
:1006D000C1F30A52C1F3130140F2FF3341F4801118
:1006E0009A4202DA00200146704740F233439A42B0
:1006F000A2F2334202DC5242FFF752BEFFF741BE84
:1007000030B5041E71F1000404DB4FF00044404298
:1007100064EB0101141E73F1000405DB1C464FF06D
:100720000043524263EB0403994208BF904230BD3C
:100730001CB509480090094801900546009C06E058
:10074000E06840F0010394E8070098471034AC4299
:10075000F6D3FFF7A5FD0000408200086082000884
:10076000202A06DBCB17203A41FA02F043EAE07375
:1007700006E041FA02F3D040C2F120029140084362
:100780001946704710B5141E73F1000408DA401CB6
:1007900041F1000192185B411A4301D120F00100A0
:1007A00010BD2DE9F04D92469B4611B1B1FA81F290
:1007B00002E0B0FA80F220329046FFF7E2FD0446F4
:1007C0000F4640EA0A0041EA0B0153465A460843E5
:1007D00013D0114653EA010019D0C8F14002504627
:1007E000FFF7DEFD05460E46504659464246FFF7E6
:1007F000C8FD084305D0012004E020463946BDE885
:10080000F08D0020054346EAE0762C4337430A98F2
:100810006305E40AA0EB08000022FD0A44EA4754FD
:100820000A3002D500200146E9E7010510196941A7
:10083000DDE9084500196941BDE8F04DA2E7000077
:10084000FEE700000000000040F2B800C2F20040E5
:1008500000F012BE0000000040F20F42D0F800C0CD
:10086000C4F20202944511DC6F22C4F202029445E4
:1008700022DC3F22C4F20202944539DC1022C4F289
:10088000020294455AD0282254E000BF40F26F4241
:10089000C4F2020294451BDC40F23F42C4F2020261
:1008A00094452DDC40F21042C4F20202944545D03A
:1008B00040F228423EE000BF9F22C4F2020294456B
:1008C00028DC7022C4F20202944537D0882231E03D
:1008D00040F29F42C4F20202944523DC40F270428F
:1008E000C4F20202944529D040F2884222E000BFBF
:1008F0004022C4F20202944520D058221AE000BFE0
:1009000040F24042C4F20202944517D040F25842ED
:1009100010E000BFA022C4F2020294450ED0B8221B
:1009200008E000BF40F2B842C4F20202944505D08C
:1009300040F2A042C4F20202944517D10CF0F80232
:100940004AF6AB23103ACAF6AA23A2FB03310AA344
:100950005F2AC1F302115B5C40F2FF312CEA010116
:10096000C36588BF04318165084670472CF0FF01DC
:1009700081650846704700BF000610160006101675
:1009800070B540F26F44D0F800C0C4F20204D0F851
:1009900058E0A4451ADC9F25C4F20205AC4533DCBF
:1009A0005725C4F20205AC455ADC1025C4F20205F5
:1009B000AC4500F098802825C4F20205AC4500F053
:1009C00092804025C4F202058AE000BF45F22F451F
:1009D000C5F60205AC452DDC40F2B745C4F2020570
:1009E000AC454BDC40F27045C4F20205AC457AD010
:1009F00040F28845C4F20205AC4574D040F2A045EF
:100A0000C4F202056CE000BF40F22745C4F20205C3
:100A1000AC4543DCA025C4F20205AC4563D0B82543
:100A2000C4F20205AC455ED040F21045C4F20205A6
:100A300056E000BF45F26B45C5F60205AC453FDC0C
:100A400045F23045C5F60205AC454CD045F244456B
:100A5000C5F60205AC4546D045F258453EE000BF1C
:100A60005825C4F20205AC453DD07025C4F20205FC
:100A7000AC4538D08825C4F2020531E040F2B845D3
:100A8000C4F20205AC452ED045F20845C5F6020574
:100A9000AC4528D045F21C4520E000BF40F2284577
:100AA000C4F20205AC451ED040F24045C4F2020536
:100AB000AC4518D040F25845C4F2020510E000BF22
:100AC00045F26C45C5F60205AC450CD045F294459F
:100AD000C5F60205AC4506D045F28045C5F60205CF
:100AE000AC4540F0D080456EC66E002E866E6E60BE
:100AF0001CBFD0E91C566E60A44515DC9F24C4F2CF
:100B00000204A4452CDC5724C4F20204A44551DCA1
:100B10001024C4F20204A4457AD02824C4F20204AA
:100B2000A44575D040246FE045F22F44C5F6020479
:100B3000A44529DC40F2B744C4F20204A44545DCD4
:100B400040F27044C4F20204A44561D040F28844EB
:100B5000C4F20204A4455BD040F2A04454E000BFBC
:100B600040F22744C4F20204A4453FDCA024C4F2AE
:100B70000204A4454CD0B824C4F20204A44547D0D2
:100B800040F2104440E000BF45F26B44C5F6020459
:100B9000A44555DC45F23044C5F60204A44561D0B5
:100BA00045F24444C5F60204A4455BD045F25844DE
:100BB00054E000BF5824C4F20204A44528D0702495
:100BC000C4F20204A44523D088241DE040F2B844B6
:100BD000C4F20204A4451BD045F20844C5F6020441
:100BE000A4453FD045F21C4438E000BF40F2284401
:100BF000C4F20204A4450BD040F24044C4F2020403
:100C0000A44505D040F25844C4F20204A4453AD1A8
:100C10008468C06D00F01F003F2505FA00F0CEF893
:100C20000800DCF80000402C20F48020CCF8000004
:100C3000CCF8043023D1CCF80820CCF80C1070BDCF
:100C400045F26C44C5F60204A4450BD045F280443D
:100C5000C5F60204A44505D045F29444C5F6020445
:100C6000A44510D1C46D012504F01F04806805FA65
:100C700004F4CEF804404028CCF80430DBD0CCF8A3
:100C80000810CCF80C2070BD704700000000000078
:100C900072B600BFFEE700002DE9F041044601F006
:100CA0001BFE3CB3054694F83500022826D1276880
:100CB00040F20F46C4F2020640F26F483868B7426D
:100CC00020F0010038606FF00E00C4F202081DDC55
:100CD0006F21C4F202018F422ADC3F21C4F20201DB
:100CE0008F4241DC1021C4F202018F4263D02821DF
:100CF0005CE000BF0120BDE8F08100BF802060659E
:100D00000120002184F83410BDE8F08147451BDC48
:100D100040F23F41C4F202018F422DDC40F210410B
:100D2000C4F202018F4246D040F228413EE000BFAB
:100D30009F21C4F202018F4228DC7021C4F202011B
:100D40008F4238D0882131E040F29F41C4F2020145
:100D50008F4223DC40F27041C4F202018F422AD05C
:100D600040F2884122E000BF4021C4F202018F42DC
:100D700021D058211AE000BF40F24041C4F20201E4
:100D80008F4218D040F2584110E000BFA021C4F2B9
:100D900002018F420FD0B82108E000BF40F2B841F5
:100DA000C4F202018F4206D040F2A041C4F2020117
:100DB0008F42394607D13946386820F01E0041F885
:100DC000140B6FF080000A68474500EA02000860D3
:100DD0001ADC9F20C4F20200874233DC5720C4F2A1
:100DE000020087425ADC1020C4F20200874200F061
:100DF00097802820C4F20200874200F091804020B2
:100E0000C4F202008AE000BF45F22F40C5F602009E
:100E100087422DDC40F2B740C4F2020087424BDC2F
:100E200040F27040C4F20200874279D040F288401C
:100E3000C4F20200874273D040F2A040C4F2020024
:100E40006CE000BF40F22740C4F20200874243DC5E
:100E5000A020C4F20200874262D0B820C4F202008F
:100E600087425DD040F21040C4F2020056E000BF5D
:100E700045F26B40C5F6020087423FDC45F2304048
:100E8000C5F6020087424BD045F24440C5F6020049
:100E9000874245D045F258403EE000BF5820C4F29A
:100EA000020087423CD07020C4F20200874237D053
:100EB0008820C4F2020031E040F2B840C4F20200DF
:100EC00087422DD045F20840C5F60200874227D060
:100ED00045F21C4020E000BF40F22840C4F202006E
:100EE00087421DD040F24040C4F20200874217D032
:100EF00040F25840C4F2020010E000BF45F26C40DE
:100F0000C5F6020087420BD045F29440C5F60200B8
:100F1000874205D045F28040C5F60200874205D1E0
:100F2000206E016821F48071016000BF3868C0073D
:100F300010D001F0D1FC401B0628F7D320206065BB
:100F4000032084F835000120002184F83410BDE826
:100F5000F08100BF20680821B0424FF03F0211DC51
:100F60006F23C4F2020398421EDC3F23C4F2020343
:100F7000984235DC1023C4F20203984257D028234C
:100F800050E000BF40451BDC40F23F43C4F2020387
:100F900098422DDC40F21043C4F20203984246D03E
:100FA00040F228433EE000BF9F23C4F20203984270
:100FB00028DC7023C4F20203984238D0882331E041
:100FC00040F29F43C4F20203984223DC40F2704394
:100FD000C4F2020398422AD040F2884322E000BFC4
:100FE0004023C4F20203984221D058231AE000BFE4
:100FF00040F24043C4F20203984218D040F25843F2
:1010000010E000BFA023C4F2020398420FD0B8231F
:1010100008E000BF40F2A043C4F20203984206D0A9
:1010200040F2B843C4F20203984240F0C580D4E9CC
:10103000163707F01F07404502FA07F25A5019DC2D
:101040009F21C4F20201884232DC5721C4F202011E
:10105000884259DC1021C4F20201884200F09680D7
:101060002821C4F20201884200F090804021C4F29D
:10107000020189E045F22F41C5F6020188422DDCCC
:1010800040F2B741C4F2020188424BDC40F27041A9
:10109000C4F20201884279D040F28841C4F20201D0
:1010A000884273D040F2A041C4F202016CE000BF5C
:1010B00040F22741C4F20201884243DCA021C4F27D
:1010C0000201884262D0B821C4F2020188425DD098
:1010D00040F21041C4F2020156E000BF45F26B41FC
:1010E000C5F6020188423FDC45F23041C5F60201F7
:1010F00088424BD045F24441C5F60201884245D0B2
:1011000045F258413EE000BF5821C4F20201884236
:101110003CD07021C4F20201884237D08821C4F249
:10112000020131E040F2B841C4F2020188422DD000
:1011300045F20841C5F60201884227D045F21C411C
:1011400020E000BF40F22841C4F2020188421DD0D5
:1011500040F24041C4F20201884217D040F25841A7
:10116000C4F2020110E000BF45F26C41C5F6020175
:1011700088420BD045F29441C5F60201884205D061
:1011800045F28041C5F6020188420BD1616EA26E24
:10119000E06E4A6030B1016821F480710160D4E9E9
:1011A0001C014160012084F835000020002184F8F2
:1011B0003410BDE8F08100BF0421012237E70000B0
:1011C000F0B190F83510022918D180B540F20F42E5
:1011D0000168C4F20202914214DC6F23C4F20203DC
:1011E000994225DC3F23C4F2020399423CDC1023E0
:1011F000C4F2020399425DD0282357E08021416563
:101200000120704740F26F43C4F2020399421BDC95
:1012100040F23F43C4F2020399422DDC40F21043F6
:10122000C4F20203994245D040F228433EE000BF99
:101230009F23C4F20203994228DC7023C4F2020304
:10124000994237D0882331E040F29F43C4F2020331
:10125000994223DC40F27043C4F20203994229D040
:1012600040F2884322E000BF4023C4F202039942C7
:1012700020D058231AE000BF40F24043C4F20203DA
:10128000994217D040F2584310E000BFA023C4F2A7
:10129000020399420ED0B82308E000BF40F2B843E1
:1012A000C4F20203994205D040F2A043C4F2020303
:1012B000994275D191424FF0040280F8352011DC3B
:1012C0006F20C4F20200814222DC3F20C4F20200FF
:1012D000814239DC1020C4F20200814259D028201A
:1012E00054E000BF40F26F40C4F2020081421BDCB8
:1012F00040F23F40C4F2020081422DDC40F2104037
:10130000C4F20200814244D040F228403EE000BFD7
:101310009F20C4F20200814228DC7020C4F2020047
:10132000814236D0882031E040F29F40C4F2020072
:10133000814223DC40F27040C4F20200814228D096
:1013400040F2884022E000BF4020C4F20200814207
:101350001FD058201AE000BF40F24040C4F2020003
:10136000814216D040F2584010E000BFA020C4F2E5
:10137000020081420DD0B82008E000BF40F2B84022
:10138000C4F20200814204D040F2A040C4F2020044
:101390008142086820F001000860002080BD00BF85
:1013A0000A6822F001020A6045F25742C5F60202BD
:1013B00091420A6822F00E020A600FDC45F22F42C9
:1013C000C5F60202914219DC45F20842C5F6020256
:1013D000914229D045F21C4222E000BF45F27F42F3
:1013E000C5F60202914213DC45F25842C5F60202EC
:1013F000914219D045F26C4212E000BF45F23042F2
:10140000C5F6020291420FD045F2444208E000BF07
:1014100045F29442C5F60202914205D045F280425F
:10142000C5F6020291421AD1D0E9181CD0E916E3A0
:101430000A6822F480720A6003F01F01012202FA96
:1014400001F1CEF80410816ECCF80410C16E31B1F8
:101450000A6822F480720A60D0E91C124A600121F5
:1014600080F83510016D0022002980F8342094D0D6
:101470008847002080BD00002DE9F04782B00021A0
:10148000019140F20C0148F2B513C2F20041C1F6DD
:101490004E33856D40F26F490A680168C4F2020953
:1014A0002E68A2FB032849452A6815DC9F22C4F256
:1014B000020291422CDC5722C4F20202914251DC1A
:1014C0001022C4F2020291427BD02822C4F202020E
:1014D000914276D040226FE045F22F43C5F60203D9
:1014E000994229DC40F2B743C4F20203994245DC39
:1014F00040F27042C4F20202914262D040F288424D
:10150000C4F2020291425CD040F2A04254E000BF1B
:1015100040F22742C4F2020291423FDCA022C4F210
:10152000020291424DD0B822C4F20202914248D048
:1015300040F2104240E000BF45F26B43C5F60203A3
:10154000994275DC45F23043C5F60203994200F03A
:10155000828045F24443C5F6020399427BD045F2AE
:10156000584373E05822C4F20202914229D07022FB
:10157000C4F20202914224D088221DE040F2B84316
:10158000C4F2020399421CD045F20843C5F6020397
:10159000994260D045F21C4358E000BF40F2284217
:1015A000C4F2020291420CD040F24042C4F2020264
:1015B000914206D040F25842C4F20202914240F0F9
:1015C0005383C26D082302F01F0240F20F4A93407A
:1015D000C4F2020A334200F0DE8051454FF00404A9
:1015E00012DC6F27C4F20207B9426DDC3F27C4F258
:1015F0000207B94200F39C801027C4F20207B942E7
:1016000000F0BD802827B5E0494569DC40F23F473E
:10161000C4F20207B94200F3938040F21047C4F2CB
:101620000207B94200F0AB8040F22847A2E000BFB9
:1016300045F26C43C5F6020399420CD045F2804353
:10164000C5F60203994206D045F29443C5F602035B
:10165000994240F009830B68C76D07F01F07042605
:10166000BE40164218BF13F0040423D10226BE4028
:10167000164218BF13F0020442D1FA40120740F19B
:10168000F38213F0080200F0EF820A6822F00E02E3
:101690000A60012101FA07F26A60416580F835109D
:1016A000C16C00294FF0000280F8342040F0D8824D
:1016B000DAE200BF1A046E6034D49A0635D40A68A0
:1016C00022F004020A6030E09F27C4F20207B94208
:1016D00040DC7027C4F20207B94250D0882749E0A5
:1016E00040F29F47C4F20207B9423BDC40F2704728
:1016F000C4F20207B94242D040F288473AE000BF44
:101700001A046E6000F1B4829A0600F1B5820A688C
:1017100022F00A020A60012180F83510002180F8C9
:101720003410A9E2D90300F1A982016C97E200BF4D
:101730004027C4F20207B94221D058271AE000BF5F
:1017400040F24047C4F20207B94218D040F258476D
:1017500010E000BFA027C4F20207B9420FD0B8279B
:1017600008E000BF40F2A047C4F20207B94206D029
:1017700040F2B847C4F20207B94218BF08240F6804
:10178000274208D00F6827F004070F60AB60436D55
:1017900043F0010343650123934033426FD0514529
:1017A00010DC6F27C4F20207B9421DDC3F27C4F2E8
:1017B0000207B94234DC1027C4F20207B94256D0FE
:1017C00028274FE049451BDC40F23F47C4F202079F
:1017D000B9422DDC40F21047C4F20207B94246D0AC
:1017E00040F228473EE000BF9F27C4F20207B942FB
:1017F00028DC7027C4F20207B94238D0882731E0CC
:1018000040F29F47C4F20207B94223DC40F270471E
:10181000C4F20207B9422AD040F2884722E000BF52
:101820004027C4F20207B94221D058271AE000BF6E
:1018300040F24047C4F20207B94218D040F258477C
:1018400010E000BFA027C4F20207B9420FD0B827AA
:1018500008E000BF40F2A047C4F20207B94206D038
:1018600040F2B847C4F20207B94240F00D824F6916
:101870003F0604D5AB60436D43F002034365042388
:10188000934033426FD0514510DC6F27C4F20207FA
:10189000B9421DDC3F27C4F20207B94234DC1027ED
:1018A000C4F20207B94256D028274FE049451BDC55
:1018B00040F23F47C4F20207B9422DDC40F2104724
:1018C000C4F20207B94246D040F228473EE000BFCA
:1018D0009F27C4F20207B94228DC7027C4F202072E
:1018E000B94238D0882731E040F29F47C4F202075E
:1018F000B94223DC40F27047C4F20207B9422AD051
:1019000040F2884722E000BF4027C4F20207B942F4
:1019100021D058271AE000BF40F24047C4F2020726
:10192000B94218D040F2584710E000BFA027C4F2D7
:101930000207B9420FD0B82708E000BF40F2A04725
:10194000C4F20207B94206D040F2B847C4F2020717
:10195000B94240F0A1810F68BF0704D5AB60436D69
:1019600043F004034365102303FA02F2324200F00D
:10197000828051454FF0080310DC6F27C4F2020744
:10198000B9421DDC3F27C4F20207B94234DC1027FC
:10199000C4F20207B94256D028274FE049451BDC64
:1019A00040F23F47C4F20207B9422DDC40F2104733
:1019B000C4F20207B94246D040F228473EE000BFD9
:1019C0009F27C4F20207B94228DC7027C4F202073D
:1019D000B94238D0882731E040F29F47C4F202076D
:1019E000B94223DC40F27047C4F20207B9422AD060
:1019F00040F2884722E000BF4027C4F20207B94204
:101A000021D058271AE000BF40F24047C4F2020735
:101A1000B94218D040F2584710E000BFA027C4F2E6
:101A20000207B9420FD0B82708E000BF40F2A04734
:101A3000C4F20207B94206D040F2B847C4F2020726
:101A4000B94218BF04230F681F4214D0AA600A6865
:101A500052030A6808D4D20508D40A6822F00802A2
:101A60000A60016C21B906E0110351D4016C11B177
:101A7000044688472046C16D01F01F02202101FA6B
:101A800002F3334200F0AF8001681027514511DCAA
:101A90006F26C4F20206B1421EDC3F26C4F20206E3
:101AA000B14239DC1026C4F20206B1425BD02826CE
:101AB00054E000BF49451BDC40F23F46C4F2020639
:101AC000B14231DC40F21046C4F20206B1424AD0C3
:101AD00040F2284642E000BF9F26C4F20206B1420F
:101AE0002CDC7026C4F20206B1423CD0882635E0D8
:101AF00040F29F46C4F20206B14227DC40F2704633
:101B0000C4F20206B1422ED040F2884626E000BF61
:101B1000816C0029ACD1AEE74026C4F20206B14286
:101B200021D058261AE000BF40F24046C4F2020617
:101B3000B14218D040F2584610E000BFA026C4F2CF
:101B40000206B1420FD0B82608E000BF40F2A0461E
:101B5000C4F20206B14206D040F2B846C4F2020610
:101B6000B14218BF02270E683E423CD0AB6090F8ED
:101B70003530042B0B681DD123F016030B604B6925
:101B800023F080034B61036C0BB9836C1BB10B68B2
:101B900023F008030B603F219140A960012180F8E8
:101BA0003510016D00294FF0000280F8342057D124
:101BB0005AE000BF5A030A680ED4D2050ED40A6850
:101BC00022F010020A60012180F83510002180F80F
:101BD0003410C16B21B906E0110351D4C16B11B1AE
:101BE000044688472046416D00293DD0416DC90714
:101BF00034D0042180F8351001684FEA98220B6830
:101C000023F001030B60019B0133019393421AD827
:101C10000B68DB0717D0019B01330193934212D865
:101C20000B68DB070FD0019B0133019393420AD865
:101C30000B68DB0707D0019B01330193934202D865
:101C40000B68DB07DFD10968C9074FF0030108BF44
:101C5000012180F83510002180F83410C16C19B1D1
:101C600002B0BDE8F047084702B0BDE8F08700BF0A
:101C7000D90301D4416CF2E7C16BF0E7816CEEE768
:101C8000416C0029ACD1AEE70B680423934033428A
:101C90007FF4F9AD67E600BF0B6864E60000000062
:101CA0002DE9F041044600F017FEFCB140F26F4808
:101CB00005462068C4F2020840451BDC9F21C4F29F
:101CC0000201884232DC5721C4F20201884259DC09
:101CD0001021C4F20201884200F083802821C4F25E
:101CE0000201884200F07D80402175E00120BDE8BE
:101CF000F08100BF45F22F41C5F60201884229DC80
:101D000040F2B741C4F20201884247DC40F2704120
:101D1000C4F20201884264D040F28841C4F2020158
:101D200088425ED040F2A04156E000BF40F2274119
:101D3000C4F20201884241DCA021C4F202018842BF
:101D40004FD0B821C4F2020188424AD040F210417B
:101D500042E000BF45F26B41C5F60201884200F344
:101D6000B38045F23041C5F60201884200F0BF80E1
:101D700045F24441C5F60201884200F0B88045F2C0
:101D80005841AFE05821C4F20201884229D07021A5
:101D9000C4F20201884224D088211DE040F2B841FB
:101DA000C4F2020188421CD045F20841C5F6020186
:101DB000884200F09C8045F21C4193E040F22841AB
:101DC000C4F2020188420CD040F24041C4F2020148
:101DD000884206D040F25841C4F20201884240F0E5
:101DE0001B81022184F83510002184F83410016829
:101DF00021F00101016000BF20680168C9070DD012
:101E000000F06AFD401B0628F6D320206065032001
:101E100084F835000120BDE8F08100BF48F23F02A0
:101E200004F108060168CFF61062114065694CCED6
:101E30001143A2691943E3693143266A0D43616A7C
:101E40002B43042943EA060343EA020303D1D4E9FE
:101E50000B652E43334341F20006C5F60046366853
:101E6000B6F1005F0FD36568A5F129061F2E00F2B9
:101E700035820127B7403F26CCF2C036374200F00A
:101E80002D8243F4801303600429436923F0070380
:101E900041EA030140F0DC80D4E90A53002B41EA17
:101EA000050100F0D580B2F5005F00F0B780002A90
:101EB00040F0C080022D00F0C080012D00F0B48001
:101EC000002D00F0BA80C3E045F26C41C5F6020176
:101ED00088420CD045F28041C5F60201884206D006
:101EE00045F29441C5F60201884240F0958004F124
:101EF000080E022184F83510002184F8341001689E
:101F0000A3699EE80450A2F18005E769B5FA85F55A
:101F100066696D09402A4FEA853543EA07026FF387
:101F2000101142EA060208BF102541EADC0142EA2C
:101F30000E02236A294341EAD20141EA131140F813
:101F40000819C0B2CD2148433C2101EA9020E06548
:101F50002046FEF781FCE16D012201F01F0102FA2B
:101F600001F141602068404500F381809F21C4F267
:101F70000201884214DC5721C4F20201884227DCA6
:101F80001021C4F20201884200F0C7802821C4F267
:101F90000201884200F0C1804021C4F20201B9E090
:101FA00040F22741C4F20201884221DCA021C4F2A0
:101FB0000201884200F0B180B821C4F202018842D7
:101FC00000F0AB8040F21041C4F20201A2E000BF79
:101FD0005821C4F20201884200F09F807021C4F2AF
:101FE0000201884200F099808821C4F2020191E048
:101FF00040F22841C4F20201884200F08E8040F293
:102000004041C4F20201884200F0878040F258410A
:10201000C4F202017EE000BF4020F7E6032D17D88E
:10202000DFE805F00E0B0E02A3F1C072B2FA82F2E5
:10203000520904E0032D03D30AD1C3F300623AB17D
:1020400040206065012084F83500BDE8F08100BFC4
:1020500041612046FEF700FCE16D3F2201F01F01C7
:1020600002FA01F18160206840457FF77FAF45F2B9
:102070002F41C5F60201884216DC40F2B741C4F296
:102080000201884226DC40F27041C4F2020188421B
:1020900043D040F28841C4F2020188423DD040F270
:1020A000A041C4F2020135E045F26B41C5F60201E0
:1020B00088421FDC45F23041C5F6020188422CD02F
:1020C00045F24441C5F60201884226D045F2584106
:1020D0001EE000BF40F2B841C4F2020188421CD0A9
:1020E00045F20841C5F60201884216D045F21C416E
:1020F0000EE000BF45F26C41C5F6020188420CD0EB
:1021000045F29441C5F60201884206D045F280416D
:10211000C5F60201884240F0D98045F2574C45F699
:10212000FC0EC5F6020CC5F6020E60450EDC45F24B
:102130002F41C5F60201884218DC45F20841C5F678
:102140000201884228D045F21C4121E045F27F413E
:10215000C5F60201884213DC45F25841C5F602017A
:10216000884219D045F26C4112E000BF45F230417F
:10217000C5F6020188420FD045F2444108E000BF95
:1021800045F29441C5F60201884205D045F28041EE
:10219000C5F60201884247D100F0FC014CF6CD4261
:1021A0000839CCF6CC42A1FB0212AEF1FC05AEF12F
:1021B0007C061309A26803F01F01802A4FF0010278
:1021C00005EB8305256602FA01F26666A26605D173
:1021D00000206060286072601EE000BF6368D9B2B2
:1021E0005F1E072F2960726016D84E1E082E19D266
:1021F00060450EF1440237DC45F22F41C5F602017D
:10220000884241DC45F20841C5F60201884251D0BE
:1022100045F21C414AE000BF00206067C4E91B0092
:1022200054E000BFE06E4CE000F0F8014AF6AB224B
:102230001039CAF6AA22A1FB021240F20F43C4F2DF
:10224000020308251109984203F1AA060B4688BF2C
:1022500005EB121340F60005B042C4F2020505F189
:10226000800628BF0B46A5E745F27F41C5F602016F
:10227000884213DC45F25841C5F60201884219D064
:1022800045F26C4112E000BF45F23041C5F6020153
:1022900088420FD045F2444108E000BF45F280413A
:1022A000C5F60201884205D045F29441C5F6020107
:1022B00088421BD10EEB83000121E066B14022670A
:1022C000616700210160D4E91C0141600020606564
:1022D000012184F83510BDE8F08100BFA5F14F075A
:1022E000042F38BF43F48013CDE500BF40F6000053
:1022F000C4F2020000F1FC0E00F5A072DAE7000063
:1023000030B110B590F83440012C03D1022010BD3B
:1023100001207047012480F8344090F83540012CAA
:102320002CD1022480F8354000244465D0F800C048
:10233000DCF8004024F00104CCF800400446FEF72D
:102340001FFB40F20F4C2068C4F2020C40F26F41B8
:102350006045C4F2020119DC6F23C4F20203984203
:1023600026DC3F23C4F2020398423DDC1023C4F272
:10237000020398425FD0282358E000BF4FF4006169
:102380004165002180F83410012010BD88421BDC1B
:1023900040F23F43C4F2020398422DDC40F2104366
:1023A000C4F20203984246D040F228433EE000BF08
:1023B0009F23C4F20203984228DC7023C4F2020374
:1023C000984238D0882331E040F29F43C4F20203A0
:1023D000984223DC40F27043C4F2020398422AD0B0
:1023E00040F2884322E000BF4023C4F20203984237
:1023F00021D058231AE000BF40F24043C4F2020348
:10240000984218D040F2584310E000BFA023C4F215
:10241000020398420FD0B82308E000BF40F2B8434F
:10242000C4F20203984206D040F2A043C4F2020371
:10243000984240F02F8103680B2262F3440303604B
:10244000226C1AB1082302681A430260884219DC20
:102450009F22C4F20202904232DC5722C4F20202EE
:10246000904259DC1022C4F20202904200F09680A1
:102470002822C4F20202904200F090804022C4F26E
:10248000020289E045F22F42C5F6020290422DDC9D
:1024900040F2B742C4F2020290424BDC40F270427A
:1024A000C4F20202904279D040F28842C4F20202A1
:1024B000904273D040F2A042C4F202026CE000BF2E
:1024C00040F22742C4F20202904243DCA022C4F24E
:1024D0000202904262D0B822C4F2020290425DD061
:1024E00040F21042C4F2020256E000BF45F26B42D5
:1024F000C5F6020290423FDC45F23042C5F60202C8
:1025000090424BD045F24442C5F60202904245D07B
:1025100045F258423EE000BF5822C4F20202904207
:102520003CD07022C4F20202904237D08822C4F21A
:10253000020231E040F2B842C4F2020290422DD0D1
:1025400045F20842C5F60202904227D045F21C42ED
:1025500020E000BF40F22842C4F2020290421DD0A7
:1025600040F24042C4F20202904217D040F2584278
:10257000C4F2020210E000BF45F26C42C5F602024E
:1025800090420BD045F29442C5F60202904205D02B
:1025900045F28042C5F60202904274D1236E1A6859
:1025A000D20303D51A6842F480721A60E36E1BB13D
:1025B0001A6842F480721A60604511DC6F21C4F21F
:1025C000020188421EDC3F21C4F20201884235DC50
:1025D0001021C4F20201884255D0282150E000BFEA
:1025E00088421BDC40F23F41C4F2020188422DDCEC
:1025F00040F21041C4F20201884244D040F2284126
:102600003EE000BF9F21C4F20201884228DC702115
:10261000C4F20201884236D0882131E040F29F4165
:10262000C4F20201884223DC40F27041C4F202018C
:10263000884228D040F2884122E000BF4021C4F205
:10264000020188421FD058211AE000BF40F24041E9
:10265000C4F20201884216D040F2584110E000BF97
:10266000A021C4F2020188420DD0B82108E000BFC9
:1026700040F2B841C4F20201884204D040F2A041C5
:10268000C4F202018842016841F0010101600020AA
:1026900010BD00BF0268052363F343020260226C91
:1026A000002A3FF4D3AE0423CDE600000000000072
:1026B0002DE9F04F85B00F680390002F00F0E68001
:1026C000039842F2004600F126428C4602F1FF7266
:1026D000C5F602060A21B0424FEAB22600F12000F8
:1026E00008BF09210090092E38BF4FEAB22100240B
:1026F00000264FF000080191CDF808C00CE000BFA3
:1027000008F10108DCF8007037FA08F106F102065A
:1027100004F1040400F0BA80012000FA08F217EA7C
:102720000209EDD0DCF804A003200AF0030B00FA44
:1027300006F5ABF10107012F12D803988768DCE991
:1027400002C3AF43B3403B438360CAF300174368FF
:1027500023EA020207FA08F31A43426008E000BFC6
:10276000DCF808C0BBF1030F08BFBCF1010F2DD08E
:1027700003994FEA480EE8430CFA06F3CA68BBF126
:10278000020F22EA050242EA0302CA601AD1834616
:102790006FF0030000EA5802009804F01C050F21B6
:1027A00050F802C001FA05FA02992CEA0A078C4691
:1027B0000B69AB403B438350D1F804A058460AF064
:1027C000030B0BE0DDF808C008E000BF4FF0030B7F
:1027D000B6460BFA06F2DDF808C0D043039B1AF4A4
:1027E000403F1A6802EA00010BFA0EF241EA0201C8
:1027F00019603FF485AF44F2F44040F20845C5F655
:102800000200C5F60005016841F00201016001689F
:102810000F2001F00201049128F00301049A04F052
:102820000C024B5900FA02F70198BB4300FA02F27E
:102830004FF0B0401A434A510168DCF8042041EAE5
:102840000903D70258BF21EA09039702036040F247
:102850000400C5F60000016841EA090358BF21EAF7
:10286000090397030360D0F8801041EA090358BFB9
:1028700021EA0903D203C0F88030C16F41EA09039D
:1028800058BF21EA0903C3673AE700BF05B0BDE8B6
:10289000F08F0000000000000069084018BF012010
:1028A0007047000000000000426902EA0103914302
:1028B00041EA034181617047002A08BF0904816130
:1028C000704700000000000041F20000C5F6004023
:1028D0000068000C7047000040F2B020C2F20040D7
:1028E000006870470000000090F84120202A03D1C2
:1028F00090F84020012A01D102207047242280F85C
:1029000041200268136823F001031360136823F465
:1029100080531360136819431160116841F001017D
:102920001160202180F84110002180F84010002023
:10293000704700000000000090F84120202A03D1D9
:1029400090F84020012A01D102207047242280F80B
:1029500041200268136823F001031360136823F415
:10296000706343EA01211160116841F001011160B7
:10297000202180F84110002180F84010002070478D
:1029800010B310B590F8411031B9002180F8401013
:10299000044600F011FA2046242180F8411090E806
:1029A0001210C3680A68012B22F001020A6024F0A9
:1029B00070620A618A6822F400428A6006D14CF48F
:1029C00000428A600CE000BF01207047022B4CF4EB
:1029D00004428A6004D14A6842F4006203E000BF06
:1029E0004A6822F400624A6000F1100C4A6842F022
:1029F000007242F400424A60CA6822F40042CA608F
:102A00009CE81C101A4342EA0422CA60026A42EAA5
:102A10000C020A600A6842F001020A600021416467
:102A2000202280F84120016380F84210002010BD70
:102A30002DE9F04F81B0044690F84100202803D1E1
:102A400094F84000012803D1022001B0BDE8F08FC6
:102A50000D4617469846012084F84000FFF73CFFDA
:102A6000216806468A69120427D4222084F841008E
:102A7000102084F8420000206064676249F6000C70
:102A8000A4F82A8040F200086063CFF6004C608D05
:102A9000C0F2FF18B0F5807F28D32A464B686FF349
:102AA0009F2203EA0C031A43424402F510524A6083
:102AB000FF222AE088690004D7D519212046324632
:102AC00002F04EFF002871D1FFF706FF801B21683E
:102AD0001A28EFD388690004ECD5606C40F0200020
:102AE0006064202084F84100012070E0628D2B4654
:102AF0006FF39F234868D7B200EA0C0043EA07430C
:102B0000184308F592331843486022850A9F608D68
:102B1000002845D06FF39F254FF0FF0A05F100799B
:102B20000CF5806B0DE000BF608D21682085C0B280
:102B30004A6849EA004002EA0B0210434860608D8F
:102B400070B320463946324603F02EF870BB206839
:102B5000616A406A0870218D606A01306062481EB7
:102B60002085618D01396185618D0029E7D00004E0
:102B7000E5D18021002220463B46009602F0A0FFCE
:102B8000A0B9608DB0F5807FCED32068A4F828A0CE
:102B9000416801EA0B01294341EA08014160CEE79F
:102BA00020463946324603F06BF818B1012001B0D7
:102BB000BDE8F08F206820214EF60003C161CFF6FA
:102BC000006342681A404260002084F841100021EE
:102BD00084F8421084F8401001B0BDE8F08F000086
:102BE0002DE9F04F81B0044690F84100202803D130
:102BF00094F84000012803D1022001B0BDE8F08F15
:102C00000D4698461746012084F84000FFF764FE01
:102C1000216806468A6912041BD4212084F84100E9
:102C2000102084F8420000206064676249F6000CBE
:102C3000A4F82A80CFF6004C6063608DB0F5807FE9
:102C400022D3FF2222854FF0807324E0886900049C
:102C5000E3D519212046324602F082FE002840F0DA
:102C60008580FFF739FE801B21681A28EED388691A
:102C70000004EBD5606C40F020006064202084F8F4
:102C80004100012083E000BF628D2285002A00F010
:102C900087804FF0007317F8010B88626762608DC0
:102CA00001386085501E2085D2B228466FF39F20E0
:102CB00040EA02404A68184302EA0C02104340F41A
:102CC000005048600A9F608D002849D06FF39F250F
:102CD00040F2000B05F100784FF0FF090CF5806A17
:102CE000C0F2FF1B0DE000BF608D21682085C0B2DF
:102CF0004A6848EA004002EA0A0210434860608DD0
:102D000070B320463946324602F0FAFF70BB606A63
:102D1000216810F8012B8A626062608D013860853D
:102D2000208D01382085618D0029E8D00004E6D18E
:102D30008021002220463B46009602F0C1FEA8B941
:102D4000608DB0F5807FCFD32068A4F828904168CB
:102D500001EA0A01294341EA0B014160CFE700BFC4
:102D600020463946324602F08BFF18B1012001B0EF
:102D7000BDE8F08F206820214EF60003C161CFF638
:102D8000006342681A404260002084F8411000212C
:102D900084F8421084F8401001B0BDE8F08F00BF05
:102DA000486808222B4600EA0C0062F39F23184370
:102DB00040F0007085E70000B0B5B8B0044602A846
:102DC0000830B82100253395CDE93655CDE9345585
:102DD000FDF7B6FA45F200412068C4F200018842CE
:102DE00002D038B0B0BD00BF0820029002A8039501
:102DF00000F062FA08B1FDF74BFF44F2E04433A95A
:102E0000C5F60204206840F002002060206800F04F
:102E1000020001900198C0203390122034900020CD
:102E2000CDE935000420379040F20040C5F602009D
:102E3000FFF73EFCA06840F40010A060A06800F41A
:102E400000100190019838B0B0BD000000000000F3
:102E500040F2040040F2B021C2F20040C2F2004150
:102E600000780A6810440860704700000000000005
:102E700080B5032000F0ACF801F05AF944F2184193
:102E800048F20823C5F60201C0F600030A68C2F33F
:102E900003229A5C096801F00F0102F01F02595CDD
:102EA000D04040F21002C2F2004201F01F0120FAAD
:102EB00001F1116040F20C01C2F2004108600F20E4
:102EC00000F00AF800281CBF012080BD00F02CF89B
:102ED000002080BD00000000B0B540F20405C2F241
:102EE00000452978F1B1044640F20C00C2F20040DE
:102EF0004FF47A72B2FBF1F10068B0FBF1F001F02F
:102F00005FFC0F2C01464FF001000AD8002918BFC2
:102F1000B0BD4FF0FF300022214600F029F800201C
:102F20006C60B0BD0120B0BD81B044F2F440C5F684
:102F30000200016841F002010160006800F0020037
:102F40000090009801B07047002848BF704700F01B
:102F50001F01012202FA01F14EF20012C0F34A10E1
:102F6000CEF2000242F8201070470000000000007E
:102F700070B54EF60C5C4FF0FF36CEF2000C00F14F
:102F8000604505F56445DCF80030C3F3022E8EF091
:102F90000703042B28BF0423BEF1030406FA03F33E
:102FA00021EA030100F00F0338BF0024043B00288E
:102FB000634406FA04F048BF03F10C05A14022EA7D
:102FC000000008430001287070BD000000000000F0
:102FD0004EF60C514FF6FF03CEF200010A681A407C
:102FE00060F30A2242F0806040F0FD700860704794
:102FF000B0B544F60C05C5F60205296849072968ED
:1030000006D401F00701081A18BF0120B0BD00BFA7
:1030100021F0070108432860FFF75EFC044600BF6B
:1030200055F8080C800407D4FFF756FC001BB0F5D8
:103030007A7FF5D90120B0BD0020B0BD00000000AE
:1030400080B500F0EDFF44F2204148F20822C5F6B9
:103050000201C0F600020968C1F30211515C01F0DF
:103060001F01C84080BD000080B544F2384EC5F64F
:10307000020E5EF8103C5EF8101C5EF80C2CC1F3DA
:10308000053CDEF80410BCF1000F19D0C9089FED13
:103090003C1AD20601EAE27103F003026FF35F31DA
:1030A00000EE101AB8EE400ADFE802F00222102209
:1030B0005EF8381C89060DD49FED331A18E000BF66
:1030C00000218160C0E9001180BD00BF9FED2D1A75
:1030D0000EE000BF5EF8381C49F20002C0F2D032A8
:1030E000C1F3C10122FA01F101EE101AB8EE411A42
:1030F000DEF800109FED253A6FF35F2102EE101A03
:10310000DEF80010C1F34621B8EE422A013100EE8C
:10311000032A00EE10CAB7EE003AB8EE400A81EE7C
:10312000000A32EE031A20EE010A01EE101AB8EE80
:10313000411A80EE011ABCEEC11A80ED001ADEF8C9
:103140000010C1F30641013101EE101AB8EE411A28
:1031500080EE011ABCEEC11A80ED011ADEF80010F3
:10316000C1F30661013101EE101AB8EE411A80EE8A
:10317000010ABCEEC00A10EE101A816080BD00BFCB
:103180000024744A20BCBE4B0024744C000000395B
:1031900080B544F2404EC5F6020E5EF8183C5EF86B
:1031A000181C5EF8142CC1F3055CDEF80410BCF1A9
:1031B000000F19D0C9089FED3C1AD20501EAE2714F
:1031C00003F003026FF35F3100EE101AB8EE400A0D
:1031D000DFE802F0022210225EF8401C89060DD4BE
:1031E0009FED331A18E000BF00218160C0E9001193
:1031F00080BD00BF9FED2D1A0EE000BF5EF8401CA1
:1032000049F20002C0F2D032C1F3C10122FA01F149
:1032100001EE101AB8EE411ADEF800109FED253AC3
:103220006FF35F2102EE101ADEF80010C1F34621A1
:10323000B8EE422A013100EE032A00EE10CAB7EEC2
:10324000003AB8EE400A81EE000A32EE031A20EE90
:10325000010A01EE101AB8EE411A80EE011ABCEE16
:10326000C11A80ED001ADEF80010C1F306410131E9
:1032700001EE101AB8EE411A80EE011ABCEEC11A26
:1032800080ED011ADEF80010C1F30661013101EE94
:10329000101AB8EE411A80EE010ABCEEC00A10EE18
:1032A000101A816080BD00BF0024744A20BCBE4B50
:1032B0000024744C000000392DE9F0470446C07822
:1032C00044F22C480007C5F6020828D5A06E4FEA44
:1032D000305103292AD8DFE801F0030B131B00BF8C
:1032E000D8F8001041F40031C8F8001010E000BF19
:1032F00004F10800022102F043FF064680B906E00F
:1033000004F12800022102F0CFFF064640B9A06E6A
:10331000D8F8241021F440110843C8F824000026EE
:103320006078C00706D135462FE000BF01266078DF
:10333000C007F8D0A06D042858D83546DFE800F063
:1033400004140E0B0B0000BFD8F80000354640F403
:103350000030C8F800002F46C5B90DE004F1280080
:10336000002102F0A1FF04E004F10800002102F0B6
:1033700007FF05462F464DB9D8F82400A16D20F06F
:10338000070000250843C8F8240037466078800706
:1033900031D5E06D4FEAB01004285FD8DFE800F0C7
:1033A00004140E0A0A0000BFD8F8000040F40030F0
:1033B000C8F800002E46FDB90EE000BF04F1280059
:1033C000002102F071FF04E004F10800002102F086
:1033D000D7FE05462E467DB9D8F82400E16D20F4CD
:1033E000E07000250843C8F8240004E00125012707
:1033F00060788007CDD43E466078400733D5D4F856
:10340000A8004FEA7050042860D8DFE800F00313EA
:103410000D090900D8F8000040F40030C8F8000099
:10342000A9460DBB0EE000BF04F12800002102F008
:103430003BFF04E004F10800002102F0A1FE054674
:10344000A9468DB9D8F82C00D4F8A81020F4600053
:1034500000250843C8F82C0005E000BF012501261F
:1034600060784007CBD4B1466078000734D5D4F8F3
:10347000AC004FEA306004285ED8DFE800F00313A8
:103480000D090900D8F8000040F40030C8F8000029
:103490002F4615BB0EE000BF04F12800002102F00A
:1034A00003FF04E004F10800002102F069FE054674
:1034B0002F4695B9D8F82C00D4F8AC1020F0E06075
:1034C00000250843C8F82C0006E000BF01254FF096
:1034D000010960780007CAD44F46E078800730D5EC
:1034E000E06C4FEA3010032820D8DFE800F0090331
:1034F000150900BFD8F8000040F40030C8F80000FB
:103500002E46ADB9D8F82000E16C20F0300000253F
:103510000843C8F8200014E004F10800022102F07A
:103520002FFE05462E461DB9ECE700BF01250126FA
:103530006078C00609D434E001250127E0788007CF
:10354000CED43E466078C0062BD5206E4FEA303090
:10355000042839D8DFE800F004140E0A0A0000BF7E
:10356000D8F8000040F40030C8F800002F46CDB96C
:103570000EE000BF04F12800002102F095FE04E0F7
:1035800004F10800002102F0FBFD05462F464DB96D
:10359000D8F82400216E20F4E04000250843C8F844
:1035A000240037466078800635D5606E4FEA30409B
:1035B000052815D8DFE800F0041A0E04040400BF43
:1035C0002E46DDB91EE000BF012501276078800688
:1035D000EBD420E004F12800012102F065FE0AE0AE
:1035E000012501266078400619D449E004F108005D
:1035F000012102F0C5FD05462E461DB1607840064A
:103600000DD43DE0D8F82400616E20F4E0200025C0
:103610000843C8F824003E466078400630D5D4F808
:10362000B0004FEA307005280ED8DFE800F0031331
:10363000070303032F46ADB918E000BF04F12800CB
:10364000012102F031FE0AE0012501276078000621
:103650001AD43CE004F10800012102F091FD054676
:103660002F461DB1607800060ED430E0D8F82C004B
:10367000D4F8B01020F0E04000250843C8F82C0032
:1036800037466078000622D5206F58B1B0F1005F50
:103690000CD0B0F1805F37D1D8F8000040F4003092
:1036A000C8F800002E469DB908E000BF04F10800EC
:1036B000012102F065FD05462E464DB9D8F82400DB
:1036C000216F20F0405000250843C8F824003E46F2
:1036D000E078C0071DD0A06C032855D8DFE800F0C3
:1036E00008024A08D8F8000040F40030C8F800008A
:1036F000A9467DB9D8F82000A16C20F00300002570
:103700000843C8F8200004E001250126E078C0073E
:10371000E1D1B146A078400602D44F4618E000BF80
:10372000D8F8D40340F48070C8F8D403FFF7D4F875
:10373000064600BFD8F8D403C00507D4FFF7CCF87D
:10374000801B6428F6D90325032701E02F46FDB12D
:103750002078C00700F06F80E06F4FEAF000052886
:103760004ED8DFE800F0035347030303002D2E4635
:1037700054D157E004F10800022102F001FD054692
:10378000002DA946C6D1B5E701254FF00109C1E7D3
:10379000D8F84410D4F8B400414011F4407F11D05F
:1037A000D8F84410D8F8442042F48032C8F84420B5
:1037B000D8F8442021F4407122F48032C8F8442023
:1037C000C8F84410B0F5807F40F0E082FFF784F83D
:1037D000064641F2883A0325032700BFD8F8440083
:1037E000800700F1D182FFF777F8801B5045F5D9AB
:1037F000AEE700BF04F12800012102F055FD0AE008
:10380000012501262078800719D446E004F108003C
:10381000012102F0B5FC05462E461DB12078800737
:103820000DD43AE0D8F82800E16F20F038000025E8
:103830000843C8F828003E46207880072DD5A06FA1
:1038400005280FD8DFE800F004140804040400BFC2
:103850002F46ADB918E000BF04F12800012102F0A5
:1038600023FD0AE0012501272078400719D447E00D
:1038700004F10800012102F083FC05462F461DB12A
:10388000207840070DD43BE0D8F82800A16F20F045
:10389000070000250843C8F828003746207840076D
:1038A0002ED5D4F8940005280ED8DFE800F00313D5
:1038B000070303032E46ADB918E000BF04F128004A
:1038C000012102F0F1FC0AE00125012620788006A2
:1038D0001AD44BE004F10800012102F051FC054626
:1038E0002E461DB1207880060ED43FE0D8F82C007B
:1038F000D4F8941020F0070000250843C8F82C00E5
:103900003E462078800631D5D4F890004FEA3070DA
:1039100005280FD8DFE800F004140804040400BFF1
:103920002F46ADB918E000BF04F12800022102F0D3
:10393000BBFC0AE001250127207840061AD44BE0A1
:1039400004F10800002102F01BFC05462F461DB1C2
:10395000207840060ED43FE0D8F82800D4F8901024
:1039600020F0E04000250843C8F8280037462078BA
:10397000400631D5D4F89C004FEAB02005280FD876
:10398000DFE800F004140804040400BF2E46ADB9BB
:1039900018E000BF04F12800022102F085FC0AE0D3
:1039A00001250126207800061AD44EE004F1080013
:1039B000002102F0E5FB05462E461DB120780006E9
:1039C0000ED442E0D8F82C00D4F89C1020F4E0503B
:1039D00000250843C8F82C003E462078000634D560
:1039E000D4F8A0004FEA7030052815D8DFE800F0C1
:1039F000041A0E04040400BF2F46E5B12068010735
:103A000027D4C1063ED4000355D477E004F1280042
:103A1000022102F049FC0AE0012501272068010784
:103A2000EFD516E004F10800002102F0A9FB0546DD
:103A3000002D2F46E2D1D8F82C00D4F8A01020F4A5
:103A4000604000250843C8F82C003746206801076D
:103A5000D7D5D4F88400B0F5805F09D104F12800EF
:103A6000022102F021FC002818BF0127D4F88400AD
:103A7000D8F8281021F440510843C8F828002068DD
:103A8000C106C0D5D4F89800B0F5807F09D104F103
:103A90002800022102F008FC002818BF0127D4F8F2
:103AA0009800D8F82C1021F440710843C8F82C0075
:103AB0002068000322D5D4F8A400B0F5003F11D04F
:103AC000B0F5803F08D0002844D104F1080000215F
:103AD00002F056FB05E000BF04F12800022102F0CD
:103AE000E3FB05462E4655B9D8F82C00D4F8A410AF
:103AF00020F4403000250843C8F82C003E46A0784A
:103B000040072CD5D4F88800B0F5401F0BD0B0F595
:103B1000001F0BD0B0F5801F2AD1D8F8000040F468
:103B20000030C8F800002F46D5B907E004F128009E
:103B3000012102F0B9FB05462F468DB9D8F82800BF
:103B4000D4F8881020F4401000250843C8F8280055
:103B500005E000BF01250126A0784007D2D43746F2
:103B6000A078C00709D13E462168880015D532E00B
:103B700001250127A078C007F5D0206DB0F5803F62
:103B800010D018BBD8F8000040F40030C8F800008E
:103B90002E4685B1216888001DD460688A0326D42A
:103BA00069E000BF04F10800022102F0E9FA0546CD
:103BB000002D2E46EED1D8F82000216D20F4803063
:103BC00000250843C8F82000CDE700BF01250126E5
:103BD00021688800E1D504F12800022102F064FB8D
:103BE000002818BF0126D4E900108A0343D5D4F871
:103BF00080206FF0010303EB3223022B0BD34FEA3B
:103C0000322343B1012B40F0B980D8F8003043F49F
:103C10000033C8F800303DB3CA022FD4CA0037D4ED
:103C20008A0240D44A0048D4CA0F55D109025DD453
:103C3000C10766D181076FD4410779D4010700F12C
:103C40008380C10600F18C80800607D504F128002E
:103C5000022102F029FB002818BF0125002D18BF02
:103C600001252846BDE8F087D8F8283023F44073B2
:103C70001A43C8F828203546CA02CFD5D8F82420E0
:103C8000636F22F000421A43C8F82420CA00C7D547
:103C900058F81C2CD4F8B83022F480421A4348F863
:103CA0001C2C8A02BED5D8F82420E36E22F0807244
:103CB0001A43C8F824204A00B6D558F81C2C22F420
:103CC000004248F81C2CD4F8BC2058F81C3C1A437D
:103CD00048F81C2CCA0FA9D0D8F82020636D22F018
:103CE00040521A43C8F820200902A1D5D8F828105C
:103CF000D4F88C2021F440011143C8F82810C107E2
:103D000098D004F10800002102F03AFA002818BF08
:103D10000546606881078FD504F10800012102F093
:103D20002FFA002818BF0546606841077FF586AF67
:103D300004F10800022102F023FA002818BF05460A
:103D4000606801077FF57DAF04F12800002102F0D3
:103D5000ABFA002818BF05466068C1067FF574AF4E
:103D600004F12800012102F09FFA002818BF05463F
:103D7000606880063FF56AAF70E700BF0125CA02A0
:103D80007FF54CAF7AE700BFD4F8B4004FF6CF739D
:103D900058F81C2CC0F2FF0300F4407122F47C524E
:103DA00003EA10136FF31F30B1F5407F08BF1A43C9
:103DB000002548F81C2CD8F844100843C8F84400E3
:103DC000FFF7ABBC000000002DE9F04381B00028F4
:103DD00000F0208142F200090446C5F20029D9F81A
:103DE000000000F00F0081420DD9D9F8000020F04A
:103DF0000F000843C9F80000D9F8000000F00F00D8
:103E0000884240F00781206844F218464207C5F610
:103E100002060AD52269336803F070039A4204D976
:103E2000336823F070031A43326002070AD56269CF
:103E3000736803F070039A4204D9736823F0700327
:103E40001A437260C2060AD5A269736803F4E0637C
:103E50009A4204D9736823F4E0631A4372608206BD
:103E60000AD5E269B36803F070039A4204D9B368D3
:103E700023F070031A43B26010F002020AD0E36824
:103E8000376807F00F07BB4204D9376827F00F07E0
:103E90003B433360C3073FD0306820F47062D4E9FD
:103EA00001031A433260012856F8182C0AD003285F
:103EB00004D002280AD192030BD4ABE0920108D4BB
:103EC000A8E000BFD20504D4A4E000BF520740F12F
:103ED000A180884656F8081C21F00701084346F8DF
:103EE000080CFEF7F9FC054641F2883756F8080C35
:103EF000616800F03800B0EBC10F09D0FEF7ECFCB0
:103F0000401BB842F2D9032001B0BDE8F08300BFE6
:103F10002068414600F0020252B1E268336803F0C3
:103F20000F039A4204D2336823F00F031A4332601E
:103F3000D9F8002002F00F0291420CD2D9F80020EB
:103F400022F00F020A43C9F80020D9F8002002F03D
:103F50000F028A425ED141070AD52169326802F018
:103F60007002914204D2326822F070021143316033
:103F700001070AD56169726802F07002914204D2A9
:103F8000726822F0700211437160C1060AD5A169FE
:103F9000726802F4E062914204D2726822F4E06234
:103FA0001143716080060AD5E069B16801F07001C3
:103FB000884204D2B16821F070010843B06000F07B
:103FC000B7F8316848F20822C0F60002C1F30321B5
:103FD000515C336803F00F0301F01F01D25C20FA3B
:103FE00001F102F01F0040F21002C2F2004221FA79
:103FF00000F0106040F2080040F20C02C2F20040F3
:10400000C2F200420068116001B0BDE8F043FEF763
:1040100063BF00BF012001B0BDE8F08300000000D5
:1040200080B500F085F844F2184148F20823C5F63F
:104030000201C0F600030A68C2F303229A5C096811
:1040400001F00F0102F01F02595C20FA02F201F0A8
:104050001F0040F21001C2F2004122FA00F0086095
:1040600040F20C01C2F200410A6080BD0000000075
:1040700080B500F05DF844F2184C48F20823C5F60C
:10408000020CC0F60003DCF80020C2F303229A5CA5
:10409000DCF8001001F00F0102F01F02595CD04063
:1040A00040F21002C2F2004201F01F0120FA01F1B9
:1040B000116040F20C02C2F200421060DCF8040011
:1040C000C0F30210185C00F01F0021FA00F080BD60
:1040D00080B500F02DF844F2184C48F20823C5F6DC
:1040E000020CC0F60003DCF80020C2F303229A5C45
:1040F000DCF8001001F00F0102F01F02595CD04003
:1041000040F21002C2F2004201F01F0120FA01F158
:10411000116040F20C02C2F200421060DCF80400B0
:10412000C0F30220185C00F01F0021FA00F080BDEF
:1041300044F20041C5F602010869C0F3C200032839
:1041400016D002280ED0002832D10868800649F225
:104150000000C0F2D03058BF70470968C1F3C101F8
:10416000C840704747F64000C0F27D10704700BF5E
:104170008B6A886AD1F82CC04A6BC0F30510E8B18D
:10418000C2F3CC0203F0030300EE102A9FED2A1ABB
:10419000B8EE400A20EE010A9FED281ADFE803F08E
:1041A000022110210A6892060ED49FED261A18E00B
:1041B00040F60010C0F23D00704700BF002070477D
:1041C0009FED1F1A0DE000BF0A6849F20003C0F21C
:1041D000D033C2F3C10223FA02F201EE102AB8EE84
:1041E000411A0A6B9FED183A6FF35F2202EE102A14
:1041F0005FEACC7203FE000A03EE100A086BB8EE09
:10420000422AC0F34620B8EE433A013030EE020AAB
:10421000B7EE002A81EE031A30EE020A21EE000A00
:1042200001EE100AB8EE411A80EE010ABCEEC00A97
:1042300010EE100A704700BF000000390024744AD5
:1042400020BCBE4B0024744C0000000000000000A5
:1042500070B3F0B581B00446007844F20046C00760
:10426000C5F6020626D12078800740F1C280306969
:1042700010F03801B06A3FD0182908BF5FEA80709B
:104280003AD0E0683168002862D021F01901084373
:104290003060FEF721FB05463068400748D4FEF742
:1042A0001BFB401B0228F7D9032001B0F0BD00BF63
:1042B00001207047306900F03801B06A102905D03C
:1042C00018290BD100F00300022807D130688003C1
:1042D000C9D560680028C6D13CE100BF616830687C
:1042E00000294FD0B1F5A02F44D0B1F5803F5FD168
:1042F00040F4803062E000BF30684007E06802D5DB
:10430000002800F02781316821F01901084330604E
:10431000FEF7E2FA054600BF3068400708D4FEF712
:10432000DBFA401B02284FF00300F5D901B0F0BDC5
:10433000FEF7CAFA41F2030188424FD8206971683A
:10434000402821F47C3151D141F4003050E000BFCD
:1043500021F001003060FEF7BFFA054630684007E3
:1043600047D5FEF7B9FA401B02284FF00300F5D9F4
:10437000DCE700BF40F480203060306840F48030DB
:104380001CE000BF20F480303060306820F48020D2
:104390003060FEF7A1FA0546306880037FF563AF11
:1043A000FEF79AFA401B64284FF00300F4D9BDE7EA
:1043B00020F480303060306820F480203060FEF7D8
:1043C0008BFA0546306880033FF54DAFFEF784FA5F
:1043D000401B6428F6D9032001B0F0BD7068216944
:1043E00020F0FE4040EA016002E000BF41EA0030F8
:1043F00070602078C00654D5306900F03801B06A8A
:10440000082905D0182919D100F00300012815D179
:104410003068C00503D5E069802840F09B80FEF736
:1044200053FA41F2030188421ED8206A716820289D
:1044300021F0F84132D141F0804031E0E0690028BC
:10444000306819D040F080003060FEF745FA05462C
:104450003068C005E3D4FEF73FFA401B02284FF056
:104460000300F5D962E700BFF068216A20F07C50B4
:1044700040EA0160F06014E020F080003060FEF758
:104480002BFA05463068C0050BD5FEF725FA401B10
:1044900002284FF00300F5D948E700BF41EA8060E9
:1044A0007060207800073FD42078800656D42078AA
:1044B000400769D4656A9DB3306900F03800182858
:1044C00040F0A880012DB16A306B43D001F00302A7
:1044D000A36A9A423ED1C1F30511E26A914239D1F1
:1044E0000146226B6FF35F21013A914232D1C0F352
:1044F0004622616B01398A422CD1C0F30642A16B7E
:1045000001398A4226D1C0F30660E16B0139884245
:1045100020D1706BA16CC0F3CC00814240F034819B
:10452000002001B0F0BD00BF60690028706F41D06D
:1045300040F001007067FEF7CFF90546706F800705
:10454000B2D4FEF7C9F9401B0228F7D9032001B005
:10455000F0BD00BF012001B0F0BD00BFA069002880
:10456000306845D040F480503060FEF7B5F905461C
:10457000306880049BD4FEF7AFF9401B0228F7D9BE
:10458000032001B0F0BD00BFD6F8000440F48070F5
:10459000C6F80004FEF7A0F9054600BFD6F80004EF
:1045A000C00519D4FEF798F9401B6428F6D90320FA
:1045B00001B0F0BD20F001007067FEF78DF90546EF
:1045C000706F80077FF570AFFEF786F9401B0228F9
:1045D0004FF00300F4D9A9E6A168306F002943D059
:1045E000052939D0012957D140F001005AE000BF18
:1045F00020F480503060FEF76FF905463068800483
:104600007FF555AFFEF768F9401B02284FF0030015
:10461000F4D98BE6306820F080703060FEF75CF9EA
:10462000022D05460CD100BF306880014CD5FEF745
:1046300053F9401B02284FF00300F5D976E600BF7E
:10464000306880017FF56CAFFEF746F9401B022809
:104650004FF00300F4D969E640F004003067306F92
:1046600040F001001EE000BF20F001003067306F15
:1046700020F004003067FEF72FF9054641F2883735
:10468000306F80077FF516AFFEF726F9401BB84262
:104690004FF00300F4D949E620F001003067306F95
:1046A00020F004003067FEF717F9054641F288371D
:1046B000306F80073FF5FEAEFEF70EF9401BB842A3
:1046C0004FF00300F4D931E604F12807B06A40F254
:1046D000F33188438ECF0843591E40EA02104FF44D
:1046E0007E426FF35F21B06202EB47204FF4FE027F
:1046F00080B2E36B0844A16B02EB01414FF0FE4234
:1047000001F4FE0102EB0362084402F0FE4108449A
:104710003063F06A4FF6F87120F00100F062706BC0
:10472000A26C884340EAC2007063F06A216C20F0FA
:104730000C000843F062F06A616C20F0020008434C
:10474000F062F06A40F48030F062F06A40F40030C9
:10475000F062F06A40F48020F062F06A40F00100FC
:10476000F062306840F080703060FEF7B5F80446C3
:10477000306880013FF5D4AEFEF7AEF8001B02288A
:104780004FF00300F4D9D1E5F06A20F00100F062A7
:10479000FEF7A2F80546FEF79FF8A842FBD0706B23
:1047A0004FF6F871A26C884340EAC2007063F06A69
:1047B00040F00100F062002001B0F0BD00000000F8
:1047C000411E0020B0EB116F02D00120704700BFE6
:1047D0004EF21002F023CEF2000251604EF6235149
:1047E000CEF200010B70072190601160704700004D
:1047F000704700000000000070470000000000004B
:10480000704700000000000090F83C20012A4FF0A3
:1048100002025ED0B0B580F83D2040F2004C026844
:10482000C4F2010C42F4806363455368D2F808E097
:1048300002BF23F470034C68234341F2FF740D68F8
:10484000C4F2000423F07003A24243EA050353605C
:104850000CDC40F2FF73C4F200039A4216DCB2F1A2
:10486000804F29D040F2004318E000BF40F2FF33F0
:10487000C4F201039A4217DC41F60003C4F20003BC
:104880009A4219D00023C4F2010309E040F6000364
:10489000C4F200039A420FD040F60043C4F2000372
:1048A0009A4209D00DE000BF44F20003C4F20103B4
:1048B0009A4201D0624504D12EF0800389681943E1
:1048C00091600022012180F83D1080F83C20BDE875
:1048D000B04010467047000060B310B5044690F831
:1048E0003D0028B9002084F83C00204600F024F860
:1048F000022084F83D002068211D01F0E1FE012026
:1049000084F8480084F83E0084F83F0084F84000B2
:1049100084F8410084F8420084F8430084F844009D
:1049200084F8450084F8460084F8470084F83D0088
:10493000002010BD0120704780B582B041F20041D7
:104940000068C4F2000188421ED041F20001C4F2A6
:104950000001884225D144F2E8400022C5F6020059
:10496000016841F0100101600068002100F01000B2
:10497000019001983620FEF7FBFA362002B0BDE820
:104980008040FEF7E1BA00BF44F2E840C5F60200FD
:10499000016841F020010160006800F020000090F3
:1049A000009802B080BD000090F83D10012917D199
:1049B000022180F83D10016841F2FF70C4F200004E
:1049C00081420FDC40F2FF70C4F20000814217DC2C
:1049D000B1F1804F2CD040F20040C4F2000025E03D
:1049E0000120704740F2FF30C4F20100814213DC25
:1049F00041F60000C4F20000814219D0002013E00B
:104A000040F60000C4F20000814211D040F60040A0
:104A1000C4F200000AE000BF44F20000C4F201004A
:104A2000814205D040F20040C4F2010081420BD126
:104A300007228868C0F2010202400020062A18BF3F
:104A4000B2F5803F00D17047086840F0010008606F
:104A5000002070470000000090F83D1001291BD194
:104A6000022180F83D10016841F2FF70C4F200009D
:104A70008142C86840F00100C8600FDC40F2FF705E
:104A8000C4F20000814217DCB1F1804F2CD040F21B
:104A90000040C4F2000025E00120704740F2FF30E2
:104AA000C4F20100814213DC41F60000C4F20000B0
:104AB000814219D0002013E040F60000C4F200004B
:104AC000814211D040F60040C4F200000AE000BF6D
:104AD00044F20000C4F20100814205D040F20040DF
:104AE000C4F2010081420BD107228868C0F20102A2
:104AF00002400020062A18BFB2F5803F00D170475F
:104B0000086840F0010008600020704700000000C5
:104B10000146006841F21113026AC0F211031A4201
:104B200004D00020012281F83D207047026A40F243
:104B300044431A42F5D1026822F0010202600020CB
:104B4000012281F83D2070477047000000000000FE
:104B5000F0B581B004460068C5680669B10717D58D
:104B600015F0020114D06FF00201016101212177DB
:104B70008069800704D02046FFF7E6FF06E000BF0B
:104B8000204600F09DF8204600F09EF80020207797
:104B9000700719D515F0040016D020686FF00401D5
:104BA000016102212177806910F4407F04D0204602
:104BB000FFF7CAFF06E000BF204600F081F820465C
:104BC00000F082F800202077300717D515F0080094
:104BD00014D020686FF00801016104212177C069B9
:104BE000800703D02046FFF7AFFF05E0204600F026
:104BF00067F8204600F068F800202077F00619D505
:104C000015F0100016D020686FF010010161082126
:104C10002177C06910F4407F04D02046FFF794FF4D
:104C200006E000BF204600F04BF8204600F04CF8AC
:104C300000202077F00718BF15F0010006D020688B
:104C40006FF001010161204600F042F805F0800795
:104C500016F4025F18BF002F02D1F00509D410E04E
:104C600020686FF4025101612046FFF7C5FDF00591
:104C700007D537B120686FF4807101612046FFF7D6
:104C8000B7FD700609D515F0400006D020686FF01A
:104C900040010161204600F01FF8B0060CD515F068
:104CA000200009D020686FF020010161204601B08A
:104CB000BDE8F040FFF7A4BD01B0F0BD000000006A
:104CC0007047000000000000704700000000000076
:104CD0007047000000000000704700000000000066
:104CE00090F88410012901D1022070472421C0F8D6
:104CF000881001680A680B6822F0005223F0010353
:104D00000B60002343660A602021C0F8881080F8F9
:104D10008430002070470000D0F88C30202B07D161
:104D200010B504460120002918BF002A02D110BD89
:104D300002207047E06600202067204602F0CCFA8F
:104D4000002818BF10BDE06E01282DD12068102169
:104D50000162206850E8000F216840F0100041E82F
:104D60000002002A1FBF206850E8000F216840F0B1
:104D700010001CBF41E80002002A17D0206850E84C
:104D8000000F216840F0100041E8000272B1206875
:104D900050E8000F216840F0100041E800020020B8
:104DA000002AD6D1C3E700BF012010BD002010BDEE
:104DB00040F21C22C2F20042904218BF704740F2FB
:104DC0004000C2F2004041800121017070470000A4
:104DD000704700000000000090F88420012A01D1F3
:104DE0000220704770B52422C0F888200268D0F8ED
:104DF00064E0BEF1000FD2F800C0136823F0010395
:104E00001360936823F0606341EA0301916019D055
:104E1000916848F2302E9368C0F6000E5B0F48F29E
:104E20003825C1F34266C0F600051EF80340E95C70
:104E30002301B3FBF1F11EF80630AE5D1B01B3FB9D
:104E4000F6F301E001210123A0F86A102021A0F867
:104E50006830C2F800C0C0F88810002180F88410C3
:104E6000002070BD0000000090F88420012A01D1CC
:104E70000220704770B52422C0F888200268D0F85C
:104E800064E0BEF1000FD2F800C0136823F0010304
:104E90001360936823F0604341EA0301916019D0E5
:104EA000916848F2302E9368C0F6000E5B0F48F20E
:104EB0003825C1F34266C0F600051EF80340E95CE0
:104EC0002301B3FBF1F11EF80630AE5D1B01B3FB0D
:104ED000F6F301E001210123A0F86A102021A0F8D7
:104EE0006830C2F800C0C0F88810002180F8841033
:104EF000002070BD000000007047000000000000AE
:104F00007047000000000000704700000000000033
:104F100070B5016840F62F02CB691A40202A0A6852
:104F20008E680BD102F0200406F080552D1917D0A1
:104F3000416F69B3BDE87040084700BF40F60F05F8
:104F40002B420DD0012540F22014C1F20005C0F221
:104F5000004406EA050C02EA040515EB0C0525D110
:104F6000DD06C46E16D5012C14D112F0100511D037
:104F700010220A628968490666D4B0F85C10B0F85D
:104F80005E20B0F85E30002B18BF914240F068827E
:104F900070BD00BFDD0215D516F4800512D04FF4A8
:104FA00080120A62BDE87040FFF7AABFDD0718BF94
:104FB00012F4807540F02A819D0706F0010E00F181
:104FC00031813AE1190606D502F0800106F40006A7
:104FD000891940F0CB82590640F10C8112F0400152
:104FE00000F00881016851E8001F026821F04001CB
:104FF00042E80013F3B1016851E8001F026821F094
:10500000400142E80013002B1FBF016851E8001F58
:10501000026821F040011CBF42E80013002B09D0B8
:10502000016851E8001F026821F0400142E80013C6
:10503000002BD7D12021C0F8881000218167BDE85E
:10504000704000F011BC00BFD0F8802011684B68A0
:10505000B0F85C4099B2002900F0C280A14280F013
:10506000BF80A0F85E30D169B1F5807F00F0AC80E0
:10507000016851E8001F026821F4807142E80013C2
:10508000F3B1016851E8001F026821F4807142E821
:105090000013002B1FBF016851E8001F026821F4B4
:1050A00080711CBF42E80013002B09D0016851E851
:1050B000001F026821F4807142E80013002BD7D151
:1050C000016851E8021F026821F0010142E8021361
:1050D000F3B1016851E8021F026821F0010142E8C2
:1050E0000213002B1FBF016851E8021F026821F064
:1050F00001011CBF42E80213002B09D0016851E8EE
:10510000021F026821F0010142E80213002BD7D1EF
:10511000016851E8021F026821F0400142E80213D1
:10512000F3B1016851E8021F026821F0400142E832
:105130000213002B1FBF016851E8021F026821F013
:1051400040011CBF42E80213002B09D0016851E85E
:10515000021F026821F0400142E80213002BD7D160
:105160002021C0F88C100021C166016851E8001FA1
:10517000026821F0100142E80013F3B1016851E820
:10518000001F026821F0100142E80013002B1FBF2E
:10519000016851E8001F026821F010011CBF42E8BD
:1051A0000013002B09D0016851E8001F026821F0AC
:1051B000100142E80013002BD7D1D0F8801004462C
:1051C0000846FBF769FD204602210167B0F85C1034
:1051D000B0F85E20891A89B2BDE87040FFF7E8BDDB
:1051E0008C427FF4D5AED269B2F5807F7FF4D0AE29
:1051F000B6E100BF190240F1C58112F0804100F014
:10520000C181BDE87040FFF777BE00BF01250D6288
:10521000D0F8905045F00105C0F890509D0706F079
:10522000010E0AD5BEF1000F07D002240C62D0F89F
:10523000904044F00404C0F890405C070AD5BEF1E9
:10524000000F07D004250D62D0F8905045F00205FC
:10525000C0F890501D070CD502F0200555EA0C054A
:1052600007D008250D62D0F8905045F00805C0F829
:1052700090501D050BD512F0806508D04FF40065E5
:105280000D62D0F8905045F02005C0F89050D0F84D
:105290009050002D3FF47CAE9B060BD502F020020F
:1052A00006F08053D21805D0426F1AB104469047D9
:1052B00020462168D0F89020896801F0400102F072
:1052C0002802891806D10446FFF71EFE0020C4F804
:1052D000900070BD016851E8001F026821F49071D0
:1052E00042E80013F3B1016851E8001F026821F49D
:1052F000907142E80013002B1FBF016851E8001FA6
:10530000026821F490711CBF42E80013002B09D001
:10531000016851E8001F026821F4907142E800130F
:10532000002BD7D14FF6FE71CEF6FF71026852E81E
:10533000022F03680A4043E80226DEB1026852E801
:10534000022F03680A4043E80226002E1FBF0268AE
:1053500052E8022F03680A401CBF43E80226002ED1
:1053600008D0026852E8022F03680A4043E8022688
:10537000002EDBD1C16E012927D1016851E8001F41
:10538000026821F0100142E80013F3B1016851E80E
:10539000001F026821F0100142E80013002B1FBF1C
:1053A000016851E8001F026821F010011CBF42E8AB
:1053B0000013002B09D0016851E8001F026821F09A
:1053C000100142E80013002BD7D12021C0F88C1027
:1053D0000021C166026841679168490640F1CE80AC
:1053E000016851E8021F026821F0400142E80213FF
:1053F000F3B1016851E8021F026821F0400142E860
:105400000213002B1FBF016851E8021F026821F040
:1054100040011CBF42E80213002B09D0016851E88B
:10542000021F026821F0400142E80213002BD7D18D
:10543000D0F88010002900F0A18046F689220446A9
:105440000846C0F600020A65FBF7BAFE00283FF4E2
:105450009FADD4F88000016DBDE87040084700BFE3
:10546000891A026852E8002F036822F4907243E818
:105470000026F6B1026852E8002F036822F4907209
:1054800043E80026002E1FBF026852E8002F036881
:1054900022F490721CBF43E80026002E09D0026857
:1054A00052E8002F036822F4907243E80026002E91
:1054B000D7D14FF6FE72CEF6FF72036853E8023F73
:1054C0000668134046E80235DDB1036853E8023F41
:1054D0000668134046E80235002D1FBF036853E8F5
:1054E000023F066813401CBF46E80235002D08D075
:1054F000036853E8023F0668134046E80235002D72
:10550000DBD12022C0F88C200022C26642670268EC
:1055100052E8002F036822F0100243E80026F6B19B
:10552000026852E8002F036822F0100243E80026C8
:10553000002E1FBF026852E8002F036822F01002FD
:105540001CBF43E80026002E09D0026852E8002F55
:10555000036822F0100243E80026002ED7D189B25A
:1055600002220267BDE87040FFF722BC816F00296C
:105570003FF40EADBDE87040084700BFBDE8704085
:10558000FFF7C2BCD9017FF503ADB2F1FF3FC8BF41
:1055900070BDBDE87040FFF71BBC000000000000BC
:1055A00010B5D8B10446D0F8880028B9002084F896
:1055B0008400204600F028F82420C4F888002068E1
:1055C000A16A0268002922F00101016002D0204690
:1055D00001F032F9204601F03BFC08B1012010BD7A
:1055E0002068416821F490414160816821F02A01DE
:1055F0008160016841F0010101602046BDE8104072
:1056000001F08AB90000000070B5B8B0044602A8E5
:105610000830B82100253395CDE93655CDE934550C
:10562000FAF78EFE41F200012068C4F201018842BF
:1056300002D038B070BD00BF0120029002A80395CF
:10564000FDF73AFE08B1FBF723FB44F2E0400026E9
:10565000C5F60200016941F010010161016901F024
:10566000100101910199016841F001010160006898
:1056700033A900F00100019001984FF4C06033900D
:1056800002203490072037900020C5F60200CDE9B3
:105690003566FDF70DF840F2B8051020C2F200455E
:1056A000C4F2020028602920C5E901064FF4806099
:1056B000EE60C5E904062846C5E90666C5E9086640
:1056C000FCF7EEFA08B1FBF7E3FA252000210022EF
:1056D000C4F88050AC63FDF74BFC2520FDF734FC8B
:1056E00038B070BD000000007047000000000000EE
:1056F00070470000000000002DE9F04381B004462F
:10570000D0F88800202809D188460120002918BF38
:10571000002A07D101B0BDE8F08300BF022001B02C
:10572000BDE8F0831D460020C4F890002120C4F895
:1057300088001646FDF7D0F8A4F85460A4F8566027
:105740000646A168B1F5805F02D12069002843D0E8
:1057500047464FF00008B4F856002168002841D0B1
:1057600005F10109C86900060ED4B9F1000F0FD088
:10577000002D61D0FDF7B0F8801BA8425ED82168EB
:105780000868C8690006F5D587B117F8010B12E063
:10579000C8690006F8D4C86900065CBFC8695FEA3A
:1057A0000060F1D4C8690006F2D5EDE738F8020BC5
:1057B00000276FF35F208862D4F8880000F0210092
:1057C00021284BD1B4F856000138A4F85600B4F89B
:1057D00056000028C6D105E00027B4F8560021681D
:1057E0000028BDD1C86940061ED42DB3681C14D151
:1057F000C86940062AD4C869400627D4C86940064B
:1058000024D4C86940064FF00000F1D50DE000BF78
:1058100020680168C069400618D4FDF75DF8801B58
:10582000A842F5D90AE000BF00202021C4F8881062
:1058300001B0BDE8F08300BFFDF74EF80320202142
:10584000C4F8881001B0BDE8F08300BF002020211B
:10585000C4F8881001B0BDE8F08300BF012001B09A
:10586000BDE8F08300000000704700000000000069
:10587000FEE700000000000070B540F200444FF465
:105880008041C5F60204012220460125FDF714F8E7
:10589000142001F0D9FF4FF4804100222046FDF78B
:1058A0000BF84FF400412046FCF7F6FF01280AD11F
:1058B00040F2B000C2F20040057040F2D010C2F2D7
:1058C0000040FFF771F84FF400412046FCF7E4FF79
:1058D000002818BF70BD40F2B005C2F2004528781C
:1058E000012825D140F2D0140026C2F200442E70C7
:1058F0002068406A68602046FFF70AF920689FED3B
:105900000E1B466210A095ED010AB8EE400B80EE2A
:10591000010B9FED0B1B20EE010BB7EEC00BB7EE9A
:10592000C00A53EC102BBDE8704001F0DBBF00BF94
:1059300070BD00BF00BF00BF0000000000004D4070
:10594000000000000000594044697374616E636593
:105950003A20252E336620636D0D0A0000000000FA
:1059600070B5044600688369DB0603D40021002279
:1059700069E000BF0E461021C161816989065ED4CD
:10598000711C52D0154636BBFCF7A6FF2068426852
:1059900094F8421083691B040CD512F4804209D19B
:1059A000202907D0416841F480414160FCF794FF11
:1059B000054600BF20688169890605D4FCF78CFF85
:1059C000401B1A28F6D328E081698906DCD536E029
:1059D0008169890633D4FCF77FFF401BB042206801
:1059E000F6D9426894F8421083691B040CD512F46E
:1059F000804209D1202907D0416841F480414160AB
:105A0000FCF76AFF054600BF206881698906DFD47C
:105A1000FCF762FF401B1A28F6D320680122816937
:105A2000242110E08169890609D48169890606D498
:105A3000816989065CBF81695FEA8161F2D52021B5
:105A4000C161012204218369DE0505D541F0010110
:105A50004FF48072C26101225E0505D49B050AD411
:105A600072B9002070BD00BF41F008019A054FF4E3
:105A70008062C26104D541F002014FF40072C2613C
:105A80008269920701D5002282628269D20703D11E
:105A9000826942F0010282614EF600034268CFF64D
:105AA00000631A404260606C08436064202084F800
:105AB0004100002084F8420084F84000012070BDBD
:105AC0002DE9F0410446006880690840401AB0FAA8
:105AD00080F04009824221D10D4616461F46581CCF
